{
  "_format": "hh-sol-artifact-1",
  "contractName": "ArmenianLeagueTickets",
  "sourceName": "contracts/ArmenianLeagueTickets.sol",
  "abi": [
    {
      "inputs": [],
      "stateMutability": "nonpayable",
      "type": "constructor"
    },
    {
      "anonymous": false,
      "inputs": [
        {
          "indexed": true,
          "internalType": "address",
          "name": "account",
          "type": "address"
        },
        {
          "indexed": true,
          "internalType": "address",
          "name": "operator",
          "type": "address"
        },
        {
          "indexed": false,
          "internalType": "bool",
          "name": "approved",
          "type": "bool"
        }
      ],
      "name": "ApprovalForAll",
      "type": "event"
    },
    {
      "anonymous": false,
      "inputs": [
        {
          "indexed": true,
          "internalType": "address",
          "name": "previousOwner",
          "type": "address"
        },
        {
          "indexed": true,
          "internalType": "address",
          "name": "newOwner",
          "type": "address"
        }
      ],
      "name": "OwnershipTransferred",
      "type": "event"
    },
    {
      "anonymous": false,
      "inputs": [
        {
          "indexed": true,
          "internalType": "address",
          "name": "operator",
          "type": "address"
        },
        {
          "indexed": true,
          "internalType": "address",
          "name": "from",
          "type": "address"
        },
        {
          "indexed": true,
          "internalType": "address",
          "name": "to",
          "type": "address"
        },
        {
          "indexed": false,
          "internalType": "uint256[]",
          "name": "ids",
          "type": "uint256[]"
        },
        {
          "indexed": false,
          "internalType": "uint256[]",
          "name": "values",
          "type": "uint256[]"
        }
      ],
      "name": "TransferBatch",
      "type": "event"
    },
    {
      "anonymous": false,
      "inputs": [
        {
          "indexed": true,
          "internalType": "address",
          "name": "operator",
          "type": "address"
        },
        {
          "indexed": true,
          "internalType": "address",
          "name": "from",
          "type": "address"
        },
        {
          "indexed": true,
          "internalType": "address",
          "name": "to",
          "type": "address"
        },
        {
          "indexed": false,
          "internalType": "uint256",
          "name": "id",
          "type": "uint256"
        },
        {
          "indexed": false,
          "internalType": "uint256",
          "name": "value",
          "type": "uint256"
        }
      ],
      "name": "TransferSingle",
      "type": "event"
    },
    {
      "anonymous": false,
      "inputs": [
        {
          "indexed": false,
          "internalType": "string",
          "name": "value",
          "type": "string"
        },
        {
          "indexed": true,
          "internalType": "uint256",
          "name": "id",
          "type": "uint256"
        }
      ],
      "name": "URI",
      "type": "event"
    },
    {
      "inputs": [
        {
          "internalType": "address",
          "name": "account",
          "type": "address"
        },
        {
          "internalType": "uint256",
          "name": "id",
          "type": "uint256"
        }
      ],
      "name": "balanceOf",
      "outputs": [
        {
          "internalType": "uint256",
          "name": "",
          "type": "uint256"
        }
      ],
      "stateMutability": "view",
      "type": "function"
    },
    {
      "inputs": [
        {
          "internalType": "address[]",
          "name": "accounts",
          "type": "address[]"
        },
        {
          "internalType": "uint256[]",
          "name": "ids",
          "type": "uint256[]"
        }
      ],
      "name": "balanceOfBatch",
      "outputs": [
        {
          "internalType": "uint256[]",
          "name": "",
          "type": "uint256[]"
        }
      ],
      "stateMutability": "view",
      "type": "function"
    },
    {
      "inputs": [
        {
          "internalType": "uint256",
          "name": "_id",
          "type": "uint256"
        },
        {
          "internalType": "uint256",
          "name": "_amount",
          "type": "uint256"
        }
      ],
      "name": "burn",
      "outputs": [],
      "stateMutability": "nonpayable",
      "type": "function"
    },
    {
      "inputs": [
        {
          "internalType": "uint256[]",
          "name": "_ids",
          "type": "uint256[]"
        },
        {
          "internalType": "uint256[]",
          "name": "_amounts",
          "type": "uint256[]"
        }
      ],
      "name": "burnBatch",
      "outputs": [],
      "stateMutability": "nonpayable",
      "type": "function"
    },
    {
      "inputs": [
        {
          "internalType": "address",
          "name": "_from",
          "type": "address"
        },
        {
          "internalType": "uint256[]",
          "name": "_burnIds",
          "type": "uint256[]"
        },
        {
          "internalType": "uint256[]",
          "name": "_burnAmounts",
          "type": "uint256[]"
        },
        {
          "internalType": "uint256[]",
          "name": "_mintIds",
          "type": "uint256[]"
        },
        {
          "internalType": "uint256[]",
          "name": "_mintAmounts",
          "type": "uint256[]"
        }
      ],
      "name": "burnForMint",
      "outputs": [],
      "stateMutability": "nonpayable",
      "type": "function"
    },
    {
      "inputs": [],
      "name": "cost",
      "outputs": [
        {
          "internalType": "uint256",
          "name": "",
          "type": "uint256"
        }
      ],
      "stateMutability": "view",
      "type": "function"
    },
    {
      "inputs": [
        {
          "internalType": "address",
          "name": "account",
          "type": "address"
        },
        {
          "internalType": "address",
          "name": "operator",
          "type": "address"
        }
      ],
      "name": "isApprovedForAll",
      "outputs": [
        {
          "internalType": "bool",
          "name": "",
          "type": "bool"
        }
      ],
      "stateMutability": "view",
      "type": "function"
    },
    {
      "inputs": [
        {
          "internalType": "address",
          "name": "_to",
          "type": "address"
        },
        {
          "internalType": "uint256",
          "name": "_id",
          "type": "uint256"
        },
        {
          "internalType": "uint256",
          "name": "_amount",
          "type": "uint256"
        }
      ],
      "name": "mint",
      "outputs": [],
      "stateMutability": "payable",
      "type": "function"
    },
    {
      "inputs": [
        {
          "internalType": "address",
          "name": "_to",
          "type": "address"
        },
        {
          "internalType": "uint256[]",
          "name": "_ids",
          "type": "uint256[]"
        },
        {
          "internalType": "uint256[]",
          "name": "_amounts",
          "type": "uint256[]"
        }
      ],
      "name": "mintBatch",
      "outputs": [],
      "stateMutability": "nonpayable",
      "type": "function"
    },
    {
      "inputs": [],
      "name": "name",
      "outputs": [
        {
          "internalType": "string",
          "name": "",
          "type": "string"
        }
      ],
      "stateMutability": "view",
      "type": "function"
    },
    {
      "inputs": [],
      "name": "owner",
      "outputs": [
        {
          "internalType": "address",
          "name": "",
          "type": "address"
        }
      ],
      "stateMutability": "view",
      "type": "function"
    },
    {
      "inputs": [],
      "name": "renounceOwnership",
      "outputs": [],
      "stateMutability": "nonpayable",
      "type": "function"
    },
    {
      "inputs": [
        {
          "internalType": "address",
          "name": "from",
          "type": "address"
        },
        {
          "internalType": "address",
          "name": "to",
          "type": "address"
        },
        {
          "internalType": "uint256[]",
          "name": "ids",
          "type": "uint256[]"
        },
        {
          "internalType": "uint256[]",
          "name": "amounts",
          "type": "uint256[]"
        },
        {
          "internalType": "bytes",
          "name": "data",
          "type": "bytes"
        }
      ],
      "name": "safeBatchTransferFrom",
      "outputs": [],
      "stateMutability": "nonpayable",
      "type": "function"
    },
    {
      "inputs": [
        {
          "internalType": "address",
          "name": "from",
          "type": "address"
        },
        {
          "internalType": "address",
          "name": "to",
          "type": "address"
        },
        {
          "internalType": "uint256",
          "name": "id",
          "type": "uint256"
        },
        {
          "internalType": "uint256",
          "name": "amount",
          "type": "uint256"
        },
        {
          "internalType": "bytes",
          "name": "data",
          "type": "bytes"
        }
      ],
      "name": "safeTransferFrom",
      "outputs": [],
      "stateMutability": "nonpayable",
      "type": "function"
    },
    {
      "inputs": [
        {
          "internalType": "address",
          "name": "operator",
          "type": "address"
        },
        {
          "internalType": "bool",
          "name": "approved",
          "type": "bool"
        }
      ],
      "name": "setApprovalForAll",
      "outputs": [],
      "stateMutability": "nonpayable",
      "type": "function"
    },
    {
      "inputs": [
        {
          "internalType": "uint256",
          "name": "_id",
          "type": "uint256"
        },
        {
          "internalType": "string",
          "name": "_uri",
          "type": "string"
        }
      ],
      "name": "setURI",
      "outputs": [],
      "stateMutability": "nonpayable",
      "type": "function"
    },
    {
      "inputs": [
        {
          "internalType": "bytes4",
          "name": "interfaceId",
          "type": "bytes4"
        }
      ],
      "name": "supportsInterface",
      "outputs": [
        {
          "internalType": "bool",
          "name": "",
          "type": "bool"
        }
      ],
      "stateMutability": "view",
      "type": "function"
    },
    {
      "inputs": [],
      "name": "symbol",
      "outputs": [
        {
          "internalType": "string",
          "name": "",
          "type": "string"
        }
      ],
      "stateMutability": "view",
      "type": "function"
    },
    {
      "inputs": [
        {
          "internalType": "uint256",
          "name": "",
          "type": "uint256"
        }
      ],
      "name": "tokenURI",
      "outputs": [
        {
          "internalType": "string",
          "name": "",
          "type": "string"
        }
      ],
      "stateMutability": "view",
      "type": "function"
    },
    {
      "inputs": [
        {
          "internalType": "address",
          "name": "newOwner",
          "type": "address"
        }
      ],
      "name": "transferOwnership",
      "outputs": [],
      "stateMutability": "nonpayable",
      "type": "function"
    },
    {
      "inputs": [
        {
          "internalType": "uint256",
          "name": "_id",
          "type": "uint256"
        }
      ],
      "name": "uri",
      "outputs": [
        {
          "internalType": "string",
          "name": "",
          "type": "string"
        }
      ],
      "stateMutability": "view",
      "type": "function"
    },
    {
      "inputs": [],
      "name": "withdraw",
      "outputs": [],
      "stateMutability": "nonpayable",
      "type": "function"
    }
  ],
  "bytecode": "0x6080604052662386f26fc100006006553480156200001c57600080fd5b50604051806020016040528060008152506200003e816200010160201b60201c565b506200005f620000536200011d60201b60201c565b6200012560201b60201c565b6040518060400160405280601581526020017f41726d656e69616e5072656d6965724c6561677565000000000000000000000081525060049080519060200190620000ac929190620001eb565b506040518060400160405280601581526020017f41726d656e69616e5072656d6965724c6561677565000000000000000000000081525060059080519060200190620000fa929190620001eb565b5062000300565b806002908051906020019062000119929190620001eb565b5050565b600033905090565b6000600360009054906101000a900473ffffffffffffffffffffffffffffffffffffffff16905081600360006101000a81548173ffffffffffffffffffffffffffffffffffffffff021916908373ffffffffffffffffffffffffffffffffffffffff1602179055508173ffffffffffffffffffffffffffffffffffffffff168173ffffffffffffffffffffffffffffffffffffffff167f8be0079c531659141344cd1fd0a4f28419497f9722a3daafe3b4186f6b6457e060405160405180910390a35050565b828054620001f9906200029b565b90600052602060002090601f0160209004810192826200021d576000855562000269565b82601f106200023857805160ff191683800117855562000269565b8280016001018555821562000269579182015b82811115620002685782518255916020019190600101906200024b565b5b5090506200027891906200027c565b5090565b5b80821115620002975760008160009055506001016200027d565b5090565b60006002820490506001821680620002b457607f821691505b60208210811415620002cb57620002ca620002d1565b5b50919050565b7f4e487b7100000000000000000000000000000000000000000000000000000000600052602260045260246000fd5b61447680620003106000396000f3fe6080604052600436106101345760003560e01c806383ca4b6f116100ab578063b390c0ab1161006f578063b390c0ab146103f0578063c87b56dd14610419578063d81d0a1514610456578063e985e9c51461047f578063f242432a146104bc578063f2fde38b146104e557610134565b806383ca4b6f1461031f578063862440e2146103485780638da5cb5b1461037157806395d89b411461039c578063a22cb465146103c757610134565b8063156e29f6116100fd578063156e29f6146102465780632eb2c2d6146102625780633ccfd60b1461028b5780634e1273f4146102a2578063510f4104146102df578063715018a61461030857610134565b8062fdd58e1461013957806301ffc9a71461017657806306fdde03146101b35780630e89341c146101de57806313faede61461021b575b600080fd5b34801561014557600080fd5b50610160600480360381019061015b9190612fac565b61050e565b60405161016d91906139e2565b60405180910390f35b34801561018257600080fd5b5061019d6004803603810190610198919061310f565b6105d7565b6040516101aa9190613745565b60405180910390f35b3480156101bf57600080fd5b506101c86106b9565b6040516101d59190613760565b60405180910390f35b3480156101ea57600080fd5b5061020560048036038101906102009190613161565b610747565b6040516102129190613760565b60405180910390f35b34801561022757600080fd5b506102306107ec565b60405161023d91906139e2565b60405180910390f35b610260600480360381019061025b9190612fe8565b6107f2565b005b34801561026e57600080fd5b5061028960048036038101906102849190612ccc565b6108ac565b005b34801561029757600080fd5b506102a061094d565b005b3480156102ae57600080fd5b506102c960048036038101906102c49190613037565b610a46565b6040516102d691906136ec565b60405180910390f35b3480156102eb57600080fd5b5061030660048036038101906103019190612e99565b610bf7565b005b34801561031457600080fd5b5061031d610ca0565b005b34801561032b57600080fd5b50610346600480360381019061034191906130a3565b610d28565b005b34801561035457600080fd5b5061036f600480360381019061036a919061318a565b610d37565b005b34801561037d57600080fd5b50610386610e17565b604051610393919061360f565b60405180910390f35b3480156103a857600080fd5b506103b1610e41565b6040516103be9190613760565b60405180910390f35b3480156103d357600080fd5b506103ee60048036038101906103e99190612f70565b610ecf565b005b3480156103fc57600080fd5b50610417600480360381019061041291906131de565b610ee5565b005b34801561042557600080fd5b50610440600480360381019061043b9190613161565b610ef4565b60405161044d9190613760565b60405180910390f35b34801561046257600080fd5b5061047d60048036038101906104789190612e1a565b610f94565b005b34801561048b57600080fd5b506104a660048036038101906104a19190612c90565b611030565b6040516104b39190613745565b60405180910390f35b3480156104c857600080fd5b506104e360048036038101906104de9190612d8b565b6110c4565b005b3480156104f157600080fd5b5061050c60048036038101906105079190612c67565b611165565b005b60008073ffffffffffffffffffffffffffffffffffffffff168373ffffffffffffffffffffffffffffffffffffffff16141561057f576040517f08c379a0000000000000000000000000000000000000000000000000000000008152600401610576906137c2565b60405180910390fd5b60008083815260200190815260200160002060008473ffffffffffffffffffffffffffffffffffffffff1673ffffffffffffffffffffffffffffffffffffffff16815260200190815260200160002054905092915050565b60007fd9b67a26000000000000000000000000000000000000000000000000000000007bffffffffffffffffffffffffffffffffffffffffffffffffffffffff1916827bffffffffffffffffffffffffffffffffffffffffffffffffffffffff191614806106a257507f0e89341c000000000000000000000000000000000000000000000000000000007bffffffffffffffffffffffffffffffffffffffffffffffffffffffff1916827bffffffffffffffffffffffffffffffffffffffffffffffffffffffff1916145b806106b257506106b18261125d565b5b9050919050565b600480546106c690613c8d565b80601f01602080910402602001604051908101604052809291908181526020018280546106f290613c8d565b801561073f5780601f106107145761010080835404028352916020019161073f565b820191906000526020600020905b81548152906001019060200180831161072257829003601f168201915b505050505081565b606060076000838152602001908152602001600020805461076790613c8d565b80601f016020809104026020016040519081016040528092919081815260200182805461079390613c8d565b80156107e05780601f106107b5576101008083540402835291602001916107e0565b820191906000526020600020905b8154815290600101906020018083116107c357829003601f168201915b50505050509050919050565b60065481565b6006543414610836576040517f08c379a000000000000000000000000000000000000000000000000000000000815260040161082d90613842565b60405180910390fd5b60008210806108455750600982115b1561088c57600061088b576040517f08c379a000000000000000000000000000000000000000000000000000000000815260040161088290613902565b60405180910390fd5b5b6108a7838383604051806020016040528060008152506112c7565b505050565b6108b4611478565b73ffffffffffffffffffffffffffffffffffffffff168573ffffffffffffffffffffffffffffffffffffffff1614806108fa57506108f9856108f4611478565b611030565b5b610939576040517f08c379a0000000000000000000000000000000000000000000000000000000008152600401610930906138a2565b60405180910390fd5b6109468585858585611480565b5050505050565b60004711610990576040517f08c379a000000000000000000000000000000000000000000000000000000000815260040161098790613982565b60405180910390fd5b600061099a610e17565b73ffffffffffffffffffffffffffffffffffffffff16476040516109bd906135fa565b60006040518083038185875af1925050503d80600081146109fa576040519150601f19603f3d011682016040523d82523d6000602084013e6109ff565b606091505b5050905080610a43576040517f08c379a0000000000000000000000000000000000000000000000000000000008152600401610a3a90613802565b60405180910390fd5b50565b60608151835114610a8c576040517f08c379a0000000000000000000000000000000000000000000000000000000008152600401610a8390613962565b60405180910390fd5b6000835167ffffffffffffffff811115610acf577f4e487b7100000000000000000000000000000000000000000000000000000000600052604160045260246000fd5b604051908082528060200260200182016040528015610afd5781602001602082028036833780820191505090505b50905060005b8451811015610bec57610b96858281518110610b48577f4e487b7100000000000000000000000000000000000000000000000000000000600052603260045260246000fd5b6020026020010151858381518110610b89577f4e487b7100000000000000000000000000000000000000000000000000000000600052603260045260246000fd5b602002602001015161050e565b828281518110610bcf577f4e487b7100000000000000000000000000000000000000000000000000000000600052603260045260246000fd5b60200260200101818152505080610be590613cf0565b9050610b03565b508091505092915050565b610bff611478565b73ffffffffffffffffffffffffffffffffffffffff16610c1d610e17565b73ffffffffffffffffffffffffffffffffffffffff1614610c73576040517f08c379a0000000000000000000000000000000000000000000000000000000008152600401610c6a90613922565b60405180910390fd5b610c7e8585856117ee565b610c9985838360405180602001604052806000815250611b09565b5050505050565b610ca8611478565b73ffffffffffffffffffffffffffffffffffffffff16610cc6610e17565b73ffffffffffffffffffffffffffffffffffffffff1614610d1c576040517f08c379a0000000000000000000000000000000000000000000000000000000008152600401610d1390613922565b60405180910390fd5b610d266000611d82565b565b610d333383836117ee565b5050565b610d3f611478565b73ffffffffffffffffffffffffffffffffffffffff16610d5d610e17565b73ffffffffffffffffffffffffffffffffffffffff1614610db3576040517f08c379a0000000000000000000000000000000000000000000000000000000008152600401610daa90613922565b60405180910390fd5b80600760008481526020019081526020016000209080519060200190610dda92919061295f565b50817f6bb7ff708619ba0610cba295a58592e0451dee2622938c8755667688daf3529b82604051610e0b9190613760565b60405180910390a25050565b6000600360009054906101000a900473ffffffffffffffffffffffffffffffffffffffff16905090565b60058054610e4e90613c8d565b80601f0160208091040260200160405190810160405280929190818152602001828054610e7a90613c8d565b8015610ec75780601f10610e9c57610100808354040283529160200191610ec7565b820191906000526020600020905b815481529060010190602001808311610eaa57829003601f168201915b505050505081565b610ee1610eda611478565b8383611e48565b5050565b610ef0338383611fb5565b5050565b60076020528060005260406000206000915090508054610f1390613c8d565b80601f0160208091040260200160405190810160405280929190818152602001828054610f3f90613c8d565b8015610f8c5780601f10610f6157610100808354040283529160200191610f8c565b820191906000526020600020905b815481529060010190602001808311610f6f57829003601f168201915b505050505081565b610f9c611478565b73ffffffffffffffffffffffffffffffffffffffff16610fba610e17565b73ffffffffffffffffffffffffffffffffffffffff1614611010576040517f08c379a000000000000000000000000000000000000000000000000000000000815260040161100790613922565b60405180910390fd5b61102b83838360405180602001604052806000815250611b09565b505050565b6000600160008473ffffffffffffffffffffffffffffffffffffffff1673ffffffffffffffffffffffffffffffffffffffff16815260200190815260200160002060008373ffffffffffffffffffffffffffffffffffffffff1673ffffffffffffffffffffffffffffffffffffffff16815260200190815260200160002060009054906101000a900460ff16905092915050565b6110cc611478565b73ffffffffffffffffffffffffffffffffffffffff168573ffffffffffffffffffffffffffffffffffffffff16148061111257506111118561110c611478565b611030565b5b611151576040517f08c379a000000000000000000000000000000000000000000000000000000000815260040161114890613862565b60405180910390fd5b61115e85858585856121fc565b5050505050565b61116d611478565b73ffffffffffffffffffffffffffffffffffffffff1661118b610e17565b73ffffffffffffffffffffffffffffffffffffffff16146111e1576040517f08c379a00000000000000000000000000000000000000000000000000000000081526004016111d890613922565b60405180910390fd5b600073ffffffffffffffffffffffffffffffffffffffff168173ffffffffffffffffffffffffffffffffffffffff161415611251576040517f08c379a0000000000000000000000000000000000000000000000000000000008152600401611248906137e2565b60405180910390fd5b61125a81611d82565b50565b60007f01ffc9a7000000000000000000000000000000000000000000000000000000007bffffffffffffffffffffffffffffffffffffffffffffffffffffffff1916827bffffffffffffffffffffffffffffffffffffffffffffffffffffffff1916149050919050565b600073ffffffffffffffffffffffffffffffffffffffff168473ffffffffffffffffffffffffffffffffffffffff161415611337576040517f08c379a000000000000000000000000000000000000000000000000000000000815260040161132e906139c2565b60405180910390fd5b6000611341611478565b9050600061134e85612498565b9050600061135b85612498565b905061136c8360008985858961255e565b8460008088815260200190815260200160002060008973ffffffffffffffffffffffffffffffffffffffff1673ffffffffffffffffffffffffffffffffffffffff16815260200190815260200160002060008282546113cb9190613b81565b925050819055508673ffffffffffffffffffffffffffffffffffffffff16600073ffffffffffffffffffffffffffffffffffffffff168473ffffffffffffffffffffffffffffffffffffffff167fc3d58168c5ae7397731d063d5bbf3d657854427343f4c083240f7aacaa2d0f6289896040516114499291906139fd565b60405180910390a461146083600089858589612566565b61146f8360008989898961256e565b50505050505050565b600033905090565b81518351146114c4576040517f08c379a00000000000000000000000000000000000000000000000000000000081526004016114bb906139a2565b60405180910390fd5b600073ffffffffffffffffffffffffffffffffffffffff168473ffffffffffffffffffffffffffffffffffffffff161415611534576040517f08c379a000000000000000000000000000000000000000000000000000000000815260040161152b90613882565b60405180910390fd5b600061153e611478565b905061154e81878787878761255e565b60005b845181101561174b576000858281518110611595577f4e487b7100000000000000000000000000000000000000000000000000000000600052603260045260246000fd5b6020026020010151905060008583815181106115da577f4e487b7100000000000000000000000000000000000000000000000000000000600052603260045260246000fd5b60200260200101519050600080600084815260200190815260200160002060008b73ffffffffffffffffffffffffffffffffffffffff1673ffffffffffffffffffffffffffffffffffffffff1681526020019081526020016000205490508181101561167b576040517f08c379a0000000000000000000000000000000000000000000000000000000008152600401611672906138e2565b60405180910390fd5b81810360008085815260200190815260200160002060008c73ffffffffffffffffffffffffffffffffffffffff1673ffffffffffffffffffffffffffffffffffffffff168152602001908152602001600020819055508160008085815260200190815260200160002060008b73ffffffffffffffffffffffffffffffffffffffff1673ffffffffffffffffffffffffffffffffffffffff16815260200190815260200160002060008282546117309190613b81565b925050819055505050508061174490613cf0565b9050611551565b508473ffffffffffffffffffffffffffffffffffffffff168673ffffffffffffffffffffffffffffffffffffffff168273ffffffffffffffffffffffffffffffffffffffff167f4a39dc06d4c0dbc64b70af90fd698a233a518aa5d07e595d983b8c0526c8f7fb87876040516117c292919061370e565b60405180910390a46117d8818787878787612566565b6117e6818787878787612755565b505050505050565b600073ffffffffffffffffffffffffffffffffffffffff168373ffffffffffffffffffffffffffffffffffffffff16141561185e576040517f08c379a0000000000000000000000000000000000000000000000000000000008152600401611855906138c2565b60405180910390fd5b80518251146118a2576040517f08c379a0000000000000000000000000000000000000000000000000000000008152600401611899906139a2565b60405180910390fd5b60006118ac611478565b90506118cc8185600086866040518060200160405280600081525061255e565b60005b8351811015611a65576000848281518110611913577f4e487b7100000000000000000000000000000000000000000000000000000000600052603260045260246000fd5b602002602001015190506000848381518110611958577f4e487b7100000000000000000000000000000000000000000000000000000000600052603260045260246000fd5b60200260200101519050600080600084815260200190815260200160002060008973ffffffffffffffffffffffffffffffffffffffff1673ffffffffffffffffffffffffffffffffffffffff168152602001908152602001600020549050818110156119f9576040517f08c379a00000000000000000000000000000000000000000000000000000000081526004016119f090613822565b60405180910390fd5b81810360008085815260200190815260200160002060008a73ffffffffffffffffffffffffffffffffffffffff1673ffffffffffffffffffffffffffffffffffffffff168152602001908152602001600020819055505050508080611a5d90613cf0565b9150506118cf565b50600073ffffffffffffffffffffffffffffffffffffffff168473ffffffffffffffffffffffffffffffffffffffff168273ffffffffffffffffffffffffffffffffffffffff167f4a39dc06d4c0dbc64b70af90fd698a233a518aa5d07e595d983b8c0526c8f7fb8686604051611add92919061370e565b60405180910390a4611b0381856000868660405180602001604052806000815250612566565b50505050565b600073ffffffffffffffffffffffffffffffffffffffff168473ffffffffffffffffffffffffffffffffffffffff161415611b79576040517f08c379a0000000000000000000000000000000000000000000000000000000008152600401611b70906139c2565b60405180910390fd5b8151835114611bbd576040517f08c379a0000000000000000000000000000000000000000000000000000000008152600401611bb4906139a2565b60405180910390fd5b6000611bc7611478565b9050611bd88160008787878761255e565b60005b8451811015611cdd57838181518110611c1d577f4e487b7100000000000000000000000000000000000000000000000000000000600052603260045260246000fd5b6020026020010151600080878481518110611c61577f4e487b7100000000000000000000000000000000000000000000000000000000600052603260045260246000fd5b6020026020010151815260200190815260200160002060008873ffffffffffffffffffffffffffffffffffffffff1673ffffffffffffffffffffffffffffffffffffffff1681526020019081526020016000206000828254611cc39190613b81565b925050819055508080611cd590613cf0565b915050611bdb565b508473ffffffffffffffffffffffffffffffffffffffff16600073ffffffffffffffffffffffffffffffffffffffff168273ffffffffffffffffffffffffffffffffffffffff167f4a39dc06d4c0dbc64b70af90fd698a233a518aa5d07e595d983b8c0526c8f7fb8787604051611d5592919061370e565b60405180910390a4611d6c81600087878787612566565b611d7b81600087878787612755565b5050505050565b6000600360009054906101000a900473ffffffffffffffffffffffffffffffffffffffff16905081600360006101000a81548173ffffffffffffffffffffffffffffffffffffffff021916908373ffffffffffffffffffffffffffffffffffffffff1602179055508173ffffffffffffffffffffffffffffffffffffffff168173ffffffffffffffffffffffffffffffffffffffff167f8be0079c531659141344cd1fd0a4f28419497f9722a3daafe3b4186f6b6457e060405160405180910390a35050565b8173ffffffffffffffffffffffffffffffffffffffff168373ffffffffffffffffffffffffffffffffffffffff161415611eb7576040517f08c379a0000000000000000000000000000000000000000000000000000000008152600401611eae90613942565b60405180910390fd5b80600160008573ffffffffffffffffffffffffffffffffffffffff1673ffffffffffffffffffffffffffffffffffffffff16815260200190815260200160002060008473ffffffffffffffffffffffffffffffffffffffff1673ffffffffffffffffffffffffffffffffffffffff16815260200190815260200160002060006101000a81548160ff0219169083151502179055508173ffffffffffffffffffffffffffffffffffffffff168373ffffffffffffffffffffffffffffffffffffffff167f17307eab39ab6107e8899845ad3d59bd9653f200f220920489ca2b5937696c3183604051611fa89190613745565b60405180910390a3505050565b600073ffffffffffffffffffffffffffffffffffffffff168373ffffffffffffffffffffffffffffffffffffffff161415612025576040517f08c379a000000000000000000000000000000000000000000000000000000000815260040161201c906138c2565b60405180910390fd5b600061202f611478565b9050600061203c84612498565b9050600061204984612498565b90506120698387600085856040518060200160405280600081525061255e565b600080600087815260200190815260200160002060008873ffffffffffffffffffffffffffffffffffffffff1673ffffffffffffffffffffffffffffffffffffffff16815260200190815260200160002054905084811015612100576040517f08c379a00000000000000000000000000000000000000000000000000000000081526004016120f790613822565b60405180910390fd5b84810360008088815260200190815260200160002060008973ffffffffffffffffffffffffffffffffffffffff1673ffffffffffffffffffffffffffffffffffffffff16815260200190815260200160002081905550600073ffffffffffffffffffffffffffffffffffffffff168773ffffffffffffffffffffffffffffffffffffffff168573ffffffffffffffffffffffffffffffffffffffff167fc3d58168c5ae7397731d063d5bbf3d657854427343f4c083240f7aacaa2d0f6289896040516121cd9291906139fd565b60405180910390a46121f384886000868660405180602001604052806000815250612566565b50505050505050565b600073ffffffffffffffffffffffffffffffffffffffff168473ffffffffffffffffffffffffffffffffffffffff16141561226c576040517f08c379a000000000000000000000000000000000000000000000000000000000815260040161226390613882565b60405180910390fd5b6000612276611478565b9050600061228385612498565b9050600061229085612498565b90506122a083898985858961255e565b600080600088815260200190815260200160002060008a73ffffffffffffffffffffffffffffffffffffffff1673ffffffffffffffffffffffffffffffffffffffff16815260200190815260200160002054905085811015612337576040517f08c379a000000000000000000000000000000000000000000000000000000000815260040161232e906138e2565b60405180910390fd5b85810360008089815260200190815260200160002060008b73ffffffffffffffffffffffffffffffffffffffff1673ffffffffffffffffffffffffffffffffffffffff168152602001908152602001600020819055508560008089815260200190815260200160002060008a73ffffffffffffffffffffffffffffffffffffffff1673ffffffffffffffffffffffffffffffffffffffff16815260200190815260200160002060008282546123ec9190613b81565b925050819055508773ffffffffffffffffffffffffffffffffffffffff168973ffffffffffffffffffffffffffffffffffffffff168573ffffffffffffffffffffffffffffffffffffffff167fc3d58168c5ae7397731d063d5bbf3d657854427343f4c083240f7aacaa2d0f628a8a6040516124699291906139fd565b60405180910390a461247f848a8a86868a612566565b61248d848a8a8a8a8a61256e565b505050505050505050565b60606000600167ffffffffffffffff8111156124dd577f4e487b7100000000000000000000000000000000000000000000000000000000600052604160045260246000fd5b60405190808252806020026020018201604052801561250b5781602001602082028036833780820191505090505b5090508281600081518110612549577f4e487b7100000000000000000000000000000000000000000000000000000000600052603260045260246000fd5b60200260200101818152505080915050919050565b505050505050565b505050505050565b61258d8473ffffffffffffffffffffffffffffffffffffffff1661293c565b1561274d578373ffffffffffffffffffffffffffffffffffffffff1663f23a6e6187878686866040518663ffffffff1660e01b81526004016125d3959493929190613692565b602060405180830381600087803b1580156125ed57600080fd5b505af192505050801561261e57506040513d601f19601f8201168201806040525081019061261b9190613138565b60015b6126c45761262a613dc6565b806308c379a01415612687575061263f61434e565b8061264a5750612689565b806040517f08c379a000000000000000000000000000000000000000000000000000000000815260040161267e9190613760565b60405180910390fd5b505b6040517f08c379a00000000000000000000000000000000000000000000000000000000081526004016126bb90613782565b60405180910390fd5b63f23a6e6160e01b7bffffffffffffffffffffffffffffffffffffffffffffffffffffffff1916817bffffffffffffffffffffffffffffffffffffffffffffffffffffffff19161461274b576040517f08c379a0000000000000000000000000000000000000000000000000000000008152600401612742906137a2565b60405180910390fd5b505b505050505050565b6127748473ffffffffffffffffffffffffffffffffffffffff1661293c565b15612934578373ffffffffffffffffffffffffffffffffffffffff1663bc197c8187878686866040518663ffffffff1660e01b81526004016127ba95949392919061362a565b602060405180830381600087803b1580156127d457600080fd5b505af192505050801561280557506040513d601f19601f820116820180604052508101906128029190613138565b60015b6128ab57612811613dc6565b806308c379a0141561286e575061282661434e565b806128315750612870565b806040517f08c379a00000000000000000000000000000000000000000000000000000000081526004016128659190613760565b60405180910390fd5b505b6040517f08c379a00000000000000000000000000000000000000000000000000000000081526004016128a290613782565b60405180910390fd5b63bc197c8160e01b7bffffffffffffffffffffffffffffffffffffffffffffffffffffffff1916817bffffffffffffffffffffffffffffffffffffffffffffffffffffffff191614612932576040517f08c379a0000000000000000000000000000000000000000000000000000000008152600401612929906137a2565b60405180910390fd5b505b505050505050565b6000808273ffffffffffffffffffffffffffffffffffffffff163b119050919050565b82805461296b90613c8d565b90600052602060002090601f01602090048101928261298d57600085556129d4565b82601f106129a657805160ff19168380011785556129d4565b828001600101855582156129d4579182015b828111156129d35782518255916020019190600101906129b8565b5b5090506129e191906129e5565b5090565b5b808211156129fe5760008160009055506001016129e6565b5090565b6000612a15612a1084613a4b565b613a26565b90508083825260208201905082856020860282011115612a3457600080fd5b60005b85811015612a645781612a4a8882612b56565b845260208401935060208301925050600181019050612a37565b5050509392505050565b6000612a81612a7c84613a77565b613a26565b90508083825260208201905082856020860282011115612aa057600080fd5b60005b85811015612ad05781612ab68882612c52565b845260208401935060208301925050600181019050612aa3565b5050509392505050565b6000612aed612ae884613aa3565b613a26565b905082815260208101848484011115612b0557600080fd5b612b10848285613c4b565b509392505050565b6000612b2b612b2684613ad4565b613a26565b905082815260208101848484011115612b4357600080fd5b612b4e848285613c4b565b509392505050565b600081359050612b65816143e4565b92915050565b600082601f830112612b7c57600080fd5b8135612b8c848260208601612a02565b91505092915050565b600082601f830112612ba657600080fd5b8135612bb6848260208601612a6e565b91505092915050565b600081359050612bce816143fb565b92915050565b600081359050612be381614412565b92915050565b600081519050612bf881614412565b92915050565b600082601f830112612c0f57600080fd5b8135612c1f848260208601612ada565b91505092915050565b600082601f830112612c3957600080fd5b8135612c49848260208601612b18565b91505092915050565b600081359050612c6181614429565b92915050565b600060208284031215612c7957600080fd5b6000612c8784828501612b56565b91505092915050565b60008060408385031215612ca357600080fd5b6000612cb185828601612b56565b9250506020612cc285828601612b56565b9150509250929050565b600080600080600060a08688031215612ce457600080fd5b6000612cf288828901612b56565b9550506020612d0388828901612b56565b945050604086013567ffffffffffffffff811115612d2057600080fd5b612d2c88828901612b95565b935050606086013567ffffffffffffffff811115612d4957600080fd5b612d5588828901612b95565b925050608086013567ffffffffffffffff811115612d7257600080fd5b612d7e88828901612bfe565b9150509295509295909350565b600080600080600060a08688031215612da357600080fd5b6000612db188828901612b56565b9550506020612dc288828901612b56565b9450506040612dd388828901612c52565b9350506060612de488828901612c52565b925050608086013567ffffffffffffffff811115612e0157600080fd5b612e0d88828901612bfe565b9150509295509295909350565b600080600060608486031215612e2f57600080fd5b6000612e3d86828701612b56565b935050602084013567ffffffffffffffff811115612e5a57600080fd5b612e6686828701612b95565b925050604084013567ffffffffffffffff811115612e8357600080fd5b612e8f86828701612b95565b9150509250925092565b600080600080600060a08688031215612eb157600080fd5b6000612ebf88828901612b56565b955050602086013567ffffffffffffffff811115612edc57600080fd5b612ee888828901612b95565b945050604086013567ffffffffffffffff811115612f0557600080fd5b612f1188828901612b95565b935050606086013567ffffffffffffffff811115612f2e57600080fd5b612f3a88828901612b95565b925050608086013567ffffffffffffffff811115612f5757600080fd5b612f6388828901612b95565b9150509295509295909350565b60008060408385031215612f8357600080fd5b6000612f9185828601612b56565b9250506020612fa285828601612bbf565b9150509250929050565b60008060408385031215612fbf57600080fd5b6000612fcd85828601612b56565b9250506020612fde85828601612c52565b9150509250929050565b600080600060608486031215612ffd57600080fd5b600061300b86828701612b56565b935050602061301c86828701612c52565b925050604061302d86828701612c52565b9150509250925092565b6000806040838503121561304a57600080fd5b600083013567ffffffffffffffff81111561306457600080fd5b61307085828601612b6b565b925050602083013567ffffffffffffffff81111561308d57600080fd5b61309985828601612b95565b9150509250929050565b600080604083850312156130b657600080fd5b600083013567ffffffffffffffff8111156130d057600080fd5b6130dc85828601612b95565b925050602083013567ffffffffffffffff8111156130f957600080fd5b61310585828601612b95565b9150509250929050565b60006020828403121561312157600080fd5b600061312f84828501612bd4565b91505092915050565b60006020828403121561314a57600080fd5b600061315884828501612be9565b91505092915050565b60006020828403121561317357600080fd5b600061318184828501612c52565b91505092915050565b6000806040838503121561319d57600080fd5b60006131ab85828601612c52565b925050602083013567ffffffffffffffff8111156131c857600080fd5b6131d485828601612c28565b9150509250929050565b600080604083850312156131f157600080fd5b60006131ff85828601612c52565b925050602061321085828601612c52565b9150509250929050565b600061322683836135dc565b60208301905092915050565b61323b81613bd7565b82525050565b600061324c82613b15565b6132568185613b43565b935061326183613b05565b8060005b83811015613292578151613279888261321a565b975061328483613b36565b925050600181019050613265565b5085935050505092915050565b6132a881613be9565b82525050565b60006132b982613b20565b6132c38185613b54565b93506132d3818560208601613c5a565b6132dc81613de8565b840191505092915050565b60006132f282613b2b565b6132fc8185613b70565b935061330c818560208601613c5a565b61331581613de8565b840191505092915050565b600061332d603483613b70565b915061333882613e06565b604082019050919050565b6000613350602883613b70565b915061335b82613e55565b604082019050919050565b6000613373602b83613b70565b915061337e82613ea4565b604082019050919050565b6000613396602683613b70565b91506133a182613ef3565b604082019050919050565b60006133b9601583613b70565b91506133c482613f42565b602082019050919050565b60006133dc602483613b70565b91506133e782613f6b565b604082019050919050565b60006133ff601b83613b70565b915061340a82613fba565b602082019050919050565b6000613422602983613b70565b915061342d82613fe3565b604082019050919050565b6000613445602583613b70565b915061345082614032565b604082019050919050565b6000613468603283613b70565b915061347382614081565b604082019050919050565b600061348b602383613b70565b9150613496826140d0565b604082019050919050565b60006134ae602a83613b70565b91506134b98261411f565b604082019050919050565b60006134d1601483613b70565b91506134dc8261416e565b602082019050919050565b60006134f4602083613b70565b91506134ff82614197565b602082019050919050565b6000613517600083613b65565b9150613522826141c0565b600082019050919050565b600061353a602983613b70565b9150613545826141c3565b604082019050919050565b600061355d602983613b70565b915061356882614212565b604082019050919050565b6000613580602383613b70565b915061358b82614261565b604082019050919050565b60006135a3602883613b70565b91506135ae826142b0565b604082019050919050565b60006135c6602183613b70565b91506135d1826142ff565b604082019050919050565b6135e581613c41565b82525050565b6135f481613c41565b82525050565b60006136058261350a565b9150819050919050565b60006020820190506136246000830184613232565b92915050565b600060a08201905061363f6000830188613232565b61364c6020830187613232565b818103604083015261365e8186613241565b905081810360608301526136728185613241565b9050818103608083015261368681846132ae565b90509695505050505050565b600060a0820190506136a76000830188613232565b6136b46020830187613232565b6136c160408301866135eb565b6136ce60608301856135eb565b81810360808301526136e081846132ae565b90509695505050505050565b600060208201905081810360008301526137068184613241565b905092915050565b600060408201905081810360008301526137288185613241565b9050818103602083015261373c8184613241565b90509392505050565b600060208201905061375a600083018461329f565b92915050565b6000602082019050818103600083015261377a81846132e7565b905092915050565b6000602082019050818103600083015261379b81613320565b9050919050565b600060208201905081810360008301526137bb81613343565b9050919050565b600060208201905081810360008301526137db81613366565b9050919050565b600060208201905081810360008301526137fb81613389565b9050919050565b6000602082019050818103600083015261381b816133ac565b9050919050565b6000602082019050818103600083015261383b816133cf565b9050919050565b6000602082019050818103600083015261385b816133f2565b9050919050565b6000602082019050818103600083015261387b81613415565b9050919050565b6000602082019050818103600083015261389b81613438565b9050919050565b600060208201905081810360008301526138bb8161345b565b9050919050565b600060208201905081810360008301526138db8161347e565b9050919050565b600060208201905081810360008301526138fb816134a1565b9050919050565b6000602082019050818103600083015261391b816134c4565b9050919050565b6000602082019050818103600083015261393b816134e7565b9050919050565b6000602082019050818103600083015261395b8161352d565b9050919050565b6000602082019050818103600083015261397b81613550565b9050919050565b6000602082019050818103600083015261399b81613573565b9050919050565b600060208201905081810360008301526139bb81613596565b9050919050565b600060208201905081810360008301526139db816135b9565b9050919050565b60006020820190506139f760008301846135eb565b92915050565b6000604082019050613a1260008301856135eb565b613a1f60208301846135eb565b9392505050565b6000613a30613a41565b9050613a3c8282613cbf565b919050565b6000604051905090565b600067ffffffffffffffff821115613a6657613a65613d97565b5b602082029050602081019050919050565b600067ffffffffffffffff821115613a9257613a91613d97565b5b602082029050602081019050919050565b600067ffffffffffffffff821115613abe57613abd613d97565b5b613ac782613de8565b9050602081019050919050565b600067ffffffffffffffff821115613aef57613aee613d97565b5b613af882613de8565b9050602081019050919050565b6000819050602082019050919050565b600081519050919050565b600081519050919050565b600081519050919050565b6000602082019050919050565b600082825260208201905092915050565b600082825260208201905092915050565b600081905092915050565b600082825260208201905092915050565b6000613b8c82613c41565b9150613b9783613c41565b9250827fffffffffffffffffffffffffffffffffffffffffffffffffffffffffffffffff03821115613bcc57613bcb613d39565b5b828201905092915050565b6000613be282613c21565b9050919050565b60008115159050919050565b60007fffffffff0000000000000000000000000000000000000000000000000000000082169050919050565b600073ffffffffffffffffffffffffffffffffffffffff82169050919050565b6000819050919050565b82818337600083830152505050565b60005b83811015613c78578082015181840152602081019050613c5d565b83811115613c87576000848401525b50505050565b60006002820490506001821680613ca557607f821691505b60208210811415613cb957613cb8613d68565b5b50919050565b613cc882613de8565b810181811067ffffffffffffffff82111715613ce757613ce6613d97565b5b80604052505050565b6000613cfb82613c41565b91507fffffffffffffffffffffffffffffffffffffffffffffffffffffffffffffffff821415613d2e57613d2d613d39565b5b600182019050919050565b7f4e487b7100000000000000000000000000000000000000000000000000000000600052601160045260246000fd5b7f4e487b7100000000000000000000000000000000000000000000000000000000600052602260045260246000fd5b7f4e487b7100000000000000000000000000000000000000000000000000000000600052604160045260246000fd5b600060033d1115613de55760046000803e613de2600051613df9565b90505b90565b6000601f19601f8301169050919050565b60008160e01c9050919050565b7f455243313135353a207472616e7366657220746f206e6f6e204552433131353560008201527f526563656976657220696d706c656d656e746572000000000000000000000000602082015250565b7f455243313135353a204552433131353552656365697665722072656a6563746560008201527f6420746f6b656e73000000000000000000000000000000000000000000000000602082015250565b7f455243313135353a2062616c616e636520717565727920666f7220746865207a60008201527f65726f2061646472657373000000000000000000000000000000000000000000602082015250565b7f4f776e61626c653a206e6577206f776e657220697320746865207a65726f206160008201527f6464726573730000000000000000000000000000000000000000000000000000602082015250565b7f4661696c6564207769746864726177206d6f6e65790000000000000000000000600082015250565b7f455243313135353a206275726e20616d6f756e7420657863656564732062616c60008201527f616e636500000000000000000000000000000000000000000000000000000000602082015250565b7f616d6f756e742073686f756c6420626520657175616c20636f73740000000000600082015250565b7f455243313135353a2063616c6c6572206973206e6f74206f776e6572206e6f7260008201527f20617070726f7665640000000000000000000000000000000000000000000000602082015250565b7f455243313135353a207472616e7366657220746f20746865207a65726f20616460008201527f6472657373000000000000000000000000000000000000000000000000000000602082015250565b7f455243313135353a207472616e736665722063616c6c6572206973206e6f742060008201527f6f776e6572206e6f7220617070726f7665640000000000000000000000000000602082015250565b7f455243313135353a206275726e2066726f6d20746865207a65726f206164647260008201527f6573730000000000000000000000000000000000000000000000000000000000602082015250565b7f455243313135353a20696e73756666696369656e742062616c616e636520666f60008201527f72207472616e7366657200000000000000000000000000000000000000000000602082015250565b7f57726f6e67207465616d20706172616d65746572000000000000000000000000600082015250565b7f4f776e61626c653a2063616c6c6572206973206e6f7420746865206f776e6572600082015250565b50565b7f455243313135353a2073657474696e6720617070726f76616c2073746174757360008201527f20666f722073656c660000000000000000000000000000000000000000000000602082015250565b7f455243313135353a206163636f756e747320616e6420696473206c656e67746860008201527f206d69736d617463680000000000000000000000000000000000000000000000602082015250565b7f616464726573732062616c616e63652073686f756c642062652067726561746560008201527f7220300000000000000000000000000000000000000000000000000000000000602082015250565b7f455243313135353a2069647320616e6420616d6f756e7473206c656e6774682060008201527f6d69736d61746368000000000000000000000000000000000000000000000000602082015250565b7f455243313135353a206d696e7420746f20746865207a65726f2061646472657360008201527f7300000000000000000000000000000000000000000000000000000000000000602082015250565b600060443d101561435e576143e1565b614366613a41565b60043d036004823e80513d602482011167ffffffffffffffff8211171561438e5750506143e1565b808201805167ffffffffffffffff8111156143ac57505050506143e1565b80602083010160043d0385018111156143c95750505050506143e1565b6143d882602001850186613cbf565b82955050505050505b90565b6143ed81613bd7565b81146143f857600080fd5b50565b61440481613be9565b811461440f57600080fd5b50565b61441b81613bf5565b811461442657600080fd5b50565b61443281613c41565b811461443d57600080fd5b5056fea26469706673582212206176c65ebed4c40026980bbe5795368a084cd51d41086ad0d52d62bec245826b64736f6c63430008040033",
  "linkReferences": {},
  "deployedLinkReferences": {}
}