{
  "_format": "hh-sol-artifact-1",
  "contractName": "ArmenianLeagueTickets",
  "sourceName": "contracts/ArmenianLeagueTickets.sol",
  "abi": [
    {
      "inputs": [
        {
          "internalType": "contract MyUSDToken",
          "name": "_mysUSDToken",
          "type": "address"
        }
      ],
      "stateMutability": "nonpayable",
      "type": "constructor"
    },
    {
      "anonymous": false,
      "inputs": [
        {
          "indexed": true,
          "internalType": "address",
          "name": "account",
          "type": "address"
        },
        {
          "indexed": true,
          "internalType": "address",
          "name": "operator",
          "type": "address"
        },
        {
          "indexed": false,
          "internalType": "bool",
          "name": "approved",
          "type": "bool"
        }
      ],
      "name": "ApprovalForAll",
      "type": "event"
    },
    {
      "anonymous": false,
      "inputs": [
        {
          "indexed": true,
          "internalType": "address",
          "name": "previousOwner",
          "type": "address"
        },
        {
          "indexed": true,
          "internalType": "address",
          "name": "newOwner",
          "type": "address"
        }
      ],
      "name": "OwnershipTransferred",
      "type": "event"
    },
    {
      "anonymous": false,
      "inputs": [
        {
          "indexed": false,
          "internalType": "address",
          "name": "caller",
          "type": "address"
        },
        {
          "indexed": false,
          "internalType": "uint256",
          "name": "amount",
          "type": "uint256"
        },
        {
          "indexed": false,
          "internalType": "string",
          "name": "message",
          "type": "string"
        }
      ],
      "name": "ReceivedPurchase",
      "type": "event"
    },
    {
      "anonymous": false,
      "inputs": [
        {
          "indexed": true,
          "internalType": "address",
          "name": "operator",
          "type": "address"
        },
        {
          "indexed": true,
          "internalType": "address",
          "name": "from",
          "type": "address"
        },
        {
          "indexed": true,
          "internalType": "address",
          "name": "to",
          "type": "address"
        },
        {
          "indexed": false,
          "internalType": "uint256[]",
          "name": "ids",
          "type": "uint256[]"
        },
        {
          "indexed": false,
          "internalType": "uint256[]",
          "name": "values",
          "type": "uint256[]"
        }
      ],
      "name": "TransferBatch",
      "type": "event"
    },
    {
      "anonymous": false,
      "inputs": [
        {
          "indexed": true,
          "internalType": "address",
          "name": "operator",
          "type": "address"
        },
        {
          "indexed": true,
          "internalType": "address",
          "name": "from",
          "type": "address"
        },
        {
          "indexed": true,
          "internalType": "address",
          "name": "to",
          "type": "address"
        },
        {
          "indexed": false,
          "internalType": "uint256",
          "name": "id",
          "type": "uint256"
        },
        {
          "indexed": false,
          "internalType": "uint256",
          "name": "value",
          "type": "uint256"
        }
      ],
      "name": "TransferSingle",
      "type": "event"
    },
    {
      "anonymous": false,
      "inputs": [
        {
          "indexed": false,
          "internalType": "string",
          "name": "value",
          "type": "string"
        },
        {
          "indexed": true,
          "internalType": "uint256",
          "name": "id",
          "type": "uint256"
        }
      ],
      "name": "URI",
      "type": "event"
    },
    {
      "inputs": [],
      "name": "MAX_TICKET_NUMBER",
      "outputs": [
        {
          "internalType": "uint256",
          "name": "",
          "type": "uint256"
        }
      ],
      "stateMutability": "view",
      "type": "function"
    },
    {
      "inputs": [],
      "name": "USDCCost",
      "outputs": [
        {
          "internalType": "uint256",
          "name": "",
          "type": "uint256"
        }
      ],
      "stateMutability": "view",
      "type": "function"
    },
    {
      "inputs": [
        {
          "internalType": "address",
          "name": "account",
          "type": "address"
        },
        {
          "internalType": "uint256",
          "name": "id",
          "type": "uint256"
        }
      ],
      "name": "balanceOf",
      "outputs": [
        {
          "internalType": "uint256",
          "name": "",
          "type": "uint256"
        }
      ],
      "stateMutability": "view",
      "type": "function"
    },
    {
      "inputs": [
        {
          "internalType": "address[]",
          "name": "accounts",
          "type": "address[]"
        },
        {
          "internalType": "uint256[]",
          "name": "ids",
          "type": "uint256[]"
        }
      ],
      "name": "balanceOfBatch",
      "outputs": [
        {
          "internalType": "uint256[]",
          "name": "",
          "type": "uint256[]"
        }
      ],
      "stateMutability": "view",
      "type": "function"
    },
    {
      "inputs": [],
      "name": "balanceOfTickets",
      "outputs": [
        {
          "internalType": "uint256[]",
          "name": "",
          "type": "uint256[]"
        }
      ],
      "stateMutability": "view",
      "type": "function"
    },
    {
      "inputs": [
        {
          "internalType": "uint64",
          "name": "_id",
          "type": "uint64"
        }
      ],
      "name": "balanceTickets",
      "outputs": [
        {
          "internalType": "uint256",
          "name": "",
          "type": "uint256"
        }
      ],
      "stateMutability": "view",
      "type": "function"
    },
    {
      "inputs": [
        {
          "internalType": "uint256",
          "name": "_id",
          "type": "uint256"
        },
        {
          "internalType": "uint256",
          "name": "_amount",
          "type": "uint256"
        }
      ],
      "name": "burn",
      "outputs": [],
      "stateMutability": "nonpayable",
      "type": "function"
    },
    {
      "inputs": [
        {
          "internalType": "uint256[]",
          "name": "_ids",
          "type": "uint256[]"
        },
        {
          "internalType": "uint256[]",
          "name": "_amounts",
          "type": "uint256[]"
        }
      ],
      "name": "burnBatch",
      "outputs": [],
      "stateMutability": "nonpayable",
      "type": "function"
    },
    {
      "inputs": [
        {
          "internalType": "address",
          "name": "_from",
          "type": "address"
        },
        {
          "internalType": "uint256[]",
          "name": "_burnIds",
          "type": "uint256[]"
        },
        {
          "internalType": "uint256[]",
          "name": "_burnAmounts",
          "type": "uint256[]"
        },
        {
          "internalType": "uint256[]",
          "name": "_mintIds",
          "type": "uint256[]"
        },
        {
          "internalType": "uint256[]",
          "name": "_mintAmounts",
          "type": "uint256[]"
        }
      ],
      "name": "burnForMint",
      "outputs": [],
      "stateMutability": "nonpayable",
      "type": "function"
    },
    {
      "inputs": [],
      "name": "cost",
      "outputs": [
        {
          "internalType": "uint256",
          "name": "",
          "type": "uint256"
        }
      ],
      "stateMutability": "view",
      "type": "function"
    },
    {
      "inputs": [
        {
          "internalType": "address",
          "name": "account",
          "type": "address"
        },
        {
          "internalType": "address",
          "name": "operator",
          "type": "address"
        }
      ],
      "name": "isApprovedForAll",
      "outputs": [
        {
          "internalType": "bool",
          "name": "",
          "type": "bool"
        }
      ],
      "stateMutability": "view",
      "type": "function"
    },
    {
      "inputs": [
        {
          "internalType": "address",
          "name": "_to",
          "type": "address"
        },
        {
          "internalType": "uint64",
          "name": "_id",
          "type": "uint64"
        },
        {
          "internalType": "uint256",
          "name": "_amount",
          "type": "uint256"
        }
      ],
      "name": "mint",
      "outputs": [],
      "stateMutability": "payable",
      "type": "function"
    },
    {
      "inputs": [
        {
          "internalType": "address",
          "name": "_to",
          "type": "address"
        },
        {
          "internalType": "uint256[]",
          "name": "_ids",
          "type": "uint256[]"
        },
        {
          "internalType": "uint256[]",
          "name": "_amounts",
          "type": "uint256[]"
        }
      ],
      "name": "mintBatch",
      "outputs": [],
      "stateMutability": "nonpayable",
      "type": "function"
    },
    {
      "inputs": [
        {
          "internalType": "address",
          "name": "_to",
          "type": "address"
        },
        {
          "internalType": "uint64",
          "name": "_id",
          "type": "uint64"
        },
        {
          "internalType": "uint256",
          "name": "_amount",
          "type": "uint256"
        }
      ],
      "name": "mintByUSDC",
      "outputs": [],
      "stateMutability": "payable",
      "type": "function"
    },
    {
      "inputs": [],
      "name": "mysUSDToken",
      "outputs": [
        {
          "internalType": "contract MyUSDToken",
          "name": "",
          "type": "address"
        }
      ],
      "stateMutability": "view",
      "type": "function"
    },
    {
      "inputs": [],
      "name": "name",
      "outputs": [
        {
          "internalType": "string",
          "name": "",
          "type": "string"
        }
      ],
      "stateMutability": "view",
      "type": "function"
    },
    {
      "inputs": [],
      "name": "owner",
      "outputs": [
        {
          "internalType": "address",
          "name": "",
          "type": "address"
        }
      ],
      "stateMutability": "view",
      "type": "function"
    },
    {
      "inputs": [],
      "name": "rate",
      "outputs": [
        {
          "internalType": "uint256",
          "name": "",
          "type": "uint256"
        }
      ],
      "stateMutability": "view",
      "type": "function"
    },
    {
      "inputs": [],
      "name": "renounceOwnership",
      "outputs": [],
      "stateMutability": "nonpayable",
      "type": "function"
    },
    {
      "inputs": [
        {
          "internalType": "address",
          "name": "from",
          "type": "address"
        },
        {
          "internalType": "address",
          "name": "to",
          "type": "address"
        },
        {
          "internalType": "uint256[]",
          "name": "ids",
          "type": "uint256[]"
        },
        {
          "internalType": "uint256[]",
          "name": "amounts",
          "type": "uint256[]"
        },
        {
          "internalType": "bytes",
          "name": "data",
          "type": "bytes"
        }
      ],
      "name": "safeBatchTransferFrom",
      "outputs": [],
      "stateMutability": "nonpayable",
      "type": "function"
    },
    {
      "inputs": [
        {
          "internalType": "address",
          "name": "from",
          "type": "address"
        },
        {
          "internalType": "address",
          "name": "to",
          "type": "address"
        },
        {
          "internalType": "uint256",
          "name": "id",
          "type": "uint256"
        },
        {
          "internalType": "uint256",
          "name": "amount",
          "type": "uint256"
        },
        {
          "internalType": "bytes",
          "name": "data",
          "type": "bytes"
        }
      ],
      "name": "safeTransferFrom",
      "outputs": [],
      "stateMutability": "nonpayable",
      "type": "function"
    },
    {
      "inputs": [
        {
          "internalType": "address",
          "name": "operator",
          "type": "address"
        },
        {
          "internalType": "bool",
          "name": "approved",
          "type": "bool"
        }
      ],
      "name": "setApprovalForAll",
      "outputs": [],
      "stateMutability": "nonpayable",
      "type": "function"
    },
    {
      "inputs": [
        {
          "internalType": "uint256",
          "name": "_id",
          "type": "uint256"
        },
        {
          "internalType": "string",
          "name": "_uri",
          "type": "string"
        }
      ],
      "name": "setURI",
      "outputs": [],
      "stateMutability": "nonpayable",
      "type": "function"
    },
    {
      "inputs": [
        {
          "internalType": "bytes4",
          "name": "interfaceId",
          "type": "bytes4"
        }
      ],
      "name": "supportsInterface",
      "outputs": [
        {
          "internalType": "bool",
          "name": "",
          "type": "bool"
        }
      ],
      "stateMutability": "view",
      "type": "function"
    },
    {
      "inputs": [],
      "name": "symbol",
      "outputs": [
        {
          "internalType": "string",
          "name": "",
          "type": "string"
        }
      ],
      "stateMutability": "view",
      "type": "function"
    },
    {
      "inputs": [
        {
          "internalType": "uint256",
          "name": "",
          "type": "uint256"
        }
      ],
      "name": "tokenURI",
      "outputs": [
        {
          "internalType": "string",
          "name": "",
          "type": "string"
        }
      ],
      "stateMutability": "view",
      "type": "function"
    },
    {
      "inputs": [
        {
          "internalType": "address",
          "name": "newOwner",
          "type": "address"
        }
      ],
      "name": "transferOwnership",
      "outputs": [],
      "stateMutability": "nonpayable",
      "type": "function"
    },
    {
      "inputs": [
        {
          "internalType": "uint256",
          "name": "_id",
          "type": "uint256"
        }
      ],
      "name": "uri",
      "outputs": [
        {
          "internalType": "string",
          "name": "",
          "type": "string"
        }
      ],
      "stateMutability": "view",
      "type": "function"
    },
    {
      "inputs": [],
      "name": "withdraw",
      "outputs": [],
      "stateMutability": "nonpayable",
      "type": "function"
    },
    {
      "stateMutability": "payable",
      "type": "receive"
    }
  ],
  "bytecode": "0x6080604052662386f26fc10000600655601e6007556103e860085560646009553480156200002c57600080fd5b50604051620051af380380620051af833981810160405281019062000052919062000390565b6040518060200160405280600081525062000073816200017860201b60201c565b5062000094620000886200019460201b60201c565b6200019c60201b60201c565b6040518060400160405280601581526020017f41726d656e69616e5072656d6965724c6561677565000000000000000000000081525060049080519060200190620000e192919062000262565b506040518060400160405280601581526020017f41726d656e69616e5072656d6965724c65616775650000000000000000000000815250600590805190602001906200012f92919062000262565b5080600a60006101000a81548173ffffffffffffffffffffffffffffffffffffffff021916908373ffffffffffffffffffffffffffffffffffffffff1602179055505062000426565b80600290805190602001906200019092919062000262565b5050565b600033905090565b6000600360009054906101000a900473ffffffffffffffffffffffffffffffffffffffff16905081600360006101000a81548173ffffffffffffffffffffffffffffffffffffffff021916908373ffffffffffffffffffffffffffffffffffffffff1602179055508173ffffffffffffffffffffffffffffffffffffffff168173ffffffffffffffffffffffffffffffffffffffff167f8be0079c531659141344cd1fd0a4f28419497f9722a3daafe3b4186f6b6457e060405160405180910390a35050565b8280546200027090620003f1565b90600052602060002090601f016020900481019282620002945760008555620002e0565b82601f10620002af57805160ff1916838001178555620002e0565b82800160010185558215620002e0579182015b82811115620002df578251825591602001919060010190620002c2565b5b509050620002ef9190620002f3565b5090565b5b808211156200030e576000816000905550600101620002f4565b5090565b600080fd5b600073ffffffffffffffffffffffffffffffffffffffff82169050919050565b6000620003448262000317565b9050919050565b6000620003588262000337565b9050919050565b6200036a816200034b565b81146200037657600080fd5b50565b6000815190506200038a816200035f565b92915050565b600060208284031215620003a957620003a862000312565b5b6000620003b98482850162000379565b91505092915050565b7f4e487b7100000000000000000000000000000000000000000000000000000000600052602260045260246000fd5b600060028204905060018216806200040a57607f821691505b60208210810362000420576200041f620003c2565b5b50919050565b614d7980620004366000396000f3fe6080604052600436106101c55760003560e01c806383ca4b6f116100f7578063b390c0ab11610095578063e985e9c511610064578063e985e9c514610664578063eeafa0d4146106a1578063f242432a146106bd578063f2fde38b146106e657610205565b8063b390c0ab146105aa578063c87b56dd146105d3578063d81d0a1514610610578063e49e811e1461063957610205565b80638da5cb5b116100d15780638da5cb5b146104ee57806395d89b4114610519578063a22cb46514610544578063a621a6c81461056d57610205565b806383ca4b6f1461047157806384e515c11461049a578063862440e2146104c557610205565b80632eb2c2d611610164578063510f41041161013e578063510f4104146103ea578063715018a6146104135780637250e45d1461042a5780637fe7adfc1461045557610205565b80632eb2c2d61461036d5780633ccfd60b146103965780634e1273f4146103ad57610205565b80630e89341c116101a05780630e89341c146102af57806313faede6146102ec578063259933e0146103175780632c4e722e1461034257610205565b8062fdd58e1461020a57806301ffc9a71461024757806306fdde031461028457610205565b36610205577fbab550016f248b256360e2b8bf13ff315949165ff7412cb5619aab3f22bc0f8f33346040516101fb929190612f5a565b60405180910390a1005b600080fd5b34801561021657600080fd5b50610231600480360381019061022c9190613002565b61070f565b60405161023e9190613042565b60405180910390f35b34801561025357600080fd5b5061026e600480360381019061026991906130b5565b6107d7565b60405161027b91906130fd565b60405180910390f35b34801561029057600080fd5b506102996108b9565b6040516102a691906131a0565b60405180910390f35b3480156102bb57600080fd5b506102d660048036038101906102d191906131c2565b610947565b6040516102e391906131a0565b60405180910390f35b3480156102f857600080fd5b506103016109ec565b60405161030e9190613042565b60405180910390f35b34801561032357600080fd5b5061032c6109f2565b60405161033991906132ad565b60405180910390f35b34801561034e57600080fd5b50610357610aa3565b6040516103649190613042565b60405180910390f35b34801561037957600080fd5b50610394600480360381019061038f91906134cc565b610aa9565b005b3480156103a257600080fd5b506103ab610b4a565b005b3480156103b957600080fd5b506103d460048036038101906103cf919061365e565b610c43565b6040516103e191906132ad565b60405180910390f35b3480156103f657600080fd5b50610411600480360381019061040c91906136d6565b610d5c565b005b34801561041f57600080fd5b50610428610e05565b005b34801561043657600080fd5b5061043f610e8d565b60405161044c9190613042565b60405180910390f35b61046f600480360381019061046a9190613801565b610e93565b005b34801561047d57600080fd5b5061049860048036038101906104939190613854565b611038565b005b3480156104a657600080fd5b506104af611047565b6040516104bc919061392b565b60405180910390f35b3480156104d157600080fd5b506104ec60048036038101906104e791906139e7565b61106d565b005b3480156104fa57600080fd5b506105036110d1565b6040516105109190613a43565b60405180910390f35b34801561052557600080fd5b5061052e6110fb565b60405161053b91906131a0565b60405180910390f35b34801561055057600080fd5b5061056b60048036038101906105669190613a8a565b611189565b005b34801561057957600080fd5b50610594600480360381019061058f9190613aca565b61119f565b6040516105a19190613042565b60405180910390f35b3480156105b657600080fd5b506105d160048036038101906105cc9190613af7565b6111d0565b005b3480156105df57600080fd5b506105fa60048036038101906105f591906131c2565b6111df565b60405161060791906131a0565b60405180910390f35b34801561061c57600080fd5b5061063760048036038101906106329190613b37565b61127f565b005b34801561064557600080fd5b5061064e61131b565b60405161065b9190613042565b60405180910390f35b34801561067057600080fd5b5061068b60048036038101906106869190613bc2565b611321565b60405161069891906130fd565b60405180910390f35b6106bb60048036038101906106b69190613801565b6113b5565b005b3480156106c957600080fd5b506106e460048036038101906106df9190613c02565b6115f8565b005b3480156106f257600080fd5b5061070d60048036038101906107089190613c99565b611699565b005b60008073ffffffffffffffffffffffffffffffffffffffff168373ffffffffffffffffffffffffffffffffffffffff160361077f576040517f08c379a000000000000000000000000000000000000000000000000000000000815260040161077690613d38565b60405180910390fd5b60008083815260200190815260200160002060008473ffffffffffffffffffffffffffffffffffffffff1673ffffffffffffffffffffffffffffffffffffffff16815260200190815260200160002054905092915050565b60007fd9b67a26000000000000000000000000000000000000000000000000000000007bffffffffffffffffffffffffffffffffffffffffffffffffffffffff1916827bffffffffffffffffffffffffffffffffffffffffffffffffffffffff191614806108a257507f0e89341c000000000000000000000000000000000000000000000000000000007bffffffffffffffffffffffffffffffffffffffffffffffffffffffff1916827bffffffffffffffffffffffffffffffffffffffffffffffffffffffff1916145b806108b257506108b182611790565b5b9050919050565b600480546108c690613d87565b80601f01602080910402602001604051908101604052809291908181526020018280546108f290613d87565b801561093f5780601f106109145761010080835404028352916020019161093f565b820191906000526020600020905b81548152906001019060200180831161092257829003601f168201915b505050505081565b6060600c6000838152602001908152602001600020805461096790613d87565b80601f016020809104026020016040519081016040528092919081815260200182805461099390613d87565b80156109e05780601f106109b5576101008083540402835291602001916109e0565b820191906000526020600020905b8154815290600101906020018083116109c357829003601f168201915b50505050509050919050565b60065481565b60606000600a67ffffffffffffffff811115610a1157610a106132d4565b5b604051908082528060200260200182016040528015610a3f5781602001602082028036833780820191505090505b50905060005b60098167ffffffffffffffff161015610a9b57610a618161119f565b828267ffffffffffffffff1681518110610a7e57610a7d613db8565b5b60200260200101818152505080610a9490613e16565b9050610a45565b508091505090565b60095481565b610ab16117fa565b73ffffffffffffffffffffffffffffffffffffffff168573ffffffffffffffffffffffffffffffffffffffff161480610af75750610af685610af16117fa565b611321565b5b610b36576040517f08c379a0000000000000000000000000000000000000000000000000000000008152600401610b2d90613eb8565b60405180910390fd5b610b438585858585611802565b5050505050565b60004711610b8d576040517f08c379a0000000000000000000000000000000000000000000000000000000008152600401610b8490613f4a565b60405180910390fd5b6000610b976110d1565b73ffffffffffffffffffffffffffffffffffffffff1647604051610bba90613f9b565b60006040518083038185875af1925050503d8060008114610bf7576040519150601f19603f3d011682016040523d82523d6000602084013e610bfc565b606091505b5050905080610c40576040517f08c379a0000000000000000000000000000000000000000000000000000000008152600401610c3790613ffc565b60405180910390fd5b50565b60608151835114610c89576040517f08c379a0000000000000000000000000000000000000000000000000000000008152600401610c809061408e565b60405180910390fd5b6000835167ffffffffffffffff811115610ca657610ca56132d4565b5b604051908082528060200260200182016040528015610cd45781602001602082028036833780820191505090505b50905060005b8451811015610d5157610d21858281518110610cf957610cf8613db8565b5b6020026020010151858381518110610d1457610d13613db8565b5b602002602001015161070f565b828281518110610d3457610d33613db8565b5b60200260200101818152505080610d4a906140ae565b9050610cda565b508091505092915050565b610d646117fa565b73ffffffffffffffffffffffffffffffffffffffff16610d826110d1565b73ffffffffffffffffffffffffffffffffffffffff1614610dd8576040517f08c379a0000000000000000000000000000000000000000000000000000000008152600401610dcf90614142565b60405180910390fd5b610de3858585611b23565b610dfe85838360405180602001604052806000815250611df1565b5050505050565b610e0d6117fa565b73ffffffffffffffffffffffffffffffffffffffff16610e2b6110d1565b73ffffffffffffffffffffffffffffffffffffffff1614610e81576040517f08c379a0000000000000000000000000000000000000000000000000000000008152600401610e7890614142565b60405180910390fd5b610e8b600061201d565b565b60085481565b808060065434610ea39190614191565b14610ee3576040517f08c379a0000000000000000000000000000000000000000000000000000000008152600401610eda9061420e565b60405180910390fd5b828260008267ffffffffffffffff161080610f08575060098267ffffffffffffffff16115b15610f4f576000610f4e576040517f08c379a0000000000000000000000000000000000000000000000000000000008152600401610f459061427a565b60405180910390fd5b5b60085481600b60008567ffffffffffffffff1667ffffffffffffffff16815260200190815260200160002054610f85919061429a565b1115610fcd576000610fcc576040517f08c379a0000000000000000000000000000000000000000000000000000000008152600401610fc390614362565b60405180910390fd5b5b610ff2868667ffffffffffffffff1686604051806020016040528060008152506120e3565b83600b60008767ffffffffffffffff1667ffffffffffffffff1681526020019081526020016000206000828254611029919061429a565b92505081905550505050505050565b611043338383611b23565b5050565b600a60009054906101000a900473ffffffffffffffffffffffffffffffffffffffff1681565b80600c60008481526020019081526020016000209080519060200190611094929190612e00565b50817f6bb7ff708619ba0610cba295a58592e0451dee2622938c8755667688daf3529b826040516110c591906131a0565b60405180910390a25050565b6000600360009054906101000a900473ffffffffffffffffffffffffffffffffffffffff16905090565b6005805461110890613d87565b80601f016020809104026020016040519081016040528092919081815260200182805461113490613d87565b80156111815780601f1061115657610100808354040283529160200191611181565b820191906000526020600020905b81548152906001019060200180831161116457829003601f168201915b505050505081565b61119b6111946117fa565b8383612293565b5050565b6000600b60008367ffffffffffffffff1667ffffffffffffffff168152602001908152602001600020549050919050565b6111db3383836123ff565b5050565b600c60205280600052604060002060009150905080546111fe90613d87565b80601f016020809104026020016040519081016040528092919081815260200182805461122a90613d87565b80156112775780601f1061124c57610100808354040283529160200191611277565b820191906000526020600020905b81548152906001019060200180831161125a57829003601f168201915b505050505081565b6112876117fa565b73ffffffffffffffffffffffffffffffffffffffff166112a56110d1565b73ffffffffffffffffffffffffffffffffffffffff16146112fb576040517f08c379a00000000000000000000000000000000000000000000000000000000081526004016112f290614142565b60405180910390fd5b61131683838360405180602001604052806000815250611df1565b505050565b60075481565b6000600160008473ffffffffffffffffffffffffffffffffffffffff1673ffffffffffffffffffffffffffffffffffffffff16815260200190815260200160002060008373ffffffffffffffffffffffffffffffffffffffff1673ffffffffffffffffffffffffffffffffffffffff16815260200190815260200160002060009054906101000a900460ff16905092915050565b818160008267ffffffffffffffff1610806113da575060098267ffffffffffffffff16115b15611421576000611420576040517f08c379a00000000000000000000000000000000000000000000000000000000081526004016114179061427a565b60405180910390fd5b5b60085481600b60008567ffffffffffffffff1667ffffffffffffffff16815260200190815260200160002054611457919061429a565b111561149f57600061149e576040517f08c379a000000000000000000000000000000000000000000000000000000000815260040161149590614362565b60405180910390fd5b5b6114de6040518060400160405280601b81526020017f53656e646572206164647265737320697320257320746f6b656e73000000000081525030612645565b600a60009054906101000a900473ffffffffffffffffffffffffffffffffffffffff1673ffffffffffffffffffffffffffffffffffffffff166323b872dd33306007548761152c9190614382565b6040518463ffffffff1660e01b815260040161154a939291906143dc565b6020604051808303816000875af1158015611569573d6000803e3d6000fd5b505050506040513d601f19601f8201168201806040525081019061158d9190614428565b506115b3858567ffffffffffffffff1685604051806020016040528060008152506120e3565b82600b60008667ffffffffffffffff1667ffffffffffffffff16815260200190815260200160002060008282546115ea919061429a565b925050819055505050505050565b6116006117fa565b73ffffffffffffffffffffffffffffffffffffffff168573ffffffffffffffffffffffffffffffffffffffff1614806116465750611645856116406117fa565b611321565b5b611685576040517f08c379a000000000000000000000000000000000000000000000000000000000815260040161167c906144c7565b60405180910390fd5b61169285858585856126e1565b5050505050565b6116a16117fa565b73ffffffffffffffffffffffffffffffffffffffff166116bf6110d1565b73ffffffffffffffffffffffffffffffffffffffff1614611715576040517f08c379a000000000000000000000000000000000000000000000000000000000815260040161170c90614142565b60405180910390fd5b600073ffffffffffffffffffffffffffffffffffffffff168173ffffffffffffffffffffffffffffffffffffffff1603611784576040517f08c379a000000000000000000000000000000000000000000000000000000000815260040161177b90614559565b60405180910390fd5b61178d8161201d565b50565b60007f01ffc9a7000000000000000000000000000000000000000000000000000000007bffffffffffffffffffffffffffffffffffffffffffffffffffffffff1916827bffffffffffffffffffffffffffffffffffffffffffffffffffffffff1916149050919050565b600033905090565b8151835114611846576040517f08c379a000000000000000000000000000000000000000000000000000000000815260040161183d906145eb565b60405180910390fd5b600073ffffffffffffffffffffffffffffffffffffffff168473ffffffffffffffffffffffffffffffffffffffff16036118b5576040517f08c379a00000000000000000000000000000000000000000000000000000000081526004016118ac9061467d565b60405180910390fd5b60006118bf6117fa565b90506118cf81878787878761297c565b60005b8451811015611a805760008582815181106118f0576118ef613db8565b5b60200260200101519050600085838151811061190f5761190e613db8565b5b60200260200101519050600080600084815260200190815260200160002060008b73ffffffffffffffffffffffffffffffffffffffff1673ffffffffffffffffffffffffffffffffffffffff168152602001908152602001600020549050818110156119b0576040517f08c379a00000000000000000000000000000000000000000000000000000000081526004016119a79061470f565b60405180910390fd5b81810360008085815260200190815260200160002060008c73ffffffffffffffffffffffffffffffffffffffff1673ffffffffffffffffffffffffffffffffffffffff168152602001908152602001600020819055508160008085815260200190815260200160002060008b73ffffffffffffffffffffffffffffffffffffffff1673ffffffffffffffffffffffffffffffffffffffff1681526020019081526020016000206000828254611a65919061429a565b9250508190555050505080611a79906140ae565b90506118d2565b508473ffffffffffffffffffffffffffffffffffffffff168673ffffffffffffffffffffffffffffffffffffffff168273ffffffffffffffffffffffffffffffffffffffff167f4a39dc06d4c0dbc64b70af90fd698a233a518aa5d07e595d983b8c0526c8f7fb8787604051611af792919061472f565b60405180910390a4611b0d818787878787612984565b611b1b81878787878761298c565b505050505050565b600073ffffffffffffffffffffffffffffffffffffffff168373ffffffffffffffffffffffffffffffffffffffff1603611b92576040517f08c379a0000000000000000000000000000000000000000000000000000000008152600401611b89906147d8565b60405180910390fd5b8051825114611bd6576040517f08c379a0000000000000000000000000000000000000000000000000000000008152600401611bcd906145eb565b60405180910390fd5b6000611be06117fa565b9050611c008185600086866040518060200160405280600081525061297c565b60005b8351811015611d4d576000848281518110611c2157611c20613db8565b5b602002602001015190506000848381518110611c4057611c3f613db8565b5b60200260200101519050600080600084815260200190815260200160002060008973ffffffffffffffffffffffffffffffffffffffff1673ffffffffffffffffffffffffffffffffffffffff16815260200190815260200160002054905081811015611ce1576040517f08c379a0000000000000000000000000000000000000000000000000000000008152600401611cd89061486a565b60405180910390fd5b81810360008085815260200190815260200160002060008a73ffffffffffffffffffffffffffffffffffffffff1673ffffffffffffffffffffffffffffffffffffffff168152602001908152602001600020819055505050508080611d45906140ae565b915050611c03565b50600073ffffffffffffffffffffffffffffffffffffffff168473ffffffffffffffffffffffffffffffffffffffff168273ffffffffffffffffffffffffffffffffffffffff167f4a39dc06d4c0dbc64b70af90fd698a233a518aa5d07e595d983b8c0526c8f7fb8686604051611dc592919061472f565b60405180910390a4611deb81856000868660405180602001604052806000815250612984565b50505050565b600073ffffffffffffffffffffffffffffffffffffffff168473ffffffffffffffffffffffffffffffffffffffff1603611e60576040517f08c379a0000000000000000000000000000000000000000000000000000000008152600401611e57906148fc565b60405180910390fd5b8151835114611ea4576040517f08c379a0000000000000000000000000000000000000000000000000000000008152600401611e9b906145eb565b60405180910390fd5b6000611eae6117fa565b9050611ebf8160008787878761297c565b60005b8451811015611f7857838181518110611ede57611edd613db8565b5b6020026020010151600080878481518110611efc57611efb613db8565b5b6020026020010151815260200190815260200160002060008873ffffffffffffffffffffffffffffffffffffffff1673ffffffffffffffffffffffffffffffffffffffff1681526020019081526020016000206000828254611f5e919061429a565b925050819055508080611f70906140ae565b915050611ec2565b508473ffffffffffffffffffffffffffffffffffffffff16600073ffffffffffffffffffffffffffffffffffffffff168273ffffffffffffffffffffffffffffffffffffffff167f4a39dc06d4c0dbc64b70af90fd698a233a518aa5d07e595d983b8c0526c8f7fb8787604051611ff092919061472f565b60405180910390a461200781600087878787612984565b6120168160008787878761298c565b5050505050565b6000600360009054906101000a900473ffffffffffffffffffffffffffffffffffffffff16905081600360006101000a81548173ffffffffffffffffffffffffffffffffffffffff021916908373ffffffffffffffffffffffffffffffffffffffff1602179055508173ffffffffffffffffffffffffffffffffffffffff168173ffffffffffffffffffffffffffffffffffffffff167f8be0079c531659141344cd1fd0a4f28419497f9722a3daafe3b4186f6b6457e060405160405180910390a35050565b600073ffffffffffffffffffffffffffffffffffffffff168473ffffffffffffffffffffffffffffffffffffffff1603612152576040517f08c379a0000000000000000000000000000000000000000000000000000000008152600401612149906148fc565b60405180910390fd5b600061215c6117fa565b9050600061216985612b63565b9050600061217685612b63565b90506121878360008985858961297c565b8460008088815260200190815260200160002060008973ffffffffffffffffffffffffffffffffffffffff1673ffffffffffffffffffffffffffffffffffffffff16815260200190815260200160002060008282546121e6919061429a565b925050819055508673ffffffffffffffffffffffffffffffffffffffff16600073ffffffffffffffffffffffffffffffffffffffff168473ffffffffffffffffffffffffffffffffffffffff167fc3d58168c5ae7397731d063d5bbf3d657854427343f4c083240f7aacaa2d0f62898960405161226492919061491c565b60405180910390a461227b83600089858589612984565b61228a83600089898989612bdd565b50505050505050565b8173ffffffffffffffffffffffffffffffffffffffff168373ffffffffffffffffffffffffffffffffffffffff1603612301576040517f08c379a00000000000000000000000000000000000000000000000000000000081526004016122f8906149b7565b60405180910390fd5b80600160008573ffffffffffffffffffffffffffffffffffffffff1673ffffffffffffffffffffffffffffffffffffffff16815260200190815260200160002060008473ffffffffffffffffffffffffffffffffffffffff1673ffffffffffffffffffffffffffffffffffffffff16815260200190815260200160002060006101000a81548160ff0219169083151502179055508173ffffffffffffffffffffffffffffffffffffffff168373ffffffffffffffffffffffffffffffffffffffff167f17307eab39ab6107e8899845ad3d59bd9653f200f220920489ca2b5937696c31836040516123f291906130fd565b60405180910390a3505050565b600073ffffffffffffffffffffffffffffffffffffffff168373ffffffffffffffffffffffffffffffffffffffff160361246e576040517f08c379a0000000000000000000000000000000000000000000000000000000008152600401612465906147d8565b60405180910390fd5b60006124786117fa565b9050600061248584612b63565b9050600061249284612b63565b90506124b28387600085856040518060200160405280600081525061297c565b600080600087815260200190815260200160002060008873ffffffffffffffffffffffffffffffffffffffff1673ffffffffffffffffffffffffffffffffffffffff16815260200190815260200160002054905084811015612549576040517f08c379a00000000000000000000000000000000000000000000000000000000081526004016125409061486a565b60405180910390fd5b84810360008088815260200190815260200160002060008973ffffffffffffffffffffffffffffffffffffffff1673ffffffffffffffffffffffffffffffffffffffff16815260200190815260200160002081905550600073ffffffffffffffffffffffffffffffffffffffff168773ffffffffffffffffffffffffffffffffffffffff168573ffffffffffffffffffffffffffffffffffffffff167fc3d58168c5ae7397731d063d5bbf3d657854427343f4c083240f7aacaa2d0f62898960405161261692919061491c565b60405180910390a461263c84886000868660405180602001604052806000815250612984565b50505050505050565b6126dd828260405160240161265b9291906149d7565b6040516020818303038152906040527f319af333000000000000000000000000000000000000000000000000000000007bffffffffffffffffffffffffffffffffffffffffffffffffffffffff19166020820180517bffffffffffffffffffffffffffffffffffffffffffffffffffffffff8381831617835250505050612db4565b5050565b600073ffffffffffffffffffffffffffffffffffffffff168473ffffffffffffffffffffffffffffffffffffffff1603612750576040517f08c379a00000000000000000000000000000000000000000000000000000000081526004016127479061467d565b60405180910390fd5b600061275a6117fa565b9050600061276785612b63565b9050600061277485612b63565b905061278483898985858961297c565b600080600088815260200190815260200160002060008a73ffffffffffffffffffffffffffffffffffffffff1673ffffffffffffffffffffffffffffffffffffffff1681526020019081526020016000205490508581101561281b576040517f08c379a00000000000000000000000000000000000000000000000000000000081526004016128129061470f565b60405180910390fd5b85810360008089815260200190815260200160002060008b73ffffffffffffffffffffffffffffffffffffffff1673ffffffffffffffffffffffffffffffffffffffff168152602001908152602001600020819055508560008089815260200190815260200160002060008a73ffffffffffffffffffffffffffffffffffffffff1673ffffffffffffffffffffffffffffffffffffffff16815260200190815260200160002060008282546128d0919061429a565b925050819055508773ffffffffffffffffffffffffffffffffffffffff168973ffffffffffffffffffffffffffffffffffffffff168573ffffffffffffffffffffffffffffffffffffffff167fc3d58168c5ae7397731d063d5bbf3d657854427343f4c083240f7aacaa2d0f628a8a60405161294d92919061491c565b60405180910390a4612963848a8a86868a612984565b612971848a8a8a8a8a612bdd565b505050505050505050565b505050505050565b505050505050565b6129ab8473ffffffffffffffffffffffffffffffffffffffff16612ddd565b15612b5b578373ffffffffffffffffffffffffffffffffffffffff1663bc197c8187878686866040518663ffffffff1660e01b81526004016129f1959493929190614a5c565b6020604051808303816000875af1925050508015612a2d57506040513d601f19601f82011682018060405250810190612a2a9190614ad9565b60015b612ad257612a39614b13565b806308c379a003612a955750612a4d614b35565b80612a585750612a97565b806040517f08c379a0000000000000000000000000000000000000000000000000000000008152600401612a8c91906131a0565b60405180910390fd5b505b6040517f08c379a0000000000000000000000000000000000000000000000000000000008152600401612ac990614c37565b60405180910390fd5b63bc197c8160e01b7bffffffffffffffffffffffffffffffffffffffffffffffffffffffff1916817bffffffffffffffffffffffffffffffffffffffffffffffffffffffff191614612b59576040517f08c379a0000000000000000000000000000000000000000000000000000000008152600401612b5090614cc9565b60405180910390fd5b505b505050505050565b60606000600167ffffffffffffffff811115612b8257612b816132d4565b5b604051908082528060200260200182016040528015612bb05781602001602082028036833780820191505090505b5090508281600081518110612bc857612bc7613db8565b5b60200260200101818152505080915050919050565b612bfc8473ffffffffffffffffffffffffffffffffffffffff16612ddd565b15612dac578373ffffffffffffffffffffffffffffffffffffffff1663f23a6e6187878686866040518663ffffffff1660e01b8152600401612c42959493929190614ce9565b6020604051808303816000875af1925050508015612c7e57506040513d601f19601f82011682018060405250810190612c7b9190614ad9565b60015b612d2357612c8a614b13565b806308c379a003612ce65750612c9e614b35565b80612ca95750612ce8565b806040517f08c379a0000000000000000000000000000000000000000000000000000000008152600401612cdd91906131a0565b60405180910390fd5b505b6040517f08c379a0000000000000000000000000000000000000000000000000000000008152600401612d1a90614c37565b60405180910390fd5b63f23a6e6160e01b7bffffffffffffffffffffffffffffffffffffffffffffffffffffffff1916817bffffffffffffffffffffffffffffffffffffffffffffffffffffffff191614612daa576040517f08c379a0000000000000000000000000000000000000000000000000000000008152600401612da190614cc9565b60405180910390fd5b505b505050505050565b60008151905060006a636f6e736f6c652e6c6f679050602083016000808483855afa5050505050565b6000808273ffffffffffffffffffffffffffffffffffffffff163b119050919050565b828054612e0c90613d87565b90600052602060002090601f016020900481019282612e2e5760008555612e75565b82601f10612e4757805160ff1916838001178555612e75565b82800160010185558215612e75579182015b82811115612e74578251825591602001919060010190612e59565b5b509050612e829190612e86565b5090565b5b80821115612e9f576000816000905550600101612e87565b5090565b600073ffffffffffffffffffffffffffffffffffffffff82169050919050565b6000612ece82612ea3565b9050919050565b612ede81612ec3565b82525050565b6000819050919050565b612ef781612ee4565b82525050565b600082825260208201905092915050565b7f627579207469636b657473207769746820457468657220737563636573730000600082015250565b6000612f44601e83612efd565b9150612f4f82612f0e565b602082019050919050565b6000606082019050612f6f6000830185612ed5565b612f7c6020830184612eee565b8181036040830152612f8d81612f37565b90509392505050565b6000604051905090565b600080fd5b600080fd5b612fb381612ec3565b8114612fbe57600080fd5b50565b600081359050612fd081612faa565b92915050565b612fdf81612ee4565b8114612fea57600080fd5b50565b600081359050612ffc81612fd6565b92915050565b6000806040838503121561301957613018612fa0565b5b600061302785828601612fc1565b925050602061303885828601612fed565b9150509250929050565b60006020820190506130576000830184612eee565b92915050565b60007fffffffff0000000000000000000000000000000000000000000000000000000082169050919050565b6130928161305d565b811461309d57600080fd5b50565b6000813590506130af81613089565b92915050565b6000602082840312156130cb576130ca612fa0565b5b60006130d9848285016130a0565b91505092915050565b60008115159050919050565b6130f7816130e2565b82525050565b600060208201905061311260008301846130ee565b92915050565b600081519050919050565b60005b83811015613141578082015181840152602081019050613126565b83811115613150576000848401525b50505050565b6000601f19601f8301169050919050565b600061317282613118565b61317c8185612efd565b935061318c818560208601613123565b61319581613156565b840191505092915050565b600060208201905081810360008301526131ba8184613167565b905092915050565b6000602082840312156131d8576131d7612fa0565b5b60006131e684828501612fed565b91505092915050565b600081519050919050565b600082825260208201905092915050565b6000819050602082019050919050565b61322481612ee4565b82525050565b6000613236838361321b565b60208301905092915050565b6000602082019050919050565b600061325a826131ef565b61326481856131fa565b935061326f8361320b565b8060005b838110156132a0578151613287888261322a565b975061329283613242565b925050600181019050613273565b5085935050505092915050565b600060208201905081810360008301526132c7818461324f565b905092915050565b600080fd5b7f4e487b7100000000000000000000000000000000000000000000000000000000600052604160045260246000fd5b61330c82613156565b810181811067ffffffffffffffff8211171561332b5761332a6132d4565b5b80604052505050565b600061333e612f96565b905061334a8282613303565b919050565b600067ffffffffffffffff82111561336a576133696132d4565b5b602082029050602081019050919050565b600080fd5b600061339361338e8461334f565b613334565b905080838252602082019050602084028301858111156133b6576133b561337b565b5b835b818110156133df57806133cb8882612fed565b8452602084019350506020810190506133b8565b5050509392505050565b600082601f8301126133fe576133fd6132cf565b5b813561340e848260208601613380565b91505092915050565b600080fd5b600067ffffffffffffffff821115613437576134366132d4565b5b61344082613156565b9050602081019050919050565b82818337600083830152505050565b600061346f61346a8461341c565b613334565b90508281526020810184848401111561348b5761348a613417565b5b61349684828561344d565b509392505050565b600082601f8301126134b3576134b26132cf565b5b81356134c384826020860161345c565b91505092915050565b600080600080600060a086880312156134e8576134e7612fa0565b5b60006134f688828901612fc1565b955050602061350788828901612fc1565b945050604086013567ffffffffffffffff81111561352857613527612fa5565b5b613534888289016133e9565b935050606086013567ffffffffffffffff81111561355557613554612fa5565b5b613561888289016133e9565b925050608086013567ffffffffffffffff81111561358257613581612fa5565b5b61358e8882890161349e565b9150509295509295909350565b600067ffffffffffffffff8211156135b6576135b56132d4565b5b602082029050602081019050919050565b60006135da6135d58461359b565b613334565b905080838252602082019050602084028301858111156135fd576135fc61337b565b5b835b8181101561362657806136128882612fc1565b8452602084019350506020810190506135ff565b5050509392505050565b600082601f830112613645576136446132cf565b5b81356136558482602086016135c7565b91505092915050565b6000806040838503121561367557613674612fa0565b5b600083013567ffffffffffffffff81111561369357613692612fa5565b5b61369f85828601613630565b925050602083013567ffffffffffffffff8111156136c0576136bf612fa5565b5b6136cc858286016133e9565b9150509250929050565b600080600080600060a086880312156136f2576136f1612fa0565b5b600061370088828901612fc1565b955050602086013567ffffffffffffffff81111561372157613720612fa5565b5b61372d888289016133e9565b945050604086013567ffffffffffffffff81111561374e5761374d612fa5565b5b61375a888289016133e9565b935050606086013567ffffffffffffffff81111561377b5761377a612fa5565b5b613787888289016133e9565b925050608086013567ffffffffffffffff8111156137a8576137a7612fa5565b5b6137b4888289016133e9565b9150509295509295909350565b600067ffffffffffffffff82169050919050565b6137de816137c1565b81146137e957600080fd5b50565b6000813590506137fb816137d5565b92915050565b60008060006060848603121561381a57613819612fa0565b5b600061382886828701612fc1565b9350506020613839868287016137ec565b925050604061384a86828701612fed565b9150509250925092565b6000806040838503121561386b5761386a612fa0565b5b600083013567ffffffffffffffff81111561388957613888612fa5565b5b613895858286016133e9565b925050602083013567ffffffffffffffff8111156138b6576138b5612fa5565b5b6138c2858286016133e9565b9150509250929050565b6000819050919050565b60006138f16138ec6138e784612ea3565b6138cc565b612ea3565b9050919050565b6000613903826138d6565b9050919050565b6000613915826138f8565b9050919050565b6139258161390a565b82525050565b6000602082019050613940600083018461391c565b92915050565b600067ffffffffffffffff821115613961576139606132d4565b5b61396a82613156565b9050602081019050919050565b600061398a61398584613946565b613334565b9050828152602081018484840111156139a6576139a5613417565b5b6139b184828561344d565b509392505050565b600082601f8301126139ce576139cd6132cf565b5b81356139de848260208601613977565b91505092915050565b600080604083850312156139fe576139fd612fa0565b5b6000613a0c85828601612fed565b925050602083013567ffffffffffffffff811115613a2d57613a2c612fa5565b5b613a39858286016139b9565b9150509250929050565b6000602082019050613a586000830184612ed5565b92915050565b613a67816130e2565b8114613a7257600080fd5b50565b600081359050613a8481613a5e565b92915050565b60008060408385031215613aa157613aa0612fa0565b5b6000613aaf85828601612fc1565b9250506020613ac085828601613a75565b9150509250929050565b600060208284031215613ae057613adf612fa0565b5b6000613aee848285016137ec565b91505092915050565b60008060408385031215613b0e57613b0d612fa0565b5b6000613b1c85828601612fed565b9250506020613b2d85828601612fed565b9150509250929050565b600080600060608486031215613b5057613b4f612fa0565b5b6000613b5e86828701612fc1565b935050602084013567ffffffffffffffff811115613b7f57613b7e612fa5565b5b613b8b868287016133e9565b925050604084013567ffffffffffffffff811115613bac57613bab612fa5565b5b613bb8868287016133e9565b9150509250925092565b60008060408385031215613bd957613bd8612fa0565b5b6000613be785828601612fc1565b9250506020613bf885828601612fc1565b9150509250929050565b600080600080600060a08688031215613c1e57613c1d612fa0565b5b6000613c2c88828901612fc1565b9550506020613c3d88828901612fc1565b9450506040613c4e88828901612fed565b9350506060613c5f88828901612fed565b925050608086013567ffffffffffffffff811115613c8057613c7f612fa5565b5b613c8c8882890161349e565b9150509295509295909350565b600060208284031215613caf57613cae612fa0565b5b6000613cbd84828501612fc1565b91505092915050565b7f455243313135353a2062616c616e636520717565727920666f7220746865207a60008201527f65726f2061646472657373000000000000000000000000000000000000000000602082015250565b6000613d22602b83612efd565b9150613d2d82613cc6565b604082019050919050565b60006020820190508181036000830152613d5181613d15565b9050919050565b7f4e487b7100000000000000000000000000000000000000000000000000000000600052602260045260246000fd5b60006002820490506001821680613d9f57607f821691505b602082108103613db257613db1613d58565b5b50919050565b7f4e487b7100000000000000000000000000000000000000000000000000000000600052603260045260246000fd5b7f4e487b7100000000000000000000000000000000000000000000000000000000600052601160045260246000fd5b6000613e21826137c1565b915067ffffffffffffffff8203613e3b57613e3a613de7565b5b600182019050919050565b7f455243313135353a207472616e736665722063616c6c6572206973206e6f742060008201527f6f776e6572206e6f7220617070726f7665640000000000000000000000000000602082015250565b6000613ea2603283612efd565b9150613ead82613e46565b604082019050919050565b60006020820190508181036000830152613ed181613e95565b9050919050565b7f616464726573732062616c616e63652073686f756c642062652067726561746560008201527f7220300000000000000000000000000000000000000000000000000000000000602082015250565b6000613f34602383612efd565b9150613f3f82613ed8565b604082019050919050565b60006020820190508181036000830152613f6381613f27565b9050919050565b600081905092915050565b50565b6000613f85600083613f6a565b9150613f9082613f75565b600082019050919050565b6000613fa682613f78565b9150819050919050565b7f4661696c6564207769746864726177206d6f6e65790000000000000000000000600082015250565b6000613fe6601583612efd565b9150613ff182613fb0565b602082019050919050565b6000602082019050818103600083015261401581613fd9565b9050919050565b7f455243313135353a206163636f756e747320616e6420696473206c656e67746860008201527f206d69736d617463680000000000000000000000000000000000000000000000602082015250565b6000614078602983612efd565b91506140838261401c565b604082019050919050565b600060208201905081810360008301526140a78161406b565b9050919050565b60006140b982612ee4565b91507fffffffffffffffffffffffffffffffffffffffffffffffffffffffffffffffff82036140eb576140ea613de7565b5b600182019050919050565b7f4f776e61626c653a2063616c6c6572206973206e6f7420746865206f776e6572600082015250565b600061412c602083612efd565b9150614137826140f6565b602082019050919050565b6000602082019050818103600083015261415b8161411f565b9050919050565b7f4e487b7100000000000000000000000000000000000000000000000000000000600052601260045260246000fd5b600061419c82612ee4565b91506141a783612ee4565b9250826141b7576141b6614162565b5b828204905092915050565b7f616d6f756e742073686f756c6420626520657175616c20636f73740000000000600082015250565b60006141f8601b83612efd565b9150614203826141c2565b602082019050919050565b60006020820190508181036000830152614227816141eb565b9050919050565b7f57726f6e67207465616d20706172616d65746572000000000000000000000000600082015250565b6000614264601483612efd565b915061426f8261422e565b602082019050919050565b6000602082019050818103600083015261429381614257565b9050919050565b60006142a582612ee4565b91506142b083612ee4565b9250827fffffffffffffffffffffffffffffffffffffffffffffffffffffffffffffffff038211156142e5576142e4613de7565b5b828201905092915050565b7f54686520616d6f756e74206f66207469636b657473206973206e6f742061766160008201527f696c61626c650000000000000000000000000000000000000000000000000000602082015250565b600061434c602683612efd565b9150614357826142f0565b604082019050919050565b6000602082019050818103600083015261437b8161433f565b9050919050565b600061438d82612ee4565b915061439883612ee4565b9250817fffffffffffffffffffffffffffffffffffffffffffffffffffffffffffffffff04831182151516156143d1576143d0613de7565b5b828202905092915050565b60006060820190506143f16000830186612ed5565b6143fe6020830185612ed5565b61440b6040830184612eee565b949350505050565b60008151905061442281613a5e565b92915050565b60006020828403121561443e5761443d612fa0565b5b600061444c84828501614413565b91505092915050565b7f455243313135353a2063616c6c6572206973206e6f74206f776e6572206e6f7260008201527f20617070726f7665640000000000000000000000000000000000000000000000602082015250565b60006144b1602983612efd565b91506144bc82614455565b604082019050919050565b600060208201905081810360008301526144e0816144a4565b9050919050565b7f4f776e61626c653a206e6577206f776e657220697320746865207a65726f206160008201527f6464726573730000000000000000000000000000000000000000000000000000602082015250565b6000614543602683612efd565b915061454e826144e7565b604082019050919050565b6000602082019050818103600083015261457281614536565b9050919050565b7f455243313135353a2069647320616e6420616d6f756e7473206c656e6774682060008201527f6d69736d61746368000000000000000000000000000000000000000000000000602082015250565b60006145d5602883612efd565b91506145e082614579565b604082019050919050565b60006020820190508181036000830152614604816145c8565b9050919050565b7f455243313135353a207472616e7366657220746f20746865207a65726f20616460008201527f6472657373000000000000000000000000000000000000000000000000000000602082015250565b6000614667602583612efd565b91506146728261460b565b604082019050919050565b600060208201905081810360008301526146968161465a565b9050919050565b7f455243313135353a20696e73756666696369656e742062616c616e636520666f60008201527f72207472616e7366657200000000000000000000000000000000000000000000602082015250565b60006146f9602a83612efd565b91506147048261469d565b604082019050919050565b60006020820190508181036000830152614728816146ec565b9050919050565b60006040820190508181036000830152614749818561324f565b9050818103602083015261475d818461324f565b90509392505050565b7f455243313135353a206275726e2066726f6d20746865207a65726f206164647260008201527f6573730000000000000000000000000000000000000000000000000000000000602082015250565b60006147c2602383612efd565b91506147cd82614766565b604082019050919050565b600060208201905081810360008301526147f1816147b5565b9050919050565b7f455243313135353a206275726e20616d6f756e7420657863656564732062616c60008201527f616e636500000000000000000000000000000000000000000000000000000000602082015250565b6000614854602483612efd565b915061485f826147f8565b604082019050919050565b6000602082019050818103600083015261488381614847565b9050919050565b7f455243313135353a206d696e7420746f20746865207a65726f2061646472657360008201527f7300000000000000000000000000000000000000000000000000000000000000602082015250565b60006148e6602183612efd565b91506148f18261488a565b604082019050919050565b60006020820190508181036000830152614915816148d9565b9050919050565b60006040820190506149316000830185612eee565b61493e6020830184612eee565b9392505050565b7f455243313135353a2073657474696e6720617070726f76616c2073746174757360008201527f20666f722073656c660000000000000000000000000000000000000000000000602082015250565b60006149a1602983612efd565b91506149ac82614945565b604082019050919050565b600060208201905081810360008301526149d081614994565b9050919050565b600060408201905081810360008301526149f18185613167565b9050614a006020830184612ed5565b9392505050565b600081519050919050565b600082825260208201905092915050565b6000614a2e82614a07565b614a388185614a12565b9350614a48818560208601613123565b614a5181613156565b840191505092915050565b600060a082019050614a716000830188612ed5565b614a7e6020830187612ed5565b8181036040830152614a90818661324f565b90508181036060830152614aa4818561324f565b90508181036080830152614ab88184614a23565b90509695505050505050565b600081519050614ad381613089565b92915050565b600060208284031215614aef57614aee612fa0565b5b6000614afd84828501614ac4565b91505092915050565b60008160e01c9050919050565b600060033d1115614b325760046000803e614b2f600051614b06565b90505b90565b600060443d10614bc257614b47612f96565b60043d036004823e80513d602482011167ffffffffffffffff82111715614b6f575050614bc2565b808201805167ffffffffffffffff811115614b8d5750505050614bc2565b80602083010160043d038501811115614baa575050505050614bc2565b614bb982602001850186613303565b82955050505050505b90565b7f455243313135353a207472616e7366657220746f206e6f6e204552433131353560008201527f526563656976657220696d706c656d656e746572000000000000000000000000602082015250565b6000614c21603483612efd565b9150614c2c82614bc5565b604082019050919050565b60006020820190508181036000830152614c5081614c14565b9050919050565b7f455243313135353a204552433131353552656365697665722072656a6563746560008201527f6420746f6b656e73000000000000000000000000000000000000000000000000602082015250565b6000614cb3602883612efd565b9150614cbe82614c57565b604082019050919050565b60006020820190508181036000830152614ce281614ca6565b9050919050565b600060a082019050614cfe6000830188612ed5565b614d0b6020830187612ed5565b614d186040830186612eee565b614d256060830185612eee565b8181036080830152614d378184614a23565b9050969550505050505056fea2646970667358221220d68d1cfce91ead4db55a7da0b6deba8481e66338f047cda441db184a06a19a8864736f6c634300080e0033",
  "linkReferences": {},
  "deployedLinkReferences": {}
}