{
  "_format": "hh-sol-artifact-1",
  "contractName": "ArmenianLeagueTickets",
  "sourceName": "contracts/ArmenianLeagueTickets.sol",
  "abi": [
    {
      "inputs": [
        {
          "internalType": "contract MyUSDToken",
          "name": "_mysUSDToken",
          "type": "address"
        }
      ],
      "stateMutability": "nonpayable",
      "type": "constructor"
    },
    {
      "anonymous": false,
      "inputs": [
        {
          "indexed": true,
          "internalType": "address",
          "name": "account",
          "type": "address"
        },
        {
          "indexed": true,
          "internalType": "address",
          "name": "operator",
          "type": "address"
        },
        {
          "indexed": false,
          "internalType": "bool",
          "name": "approved",
          "type": "bool"
        }
      ],
      "name": "ApprovalForAll",
      "type": "event"
    },
    {
      "anonymous": false,
      "inputs": [
        {
          "indexed": true,
          "internalType": "address",
          "name": "previousOwner",
          "type": "address"
        },
        {
          "indexed": true,
          "internalType": "address",
          "name": "newOwner",
          "type": "address"
        }
      ],
      "name": "OwnershipTransferred",
      "type": "event"
    },
    {
      "anonymous": false,
      "inputs": [
        {
          "indexed": false,
          "internalType": "address",
          "name": "account",
          "type": "address"
        },
        {
          "indexed": false,
          "internalType": "address",
          "name": "token",
          "type": "address"
        },
        {
          "indexed": false,
          "internalType": "uint256",
          "name": "amount",
          "type": "uint256"
        },
        {
          "indexed": false,
          "internalType": "uint256",
          "name": "rate",
          "type": "uint256"
        }
      ],
      "name": "TokenPurchased",
      "type": "event"
    },
    {
      "anonymous": false,
      "inputs": [
        {
          "indexed": true,
          "internalType": "address",
          "name": "operator",
          "type": "address"
        },
        {
          "indexed": true,
          "internalType": "address",
          "name": "from",
          "type": "address"
        },
        {
          "indexed": true,
          "internalType": "address",
          "name": "to",
          "type": "address"
        },
        {
          "indexed": false,
          "internalType": "uint256[]",
          "name": "ids",
          "type": "uint256[]"
        },
        {
          "indexed": false,
          "internalType": "uint256[]",
          "name": "values",
          "type": "uint256[]"
        }
      ],
      "name": "TransferBatch",
      "type": "event"
    },
    {
      "anonymous": false,
      "inputs": [
        {
          "indexed": true,
          "internalType": "address",
          "name": "operator",
          "type": "address"
        },
        {
          "indexed": true,
          "internalType": "address",
          "name": "from",
          "type": "address"
        },
        {
          "indexed": true,
          "internalType": "address",
          "name": "to",
          "type": "address"
        },
        {
          "indexed": false,
          "internalType": "uint256",
          "name": "id",
          "type": "uint256"
        },
        {
          "indexed": false,
          "internalType": "uint256",
          "name": "value",
          "type": "uint256"
        }
      ],
      "name": "TransferSingle",
      "type": "event"
    },
    {
      "anonymous": false,
      "inputs": [
        {
          "indexed": false,
          "internalType": "string",
          "name": "value",
          "type": "string"
        },
        {
          "indexed": true,
          "internalType": "uint256",
          "name": "id",
          "type": "uint256"
        }
      ],
      "name": "URI",
      "type": "event"
    },
    {
      "inputs": [],
      "name": "USDCCost",
      "outputs": [
        {
          "internalType": "uint256",
          "name": "",
          "type": "uint256"
        }
      ],
      "stateMutability": "view",
      "type": "function"
    },
    {
      "inputs": [
        {
          "internalType": "address",
          "name": "account",
          "type": "address"
        },
        {
          "internalType": "uint256",
          "name": "id",
          "type": "uint256"
        }
      ],
      "name": "balanceOf",
      "outputs": [
        {
          "internalType": "uint256",
          "name": "",
          "type": "uint256"
        }
      ],
      "stateMutability": "view",
      "type": "function"
    },
    {
      "inputs": [
        {
          "internalType": "address[]",
          "name": "accounts",
          "type": "address[]"
        },
        {
          "internalType": "uint256[]",
          "name": "ids",
          "type": "uint256[]"
        }
      ],
      "name": "balanceOfBatch",
      "outputs": [
        {
          "internalType": "uint256[]",
          "name": "",
          "type": "uint256[]"
        }
      ],
      "stateMutability": "view",
      "type": "function"
    },
    {
      "inputs": [
        {
          "internalType": "uint256",
          "name": "_id",
          "type": "uint256"
        },
        {
          "internalType": "uint256",
          "name": "_amount",
          "type": "uint256"
        }
      ],
      "name": "burn",
      "outputs": [],
      "stateMutability": "nonpayable",
      "type": "function"
    },
    {
      "inputs": [
        {
          "internalType": "uint256[]",
          "name": "_ids",
          "type": "uint256[]"
        },
        {
          "internalType": "uint256[]",
          "name": "_amounts",
          "type": "uint256[]"
        }
      ],
      "name": "burnBatch",
      "outputs": [],
      "stateMutability": "nonpayable",
      "type": "function"
    },
    {
      "inputs": [
        {
          "internalType": "address",
          "name": "_from",
          "type": "address"
        },
        {
          "internalType": "uint256[]",
          "name": "_burnIds",
          "type": "uint256[]"
        },
        {
          "internalType": "uint256[]",
          "name": "_burnAmounts",
          "type": "uint256[]"
        },
        {
          "internalType": "uint256[]",
          "name": "_mintIds",
          "type": "uint256[]"
        },
        {
          "internalType": "uint256[]",
          "name": "_mintAmounts",
          "type": "uint256[]"
        }
      ],
      "name": "burnForMint",
      "outputs": [],
      "stateMutability": "nonpayable",
      "type": "function"
    },
    {
      "inputs": [],
      "name": "cost",
      "outputs": [
        {
          "internalType": "uint256",
          "name": "",
          "type": "uint256"
        }
      ],
      "stateMutability": "view",
      "type": "function"
    },
    {
      "inputs": [
        {
          "internalType": "address",
          "name": "account",
          "type": "address"
        },
        {
          "internalType": "address",
          "name": "operator",
          "type": "address"
        }
      ],
      "name": "isApprovedForAll",
      "outputs": [
        {
          "internalType": "bool",
          "name": "",
          "type": "bool"
        }
      ],
      "stateMutability": "view",
      "type": "function"
    },
    {
      "inputs": [
        {
          "internalType": "address",
          "name": "_to",
          "type": "address"
        },
        {
          "internalType": "uint64",
          "name": "_id",
          "type": "uint64"
        },
        {
          "internalType": "uint256",
          "name": "_amount",
          "type": "uint256"
        }
      ],
      "name": "mint",
      "outputs": [],
      "stateMutability": "payable",
      "type": "function"
    },
    {
      "inputs": [
        {
          "internalType": "address",
          "name": "_to",
          "type": "address"
        },
        {
          "internalType": "uint256[]",
          "name": "_ids",
          "type": "uint256[]"
        },
        {
          "internalType": "uint256[]",
          "name": "_amounts",
          "type": "uint256[]"
        }
      ],
      "name": "mintBatch",
      "outputs": [],
      "stateMutability": "nonpayable",
      "type": "function"
    },
    {
      "inputs": [
        {
          "internalType": "address",
          "name": "_to",
          "type": "address"
        },
        {
          "internalType": "uint256",
          "name": "_id",
          "type": "uint256"
        },
        {
          "internalType": "uint256",
          "name": "_amount",
          "type": "uint256"
        }
      ],
      "name": "mintByUSDC",
      "outputs": [],
      "stateMutability": "payable",
      "type": "function"
    },
    {
      "inputs": [],
      "name": "mysUSDToken",
      "outputs": [
        {
          "internalType": "contract MyUSDToken",
          "name": "",
          "type": "address"
        }
      ],
      "stateMutability": "view",
      "type": "function"
    },
    {
      "inputs": [],
      "name": "name",
      "outputs": [
        {
          "internalType": "string",
          "name": "",
          "type": "string"
        }
      ],
      "stateMutability": "view",
      "type": "function"
    },
    {
      "inputs": [],
      "name": "owner",
      "outputs": [
        {
          "internalType": "address",
          "name": "",
          "type": "address"
        }
      ],
      "stateMutability": "view",
      "type": "function"
    },
    {
      "inputs": [],
      "name": "rate",
      "outputs": [
        {
          "internalType": "uint256",
          "name": "",
          "type": "uint256"
        }
      ],
      "stateMutability": "view",
      "type": "function"
    },
    {
      "inputs": [],
      "name": "renounceOwnership",
      "outputs": [],
      "stateMutability": "nonpayable",
      "type": "function"
    },
    {
      "inputs": [
        {
          "internalType": "address",
          "name": "from",
          "type": "address"
        },
        {
          "internalType": "address",
          "name": "to",
          "type": "address"
        },
        {
          "internalType": "uint256[]",
          "name": "ids",
          "type": "uint256[]"
        },
        {
          "internalType": "uint256[]",
          "name": "amounts",
          "type": "uint256[]"
        },
        {
          "internalType": "bytes",
          "name": "data",
          "type": "bytes"
        }
      ],
      "name": "safeBatchTransferFrom",
      "outputs": [],
      "stateMutability": "nonpayable",
      "type": "function"
    },
    {
      "inputs": [
        {
          "internalType": "address",
          "name": "from",
          "type": "address"
        },
        {
          "internalType": "address",
          "name": "to",
          "type": "address"
        },
        {
          "internalType": "uint256",
          "name": "id",
          "type": "uint256"
        },
        {
          "internalType": "uint256",
          "name": "amount",
          "type": "uint256"
        },
        {
          "internalType": "bytes",
          "name": "data",
          "type": "bytes"
        }
      ],
      "name": "safeTransferFrom",
      "outputs": [],
      "stateMutability": "nonpayable",
      "type": "function"
    },
    {
      "inputs": [
        {
          "internalType": "address",
          "name": "operator",
          "type": "address"
        },
        {
          "internalType": "bool",
          "name": "approved",
          "type": "bool"
        }
      ],
      "name": "setApprovalForAll",
      "outputs": [],
      "stateMutability": "nonpayable",
      "type": "function"
    },
    {
      "inputs": [
        {
          "internalType": "uint256",
          "name": "_id",
          "type": "uint256"
        },
        {
          "internalType": "string",
          "name": "_uri",
          "type": "string"
        }
      ],
      "name": "setURI",
      "outputs": [],
      "stateMutability": "nonpayable",
      "type": "function"
    },
    {
      "inputs": [
        {
          "internalType": "bytes4",
          "name": "interfaceId",
          "type": "bytes4"
        }
      ],
      "name": "supportsInterface",
      "outputs": [
        {
          "internalType": "bool",
          "name": "",
          "type": "bool"
        }
      ],
      "stateMutability": "view",
      "type": "function"
    },
    {
      "inputs": [],
      "name": "symbol",
      "outputs": [
        {
          "internalType": "string",
          "name": "",
          "type": "string"
        }
      ],
      "stateMutability": "view",
      "type": "function"
    },
    {
      "inputs": [
        {
          "internalType": "uint256",
          "name": "",
          "type": "uint256"
        }
      ],
      "name": "tokenURI",
      "outputs": [
        {
          "internalType": "string",
          "name": "",
          "type": "string"
        }
      ],
      "stateMutability": "view",
      "type": "function"
    },
    {
      "inputs": [
        {
          "internalType": "address",
          "name": "newOwner",
          "type": "address"
        }
      ],
      "name": "transferOwnership",
      "outputs": [],
      "stateMutability": "nonpayable",
      "type": "function"
    },
    {
      "inputs": [
        {
          "internalType": "uint256",
          "name": "_id",
          "type": "uint256"
        }
      ],
      "name": "uri",
      "outputs": [
        {
          "internalType": "string",
          "name": "",
          "type": "string"
        }
      ],
      "stateMutability": "view",
      "type": "function"
    },
    {
      "inputs": [],
      "name": "withdraw",
      "outputs": [],
      "stateMutability": "nonpayable",
      "type": "function"
    }
  ],
  "bytecode": "0x6080604052662386f26fc10000600655601e60075560646008553480156200002657600080fd5b5060405162004d2938038062004d2983398181016040528101906200004c91906200038a565b604051806020016040528060008152506200006d816200017260201b60201c565b506200008e620000826200018e60201b60201c565b6200019660201b60201c565b6040518060400160405280601581526020017f41726d656e69616e5072656d6965724c6561677565000000000000000000000081525060049080519060200190620000db9291906200025c565b506040518060400160405280601581526020017f41726d656e69616e5072656d6965724c6561677565000000000000000000000081525060059080519060200190620001299291906200025c565b5080600960006101000a81548173ffffffffffffffffffffffffffffffffffffffff021916908373ffffffffffffffffffffffffffffffffffffffff1602179055505062000420565b80600290805190602001906200018a9291906200025c565b5050565b600033905090565b6000600360009054906101000a900473ffffffffffffffffffffffffffffffffffffffff16905081600360006101000a81548173ffffffffffffffffffffffffffffffffffffffff021916908373ffffffffffffffffffffffffffffffffffffffff1602179055508173ffffffffffffffffffffffffffffffffffffffff168173ffffffffffffffffffffffffffffffffffffffff167f8be0079c531659141344cd1fd0a4f28419497f9722a3daafe3b4186f6b6457e060405160405180910390a35050565b8280546200026a90620003eb565b90600052602060002090601f0160209004810192826200028e5760008555620002da565b82601f10620002a957805160ff1916838001178555620002da565b82800160010185558215620002da579182015b82811115620002d9578251825591602001919060010190620002bc565b5b509050620002e99190620002ed565b5090565b5b8082111562000308576000816000905550600101620002ee565b5090565b600080fd5b600073ffffffffffffffffffffffffffffffffffffffff82169050919050565b60006200033e8262000311565b9050919050565b6000620003528262000331565b9050919050565b620003648162000345565b81146200037057600080fd5b50565b600081519050620003848162000359565b92915050565b600060208284031215620003a357620003a26200030c565b5b6000620003b38482850162000373565b91505092915050565b7f4e487b7100000000000000000000000000000000000000000000000000000000600052602260045260246000fd5b600060028204905060018216806200040457607f821691505b6020821081036200041a5762000419620003bc565b5b50919050565b6148f980620004306000396000f3fe6080604052600436106101805760003560e01c806383ca4b6f116100d1578063b390c0ab1161008a578063e49e811e11610064578063e49e811e1461053d578063e985e9c514610568578063f242432a146105a5578063f2fde38b146105ce57610180565b8063b390c0ab146104ae578063c87b56dd146104d7578063d81d0a151461051457610180565b806383ca4b6f146103b257806384e515c1146103db578063862440e2146104065780638da5cb5b1461042f57806395d89b411461045a578063a22cb4651461048557610180565b80632eb2c2d61161013e578063510f410411610118578063510f41041461033a578063715018a6146103635780637fe7adfc1461037a57806383145fea1461039657610180565b80632eb2c2d6146102bd5780633ccfd60b146102e65780634e1273f4146102fd57610180565b8062fdd58e1461018557806301ffc9a7146101c257806306fdde03146101ff5780630e89341c1461022a57806313faede6146102675780632c4e722e14610292575b600080fd5b34801561019157600080fd5b506101ac60048036038101906101a79190612c02565b6105f7565b6040516101b99190612c51565b60405180910390f35b3480156101ce57600080fd5b506101e960048036038101906101e49190612cc4565b6106bf565b6040516101f69190612d0c565b60405180910390f35b34801561020b57600080fd5b506102146107a1565b6040516102219190612dc0565b60405180910390f35b34801561023657600080fd5b50610251600480360381019061024c9190612de2565b61082f565b60405161025e9190612dc0565b60405180910390f35b34801561027357600080fd5b5061027c6108d4565b6040516102899190612c51565b60405180910390f35b34801561029e57600080fd5b506102a76108da565b6040516102b49190612c51565b60405180910390f35b3480156102c957600080fd5b506102e460048036038101906102df919061300c565b6108e0565b005b3480156102f257600080fd5b506102fb610981565b005b34801561030957600080fd5b50610324600480360381019061031f919061319e565b610a7a565b60405161033191906132d4565b60405180910390f35b34801561034657600080fd5b50610361600480360381019061035c91906132f6565b610b93565b005b34801561036f57600080fd5b50610378610c3c565b005b610394600480360381019061038f9190613421565b610cc4565b005b6103b060048036038101906103ab9190613474565b610d9e565b005b3480156103be57600080fd5b506103d960048036038101906103d491906134c7565b610ee7565b005b3480156103e757600080fd5b506103f0610ef6565b6040516103fd919061359e565b60405180910390f35b34801561041257600080fd5b5061042d6004803603810190610428919061365a565b610f1c565b005b34801561043b57600080fd5b50610444610ffc565b60405161045191906136c5565b60405180910390f35b34801561046657600080fd5b5061046f611026565b60405161047c9190612dc0565b60405180910390f35b34801561049157600080fd5b506104ac60048036038101906104a7919061370c565b6110b4565b005b3480156104ba57600080fd5b506104d560048036038101906104d0919061374c565b6110ca565b005b3480156104e357600080fd5b506104fe60048036038101906104f99190612de2565b6110d9565b60405161050b9190612dc0565b60405180910390f35b34801561052057600080fd5b5061053b6004803603810190610536919061378c565b611179565b005b34801561054957600080fd5b50610552611215565b60405161055f9190612c51565b60405180910390f35b34801561057457600080fd5b5061058f600480360381019061058a9190613817565b61121b565b60405161059c9190612d0c565b60405180910390f35b3480156105b157600080fd5b506105cc60048036038101906105c79190613857565b6112af565b005b3480156105da57600080fd5b506105f560048036038101906105f091906138ee565b611350565b005b60008073ffffffffffffffffffffffffffffffffffffffff168373ffffffffffffffffffffffffffffffffffffffff1603610667576040517f08c379a000000000000000000000000000000000000000000000000000000000815260040161065e9061398d565b60405180910390fd5b60008083815260200190815260200160002060008473ffffffffffffffffffffffffffffffffffffffff1673ffffffffffffffffffffffffffffffffffffffff16815260200190815260200160002054905092915050565b60007fd9b67a26000000000000000000000000000000000000000000000000000000007bffffffffffffffffffffffffffffffffffffffffffffffffffffffff1916827bffffffffffffffffffffffffffffffffffffffffffffffffffffffff1916148061078a57507f0e89341c000000000000000000000000000000000000000000000000000000007bffffffffffffffffffffffffffffffffffffffffffffffffffffffff1916827bffffffffffffffffffffffffffffffffffffffffffffffffffffffff1916145b8061079a575061079982611447565b5b9050919050565b600480546107ae906139dc565b80601f01602080910402602001604051908101604052809291908181526020018280546107da906139dc565b80156108275780601f106107fc57610100808354040283529160200191610827565b820191906000526020600020905b81548152906001019060200180831161080a57829003601f168201915b505050505081565b6060600a6000838152602001908152602001600020805461084f906139dc565b80601f016020809104026020016040519081016040528092919081815260200182805461087b906139dc565b80156108c85780601f1061089d576101008083540402835291602001916108c8565b820191906000526020600020905b8154815290600101906020018083116108ab57829003601f168201915b50505050509050919050565b60065481565b60085481565b6108e86114b1565b73ffffffffffffffffffffffffffffffffffffffff168573ffffffffffffffffffffffffffffffffffffffff16148061092e575061092d856109286114b1565b61121b565b5b61096d576040517f08c379a000000000000000000000000000000000000000000000000000000000815260040161096490613a7f565b60405180910390fd5b61097a85858585856114b9565b5050505050565b600047116109c4576040517f08c379a00000000000000000000000000000000000000000000000000000000081526004016109bb90613b11565b60405180910390fd5b60006109ce610ffc565b73ffffffffffffffffffffffffffffffffffffffff16476040516109f190613b62565b60006040518083038185875af1925050503d8060008114610a2e576040519150601f19603f3d011682016040523d82523d6000602084013e610a33565b606091505b5050905080610a77576040517f08c379a0000000000000000000000000000000000000000000000000000000008152600401610a6e90613bc3565b60405180910390fd5b50565b60608151835114610ac0576040517f08c379a0000000000000000000000000000000000000000000000000000000008152600401610ab790613c55565b60405180910390fd5b6000835167ffffffffffffffff811115610add57610adc612e14565b5b604051908082528060200260200182016040528015610b0b5781602001602082028036833780820191505090505b50905060005b8451811015610b8857610b58858281518110610b3057610b2f613c75565b5b6020026020010151858381518110610b4b57610b4a613c75565b5b60200260200101516105f7565b828281518110610b6b57610b6a613c75565b5b60200260200101818152505080610b8190613cd3565b9050610b11565b508091505092915050565b610b9b6114b1565b73ffffffffffffffffffffffffffffffffffffffff16610bb9610ffc565b73ffffffffffffffffffffffffffffffffffffffff1614610c0f576040517f08c379a0000000000000000000000000000000000000000000000000000000008152600401610c0690613d67565b60405180910390fd5b610c1a8585856117da565b610c3585838360405180602001604052806000815250611aa8565b5050505050565b610c446114b1565b73ffffffffffffffffffffffffffffffffffffffff16610c62610ffc565b73ffffffffffffffffffffffffffffffffffffffff1614610cb8576040517f08c379a0000000000000000000000000000000000000000000000000000000008152600401610caf90613d67565b60405180910390fd5b610cc26000611cd4565b565b6006543414610d08576040517f08c379a0000000000000000000000000000000000000000000000000000000008152600401610cff90613dd3565b60405180910390fd5b8160008167ffffffffffffffff161080610d2c575060098167ffffffffffffffff16115b15610d73576000610d72576040517f08c379a0000000000000000000000000000000000000000000000000000000008152600401610d6990613e3f565b60405180910390fd5b5b610d98848467ffffffffffffffff168460405180602001604052806000815250611d9a565b50505050565b806007548114610de3576040517f08c379a0000000000000000000000000000000000000000000000000000000008152600401610dda90613eab565b60405180910390fd5b610e226040518060400160405280601b81526020017f53656e646572206164647265737320697320257320746f6b656e73000000000081525030611f4a565b600960009054906101000a900473ffffffffffffffffffffffffffffffffffffffff1673ffffffffffffffffffffffffffffffffffffffff166323b872dd333060026040518463ffffffff1660e01b8152600401610e8293929190613f06565b6020604051808303816000875af1158015610ea1573d6000803e3d6000fd5b505050506040513d601f19601f82011682018060405250810190610ec59190613f52565b50610ee184848460405180602001604052806000815250611d9a565b50505050565b610ef23383836117da565b5050565b600960009054906101000a900473ffffffffffffffffffffffffffffffffffffffff1681565b610f246114b1565b73ffffffffffffffffffffffffffffffffffffffff16610f42610ffc565b73ffffffffffffffffffffffffffffffffffffffff1614610f98576040517f08c379a0000000000000000000000000000000000000000000000000000000008152600401610f8f90613d67565b60405180910390fd5b80600a60008481526020019081526020016000209080519060200190610fbf929190612ab7565b50817f6bb7ff708619ba0610cba295a58592e0451dee2622938c8755667688daf3529b82604051610ff09190612dc0565b60405180910390a25050565b6000600360009054906101000a900473ffffffffffffffffffffffffffffffffffffffff16905090565b60058054611033906139dc565b80601f016020809104026020016040519081016040528092919081815260200182805461105f906139dc565b80156110ac5780601f10611081576101008083540402835291602001916110ac565b820191906000526020600020905b81548152906001019060200180831161108f57829003601f168201915b505050505081565b6110c66110bf6114b1565b8383611fe6565b5050565b6110d5338383612152565b5050565b600a60205280600052604060002060009150905080546110f8906139dc565b80601f0160208091040260200160405190810160405280929190818152602001828054611124906139dc565b80156111715780601f1061114657610100808354040283529160200191611171565b820191906000526020600020905b81548152906001019060200180831161115457829003601f168201915b505050505081565b6111816114b1565b73ffffffffffffffffffffffffffffffffffffffff1661119f610ffc565b73ffffffffffffffffffffffffffffffffffffffff16146111f5576040517f08c379a00000000000000000000000000000000000000000000000000000000081526004016111ec90613d67565b60405180910390fd5b61121083838360405180602001604052806000815250611aa8565b505050565b60075481565b6000600160008473ffffffffffffffffffffffffffffffffffffffff1673ffffffffffffffffffffffffffffffffffffffff16815260200190815260200160002060008373ffffffffffffffffffffffffffffffffffffffff1673ffffffffffffffffffffffffffffffffffffffff16815260200190815260200160002060009054906101000a900460ff16905092915050565b6112b76114b1565b73ffffffffffffffffffffffffffffffffffffffff168573ffffffffffffffffffffffffffffffffffffffff1614806112fd57506112fc856112f76114b1565b61121b565b5b61133c576040517f08c379a000000000000000000000000000000000000000000000000000000000815260040161133390613ff1565b60405180910390fd5b6113498585858585612398565b5050505050565b6113586114b1565b73ffffffffffffffffffffffffffffffffffffffff16611376610ffc565b73ffffffffffffffffffffffffffffffffffffffff16146113cc576040517f08c379a00000000000000000000000000000000000000000000000000000000081526004016113c390613d67565b60405180910390fd5b600073ffffffffffffffffffffffffffffffffffffffff168173ffffffffffffffffffffffffffffffffffffffff160361143b576040517f08c379a000000000000000000000000000000000000000000000000000000000815260040161143290614083565b60405180910390fd5b61144481611cd4565b50565b60007f01ffc9a7000000000000000000000000000000000000000000000000000000007bffffffffffffffffffffffffffffffffffffffffffffffffffffffff1916827bffffffffffffffffffffffffffffffffffffffffffffffffffffffff1916149050919050565b600033905090565b81518351146114fd576040517f08c379a00000000000000000000000000000000000000000000000000000000081526004016114f490614115565b60405180910390fd5b600073ffffffffffffffffffffffffffffffffffffffff168473ffffffffffffffffffffffffffffffffffffffff160361156c576040517f08c379a0000000000000000000000000000000000000000000000000000000008152600401611563906141a7565b60405180910390fd5b60006115766114b1565b9050611586818787878787612633565b60005b84518110156117375760008582815181106115a7576115a6613c75565b5b6020026020010151905060008583815181106115c6576115c5613c75565b5b60200260200101519050600080600084815260200190815260200160002060008b73ffffffffffffffffffffffffffffffffffffffff1673ffffffffffffffffffffffffffffffffffffffff16815260200190815260200160002054905081811015611667576040517f08c379a000000000000000000000000000000000000000000000000000000000815260040161165e90614239565b60405180910390fd5b81810360008085815260200190815260200160002060008c73ffffffffffffffffffffffffffffffffffffffff1673ffffffffffffffffffffffffffffffffffffffff168152602001908152602001600020819055508160008085815260200190815260200160002060008b73ffffffffffffffffffffffffffffffffffffffff1673ffffffffffffffffffffffffffffffffffffffff168152602001908152602001600020600082825461171c9190614259565b925050819055505050508061173090613cd3565b9050611589565b508473ffffffffffffffffffffffffffffffffffffffff168673ffffffffffffffffffffffffffffffffffffffff168273ffffffffffffffffffffffffffffffffffffffff167f4a39dc06d4c0dbc64b70af90fd698a233a518aa5d07e595d983b8c0526c8f7fb87876040516117ae9291906142af565b60405180910390a46117c481878787878761263b565b6117d2818787878787612643565b505050505050565b600073ffffffffffffffffffffffffffffffffffffffff168373ffffffffffffffffffffffffffffffffffffffff1603611849576040517f08c379a000000000000000000000000000000000000000000000000000000000815260040161184090614358565b60405180910390fd5b805182511461188d576040517f08c379a000000000000000000000000000000000000000000000000000000000815260040161188490614115565b60405180910390fd5b60006118976114b1565b90506118b781856000868660405180602001604052806000815250612633565b60005b8351811015611a045760008482815181106118d8576118d7613c75565b5b6020026020010151905060008483815181106118f7576118f6613c75565b5b60200260200101519050600080600084815260200190815260200160002060008973ffffffffffffffffffffffffffffffffffffffff1673ffffffffffffffffffffffffffffffffffffffff16815260200190815260200160002054905081811015611998576040517f08c379a000000000000000000000000000000000000000000000000000000000815260040161198f906143ea565b60405180910390fd5b81810360008085815260200190815260200160002060008a73ffffffffffffffffffffffffffffffffffffffff1673ffffffffffffffffffffffffffffffffffffffff1681526020019081526020016000208190555050505080806119fc90613cd3565b9150506118ba565b50600073ffffffffffffffffffffffffffffffffffffffff168473ffffffffffffffffffffffffffffffffffffffff168273ffffffffffffffffffffffffffffffffffffffff167f4a39dc06d4c0dbc64b70af90fd698a233a518aa5d07e595d983b8c0526c8f7fb8686604051611a7c9291906142af565b60405180910390a4611aa28185600086866040518060200160405280600081525061263b565b50505050565b600073ffffffffffffffffffffffffffffffffffffffff168473ffffffffffffffffffffffffffffffffffffffff1603611b17576040517f08c379a0000000000000000000000000000000000000000000000000000000008152600401611b0e9061447c565b60405180910390fd5b8151835114611b5b576040517f08c379a0000000000000000000000000000000000000000000000000000000008152600401611b5290614115565b60405180910390fd5b6000611b656114b1565b9050611b7681600087878787612633565b60005b8451811015611c2f57838181518110611b9557611b94613c75565b5b6020026020010151600080878481518110611bb357611bb2613c75565b5b6020026020010151815260200190815260200160002060008873ffffffffffffffffffffffffffffffffffffffff1673ffffffffffffffffffffffffffffffffffffffff1681526020019081526020016000206000828254611c159190614259565b925050819055508080611c2790613cd3565b915050611b79565b508473ffffffffffffffffffffffffffffffffffffffff16600073ffffffffffffffffffffffffffffffffffffffff168273ffffffffffffffffffffffffffffffffffffffff167f4a39dc06d4c0dbc64b70af90fd698a233a518aa5d07e595d983b8c0526c8f7fb8787604051611ca79291906142af565b60405180910390a4611cbe8160008787878761263b565b611ccd81600087878787612643565b5050505050565b6000600360009054906101000a900473ffffffffffffffffffffffffffffffffffffffff16905081600360006101000a81548173ffffffffffffffffffffffffffffffffffffffff021916908373ffffffffffffffffffffffffffffffffffffffff1602179055508173ffffffffffffffffffffffffffffffffffffffff168173ffffffffffffffffffffffffffffffffffffffff167f8be0079c531659141344cd1fd0a4f28419497f9722a3daafe3b4186f6b6457e060405160405180910390a35050565b600073ffffffffffffffffffffffffffffffffffffffff168473ffffffffffffffffffffffffffffffffffffffff1603611e09576040517f08c379a0000000000000000000000000000000000000000000000000000000008152600401611e009061447c565b60405180910390fd5b6000611e136114b1565b90506000611e208561281a565b90506000611e2d8561281a565b9050611e3e83600089858589612633565b8460008088815260200190815260200160002060008973ffffffffffffffffffffffffffffffffffffffff1673ffffffffffffffffffffffffffffffffffffffff1681526020019081526020016000206000828254611e9d9190614259565b925050819055508673ffffffffffffffffffffffffffffffffffffffff16600073ffffffffffffffffffffffffffffffffffffffff168473ffffffffffffffffffffffffffffffffffffffff167fc3d58168c5ae7397731d063d5bbf3d657854427343f4c083240f7aacaa2d0f628989604051611f1b92919061449c565b60405180910390a4611f328360008985858961263b565b611f4183600089898989612894565b50505050505050565b611fe28282604051602401611f609291906144c5565b6040516020818303038152906040527f319af333000000000000000000000000000000000000000000000000000000007bffffffffffffffffffffffffffffffffffffffffffffffffffffffff19166020820180517bffffffffffffffffffffffffffffffffffffffffffffffffffffffff8381831617835250505050612a6b565b5050565b8173ffffffffffffffffffffffffffffffffffffffff168373ffffffffffffffffffffffffffffffffffffffff1603612054576040517f08c379a000000000000000000000000000000000000000000000000000000000815260040161204b90614567565b60405180910390fd5b80600160008573ffffffffffffffffffffffffffffffffffffffff1673ffffffffffffffffffffffffffffffffffffffff16815260200190815260200160002060008473ffffffffffffffffffffffffffffffffffffffff1673ffffffffffffffffffffffffffffffffffffffff16815260200190815260200160002060006101000a81548160ff0219169083151502179055508173ffffffffffffffffffffffffffffffffffffffff168373ffffffffffffffffffffffffffffffffffffffff167f17307eab39ab6107e8899845ad3d59bd9653f200f220920489ca2b5937696c31836040516121459190612d0c565b60405180910390a3505050565b600073ffffffffffffffffffffffffffffffffffffffff168373ffffffffffffffffffffffffffffffffffffffff16036121c1576040517f08c379a00000000000000000000000000000000000000000000000000000000081526004016121b890614358565b60405180910390fd5b60006121cb6114b1565b905060006121d88461281a565b905060006121e58461281a565b905061220583876000858560405180602001604052806000815250612633565b600080600087815260200190815260200160002060008873ffffffffffffffffffffffffffffffffffffffff1673ffffffffffffffffffffffffffffffffffffffff1681526020019081526020016000205490508481101561229c576040517f08c379a0000000000000000000000000000000000000000000000000000000008152600401612293906143ea565b60405180910390fd5b84810360008088815260200190815260200160002060008973ffffffffffffffffffffffffffffffffffffffff1673ffffffffffffffffffffffffffffffffffffffff16815260200190815260200160002081905550600073ffffffffffffffffffffffffffffffffffffffff168773ffffffffffffffffffffffffffffffffffffffff168573ffffffffffffffffffffffffffffffffffffffff167fc3d58168c5ae7397731d063d5bbf3d657854427343f4c083240f7aacaa2d0f62898960405161236992919061449c565b60405180910390a461238f8488600086866040518060200160405280600081525061263b565b50505050505050565b600073ffffffffffffffffffffffffffffffffffffffff168473ffffffffffffffffffffffffffffffffffffffff1603612407576040517f08c379a00000000000000000000000000000000000000000000000000000000081526004016123fe906141a7565b60405180910390fd5b60006124116114b1565b9050600061241e8561281a565b9050600061242b8561281a565b905061243b838989858589612633565b600080600088815260200190815260200160002060008a73ffffffffffffffffffffffffffffffffffffffff1673ffffffffffffffffffffffffffffffffffffffff168152602001908152602001600020549050858110156124d2576040517f08c379a00000000000000000000000000000000000000000000000000000000081526004016124c990614239565b60405180910390fd5b85810360008089815260200190815260200160002060008b73ffffffffffffffffffffffffffffffffffffffff1673ffffffffffffffffffffffffffffffffffffffff168152602001908152602001600020819055508560008089815260200190815260200160002060008a73ffffffffffffffffffffffffffffffffffffffff1673ffffffffffffffffffffffffffffffffffffffff16815260200190815260200160002060008282546125879190614259565b925050819055508773ffffffffffffffffffffffffffffffffffffffff168973ffffffffffffffffffffffffffffffffffffffff168573ffffffffffffffffffffffffffffffffffffffff167fc3d58168c5ae7397731d063d5bbf3d657854427343f4c083240f7aacaa2d0f628a8a60405161260492919061449c565b60405180910390a461261a848a8a86868a61263b565b612628848a8a8a8a8a612894565b505050505050505050565b505050505050565b505050505050565b6126628473ffffffffffffffffffffffffffffffffffffffff16612a94565b15612812578373ffffffffffffffffffffffffffffffffffffffff1663bc197c8187878686866040518663ffffffff1660e01b81526004016126a89594939291906145dc565b6020604051808303816000875af19250505080156126e457506040513d601f19601f820116820180604052508101906126e19190614659565b60015b612789576126f0614693565b806308c379a00361274c57506127046146b5565b8061270f575061274e565b806040517f08c379a00000000000000000000000000000000000000000000000000000000081526004016127439190612dc0565b60405180910390fd5b505b6040517f08c379a0000000000000000000000000000000000000000000000000000000008152600401612780906147b7565b60405180910390fd5b63bc197c8160e01b7bffffffffffffffffffffffffffffffffffffffffffffffffffffffff1916817bffffffffffffffffffffffffffffffffffffffffffffffffffffffff191614612810576040517f08c379a000000000000000000000000000000000000000000000000000000000815260040161280790614849565b60405180910390fd5b505b505050505050565b60606000600167ffffffffffffffff81111561283957612838612e14565b5b6040519080825280602002602001820160405280156128675781602001602082028036833780820191505090505b509050828160008151811061287f5761287e613c75565b5b60200260200101818152505080915050919050565b6128b38473ffffffffffffffffffffffffffffffffffffffff16612a94565b15612a63578373ffffffffffffffffffffffffffffffffffffffff1663f23a6e6187878686866040518663ffffffff1660e01b81526004016128f9959493929190614869565b6020604051808303816000875af192505050801561293557506040513d601f19601f820116820180604052508101906129329190614659565b60015b6129da57612941614693565b806308c379a00361299d57506129556146b5565b80612960575061299f565b806040517f08c379a00000000000000000000000000000000000000000000000000000000081526004016129949190612dc0565b60405180910390fd5b505b6040517f08c379a00000000000000000000000000000000000000000000000000000000081526004016129d1906147b7565b60405180910390fd5b63f23a6e6160e01b7bffffffffffffffffffffffffffffffffffffffffffffffffffffffff1916817bffffffffffffffffffffffffffffffffffffffffffffffffffffffff191614612a61576040517f08c379a0000000000000000000000000000000000000000000000000000000008152600401612a5890614849565b60405180910390fd5b505b505050505050565b60008151905060006a636f6e736f6c652e6c6f679050602083016000808483855afa5050505050565b6000808273ffffffffffffffffffffffffffffffffffffffff163b119050919050565b828054612ac3906139dc565b90600052602060002090601f016020900481019282612ae55760008555612b2c565b82601f10612afe57805160ff1916838001178555612b2c565b82800160010185558215612b2c579182015b82811115612b2b578251825591602001919060010190612b10565b5b509050612b399190612b3d565b5090565b5b80821115612b56576000816000905550600101612b3e565b5090565b6000604051905090565b600080fd5b600080fd5b600073ffffffffffffffffffffffffffffffffffffffff82169050919050565b6000612b9982612b6e565b9050919050565b612ba981612b8e565b8114612bb457600080fd5b50565b600081359050612bc681612ba0565b92915050565b6000819050919050565b612bdf81612bcc565b8114612bea57600080fd5b50565b600081359050612bfc81612bd6565b92915050565b60008060408385031215612c1957612c18612b64565b5b6000612c2785828601612bb7565b9250506020612c3885828601612bed565b9150509250929050565b612c4b81612bcc565b82525050565b6000602082019050612c666000830184612c42565b92915050565b60007fffffffff0000000000000000000000000000000000000000000000000000000082169050919050565b612ca181612c6c565b8114612cac57600080fd5b50565b600081359050612cbe81612c98565b92915050565b600060208284031215612cda57612cd9612b64565b5b6000612ce884828501612caf565b91505092915050565b60008115159050919050565b612d0681612cf1565b82525050565b6000602082019050612d216000830184612cfd565b92915050565b600081519050919050565b600082825260208201905092915050565b60005b83811015612d61578082015181840152602081019050612d46565b83811115612d70576000848401525b50505050565b6000601f19601f8301169050919050565b6000612d9282612d27565b612d9c8185612d32565b9350612dac818560208601612d43565b612db581612d76565b840191505092915050565b60006020820190508181036000830152612dda8184612d87565b905092915050565b600060208284031215612df857612df7612b64565b5b6000612e0684828501612bed565b91505092915050565b600080fd5b7f4e487b7100000000000000000000000000000000000000000000000000000000600052604160045260246000fd5b612e4c82612d76565b810181811067ffffffffffffffff82111715612e6b57612e6a612e14565b5b80604052505050565b6000612e7e612b5a565b9050612e8a8282612e43565b919050565b600067ffffffffffffffff821115612eaa57612ea9612e14565b5b602082029050602081019050919050565b600080fd5b6000612ed3612ece84612e8f565b612e74565b90508083825260208201905060208402830185811115612ef657612ef5612ebb565b5b835b81811015612f1f5780612f0b8882612bed565b845260208401935050602081019050612ef8565b5050509392505050565b600082601f830112612f3e57612f3d612e0f565b5b8135612f4e848260208601612ec0565b91505092915050565b600080fd5b600067ffffffffffffffff821115612f7757612f76612e14565b5b612f8082612d76565b9050602081019050919050565b82818337600083830152505050565b6000612faf612faa84612f5c565b612e74565b905082815260208101848484011115612fcb57612fca612f57565b5b612fd6848285612f8d565b509392505050565b600082601f830112612ff357612ff2612e0f565b5b8135613003848260208601612f9c565b91505092915050565b600080600080600060a0868803121561302857613027612b64565b5b600061303688828901612bb7565b955050602061304788828901612bb7565b945050604086013567ffffffffffffffff81111561306857613067612b69565b5b61307488828901612f29565b935050606086013567ffffffffffffffff81111561309557613094612b69565b5b6130a188828901612f29565b925050608086013567ffffffffffffffff8111156130c2576130c1612b69565b5b6130ce88828901612fde565b9150509295509295909350565b600067ffffffffffffffff8211156130f6576130f5612e14565b5b602082029050602081019050919050565b600061311a613115846130db565b612e74565b9050808382526020820190506020840283018581111561313d5761313c612ebb565b5b835b8181101561316657806131528882612bb7565b84526020840193505060208101905061313f565b5050509392505050565b600082601f83011261318557613184612e0f565b5b8135613195848260208601613107565b91505092915050565b600080604083850312156131b5576131b4612b64565b5b600083013567ffffffffffffffff8111156131d3576131d2612b69565b5b6131df85828601613170565b925050602083013567ffffffffffffffff811115613200576131ff612b69565b5b61320c85828601612f29565b9150509250929050565b600081519050919050565b600082825260208201905092915050565b6000819050602082019050919050565b61324b81612bcc565b82525050565b600061325d8383613242565b60208301905092915050565b6000602082019050919050565b600061328182613216565b61328b8185613221565b935061329683613232565b8060005b838110156132c75781516132ae8882613251565b97506132b983613269565b92505060018101905061329a565b5085935050505092915050565b600060208201905081810360008301526132ee8184613276565b905092915050565b600080600080600060a0868803121561331257613311612b64565b5b600061332088828901612bb7565b955050602086013567ffffffffffffffff81111561334157613340612b69565b5b61334d88828901612f29565b945050604086013567ffffffffffffffff81111561336e5761336d612b69565b5b61337a88828901612f29565b935050606086013567ffffffffffffffff81111561339b5761339a612b69565b5b6133a788828901612f29565b925050608086013567ffffffffffffffff8111156133c8576133c7612b69565b5b6133d488828901612f29565b9150509295509295909350565b600067ffffffffffffffff82169050919050565b6133fe816133e1565b811461340957600080fd5b50565b60008135905061341b816133f5565b92915050565b60008060006060848603121561343a57613439612b64565b5b600061344886828701612bb7565b93505060206134598682870161340c565b925050604061346a86828701612bed565b9150509250925092565b60008060006060848603121561348d5761348c612b64565b5b600061349b86828701612bb7565b93505060206134ac86828701612bed565b92505060406134bd86828701612bed565b9150509250925092565b600080604083850312156134de576134dd612b64565b5b600083013567ffffffffffffffff8111156134fc576134fb612b69565b5b61350885828601612f29565b925050602083013567ffffffffffffffff81111561352957613528612b69565b5b61353585828601612f29565b9150509250929050565b6000819050919050565b600061356461355f61355a84612b6e565b61353f565b612b6e565b9050919050565b600061357682613549565b9050919050565b60006135888261356b565b9050919050565b6135988161357d565b82525050565b60006020820190506135b3600083018461358f565b92915050565b600067ffffffffffffffff8211156135d4576135d3612e14565b5b6135dd82612d76565b9050602081019050919050565b60006135fd6135f8846135b9565b612e74565b90508281526020810184848401111561361957613618612f57565b5b613624848285612f8d565b509392505050565b600082601f83011261364157613640612e0f565b5b81356136518482602086016135ea565b91505092915050565b6000806040838503121561367157613670612b64565b5b600061367f85828601612bed565b925050602083013567ffffffffffffffff8111156136a05761369f612b69565b5b6136ac8582860161362c565b9150509250929050565b6136bf81612b8e565b82525050565b60006020820190506136da60008301846136b6565b92915050565b6136e981612cf1565b81146136f457600080fd5b50565b600081359050613706816136e0565b92915050565b6000806040838503121561372357613722612b64565b5b600061373185828601612bb7565b9250506020613742858286016136f7565b9150509250929050565b6000806040838503121561376357613762612b64565b5b600061377185828601612bed565b925050602061378285828601612bed565b9150509250929050565b6000806000606084860312156137a5576137a4612b64565b5b60006137b386828701612bb7565b935050602084013567ffffffffffffffff8111156137d4576137d3612b69565b5b6137e086828701612f29565b925050604084013567ffffffffffffffff81111561380157613800612b69565b5b61380d86828701612f29565b9150509250925092565b6000806040838503121561382e5761382d612b64565b5b600061383c85828601612bb7565b925050602061384d85828601612bb7565b9150509250929050565b600080600080600060a0868803121561387357613872612b64565b5b600061388188828901612bb7565b955050602061389288828901612bb7565b94505060406138a388828901612bed565b93505060606138b488828901612bed565b925050608086013567ffffffffffffffff8111156138d5576138d4612b69565b5b6138e188828901612fde565b9150509295509295909350565b60006020828403121561390457613903612b64565b5b600061391284828501612bb7565b91505092915050565b7f455243313135353a2062616c616e636520717565727920666f7220746865207a60008201527f65726f2061646472657373000000000000000000000000000000000000000000602082015250565b6000613977602b83612d32565b91506139828261391b565b604082019050919050565b600060208201905081810360008301526139a68161396a565b9050919050565b7f4e487b7100000000000000000000000000000000000000000000000000000000600052602260045260246000fd5b600060028204905060018216806139f457607f821691505b602082108103613a0757613a066139ad565b5b50919050565b7f455243313135353a207472616e736665722063616c6c6572206973206e6f742060008201527f6f776e6572206e6f7220617070726f7665640000000000000000000000000000602082015250565b6000613a69603283612d32565b9150613a7482613a0d565b604082019050919050565b60006020820190508181036000830152613a9881613a5c565b9050919050565b7f616464726573732062616c616e63652073686f756c642062652067726561746560008201527f7220300000000000000000000000000000000000000000000000000000000000602082015250565b6000613afb602383612d32565b9150613b0682613a9f565b604082019050919050565b60006020820190508181036000830152613b2a81613aee565b9050919050565b600081905092915050565b50565b6000613b4c600083613b31565b9150613b5782613b3c565b600082019050919050565b6000613b6d82613b3f565b9150819050919050565b7f4661696c6564207769746864726177206d6f6e65790000000000000000000000600082015250565b6000613bad601583612d32565b9150613bb882613b77565b602082019050919050565b60006020820190508181036000830152613bdc81613ba0565b9050919050565b7f455243313135353a206163636f756e747320616e6420696473206c656e67746860008201527f206d69736d617463680000000000000000000000000000000000000000000000602082015250565b6000613c3f602983612d32565b9150613c4a82613be3565b604082019050919050565b60006020820190508181036000830152613c6e81613c32565b9050919050565b7f4e487b7100000000000000000000000000000000000000000000000000000000600052603260045260246000fd5b7f4e487b7100000000000000000000000000000000000000000000000000000000600052601160045260246000fd5b6000613cde82612bcc565b91507fffffffffffffffffffffffffffffffffffffffffffffffffffffffffffffffff8203613d1057613d0f613ca4565b5b600182019050919050565b7f4f776e61626c653a2063616c6c6572206973206e6f7420746865206f776e6572600082015250565b6000613d51602083612d32565b9150613d5c82613d1b565b602082019050919050565b60006020820190508181036000830152613d8081613d44565b9050919050565b7f616d6f756e742073686f756c6420626520657175616c20636f73740000000000600082015250565b6000613dbd601b83612d32565b9150613dc882613d87565b602082019050919050565b60006020820190508181036000830152613dec81613db0565b9050919050565b7f57726f6e67207465616d20706172616d65746572000000000000000000000000600082015250565b6000613e29601483612d32565b9150613e3482613df3565b602082019050919050565b60006020820190508181036000830152613e5881613e1c565b9050919050565b7f616d6f756e742073686f756c6420626520657175616c2074686520636f737400600082015250565b6000613e95601f83612d32565b9150613ea082613e5f565b602082019050919050565b60006020820190508181036000830152613ec481613e88565b9050919050565b6000819050919050565b6000613ef0613eeb613ee684613ecb565b61353f565b612bcc565b9050919050565b613f0081613ed5565b82525050565b6000606082019050613f1b60008301866136b6565b613f2860208301856136b6565b613f356040830184613ef7565b949350505050565b600081519050613f4c816136e0565b92915050565b600060208284031215613f6857613f67612b64565b5b6000613f7684828501613f3d565b91505092915050565b7f455243313135353a2063616c6c6572206973206e6f74206f776e6572206e6f7260008201527f20617070726f7665640000000000000000000000000000000000000000000000602082015250565b6000613fdb602983612d32565b9150613fe682613f7f565b604082019050919050565b6000602082019050818103600083015261400a81613fce565b9050919050565b7f4f776e61626c653a206e6577206f776e657220697320746865207a65726f206160008201527f6464726573730000000000000000000000000000000000000000000000000000602082015250565b600061406d602683612d32565b915061407882614011565b604082019050919050565b6000602082019050818103600083015261409c81614060565b9050919050565b7f455243313135353a2069647320616e6420616d6f756e7473206c656e6774682060008201527f6d69736d61746368000000000000000000000000000000000000000000000000602082015250565b60006140ff602883612d32565b915061410a826140a3565b604082019050919050565b6000602082019050818103600083015261412e816140f2565b9050919050565b7f455243313135353a207472616e7366657220746f20746865207a65726f20616460008201527f6472657373000000000000000000000000000000000000000000000000000000602082015250565b6000614191602583612d32565b915061419c82614135565b604082019050919050565b600060208201905081810360008301526141c081614184565b9050919050565b7f455243313135353a20696e73756666696369656e742062616c616e636520666f60008201527f72207472616e7366657200000000000000000000000000000000000000000000602082015250565b6000614223602a83612d32565b915061422e826141c7565b604082019050919050565b6000602082019050818103600083015261425281614216565b9050919050565b600061426482612bcc565b915061426f83612bcc565b9250827fffffffffffffffffffffffffffffffffffffffffffffffffffffffffffffffff038211156142a4576142a3613ca4565b5b828201905092915050565b600060408201905081810360008301526142c98185613276565b905081810360208301526142dd8184613276565b90509392505050565b7f455243313135353a206275726e2066726f6d20746865207a65726f206164647260008201527f6573730000000000000000000000000000000000000000000000000000000000602082015250565b6000614342602383612d32565b915061434d826142e6565b604082019050919050565b6000602082019050818103600083015261437181614335565b9050919050565b7f455243313135353a206275726e20616d6f756e7420657863656564732062616c60008201527f616e636500000000000000000000000000000000000000000000000000000000602082015250565b60006143d4602483612d32565b91506143df82614378565b604082019050919050565b60006020820190508181036000830152614403816143c7565b9050919050565b7f455243313135353a206d696e7420746f20746865207a65726f2061646472657360008201527f7300000000000000000000000000000000000000000000000000000000000000602082015250565b6000614466602183612d32565b91506144718261440a565b604082019050919050565b6000602082019050818103600083015261449581614459565b9050919050565b60006040820190506144b16000830185612c42565b6144be6020830184612c42565b9392505050565b600060408201905081810360008301526144df8185612d87565b90506144ee60208301846136b6565b9392505050565b7f455243313135353a2073657474696e6720617070726f76616c2073746174757360008201527f20666f722073656c660000000000000000000000000000000000000000000000602082015250565b6000614551602983612d32565b915061455c826144f5565b604082019050919050565b6000602082019050818103600083015261458081614544565b9050919050565b600081519050919050565b600082825260208201905092915050565b60006145ae82614587565b6145b88185614592565b93506145c8818560208601612d43565b6145d181612d76565b840191505092915050565b600060a0820190506145f160008301886136b6565b6145fe60208301876136b6565b81810360408301526146108186613276565b905081810360608301526146248185613276565b9050818103608083015261463881846145a3565b90509695505050505050565b60008151905061465381612c98565b92915050565b60006020828403121561466f5761466e612b64565b5b600061467d84828501614644565b91505092915050565b60008160e01c9050919050565b600060033d11156146b25760046000803e6146af600051614686565b90505b90565b600060443d10614742576146c7612b5a565b60043d036004823e80513d602482011167ffffffffffffffff821117156146ef575050614742565b808201805167ffffffffffffffff81111561470d5750505050614742565b80602083010160043d03850181111561472a575050505050614742565b61473982602001850186612e43565b82955050505050505b90565b7f455243313135353a207472616e7366657220746f206e6f6e204552433131353560008201527f526563656976657220696d706c656d656e746572000000000000000000000000602082015250565b60006147a1603483612d32565b91506147ac82614745565b604082019050919050565b600060208201905081810360008301526147d081614794565b9050919050565b7f455243313135353a204552433131353552656365697665722072656a6563746560008201527f6420746f6b656e73000000000000000000000000000000000000000000000000602082015250565b6000614833602883612d32565b915061483e826147d7565b604082019050919050565b6000602082019050818103600083015261486281614826565b9050919050565b600060a08201905061487e60008301886136b6565b61488b60208301876136b6565b6148986040830186612c42565b6148a56060830185612c42565b81810360808301526148b781846145a3565b9050969550505050505056fea26469706673582212203b6e26b183b84ced2be5a7aad663770165064c4fa1a6011b9bbe595b9e9e286064736f6c634300080e0033",
  "linkReferences": {},
  "deployedLinkReferences": {}
}