{
  "_format": "hh-sol-artifact-1",
  "contractName": "ArmenianLeagueTickets",
  "sourceName": "contracts/ArmenianLeagueTickets.sol",
  "abi": [
    {
      "inputs": [
        {
          "internalType": "contract MyUSDToken",
          "name": "_mysUSDToken",
          "type": "address"
        }
      ],
      "stateMutability": "nonpayable",
      "type": "constructor"
    },
    {
      "anonymous": false,
      "inputs": [
        {
          "indexed": true,
          "internalType": "address",
          "name": "account",
          "type": "address"
        },
        {
          "indexed": true,
          "internalType": "address",
          "name": "operator",
          "type": "address"
        },
        {
          "indexed": false,
          "internalType": "bool",
          "name": "approved",
          "type": "bool"
        }
      ],
      "name": "ApprovalForAll",
      "type": "event"
    },
    {
      "anonymous": false,
      "inputs": [
        {
          "indexed": true,
          "internalType": "address",
          "name": "previousOwner",
          "type": "address"
        },
        {
          "indexed": true,
          "internalType": "address",
          "name": "newOwner",
          "type": "address"
        }
      ],
      "name": "OwnershipTransferred",
      "type": "event"
    },
    {
      "anonymous": false,
      "inputs": [
        {
          "indexed": false,
          "internalType": "address",
          "name": "account",
          "type": "address"
        },
        {
          "indexed": false,
          "internalType": "address",
          "name": "token",
          "type": "address"
        },
        {
          "indexed": false,
          "internalType": "uint256",
          "name": "amount",
          "type": "uint256"
        },
        {
          "indexed": false,
          "internalType": "uint256",
          "name": "rate",
          "type": "uint256"
        }
      ],
      "name": "TokenPurchased",
      "type": "event"
    },
    {
      "anonymous": false,
      "inputs": [
        {
          "indexed": true,
          "internalType": "address",
          "name": "operator",
          "type": "address"
        },
        {
          "indexed": true,
          "internalType": "address",
          "name": "from",
          "type": "address"
        },
        {
          "indexed": true,
          "internalType": "address",
          "name": "to",
          "type": "address"
        },
        {
          "indexed": false,
          "internalType": "uint256[]",
          "name": "ids",
          "type": "uint256[]"
        },
        {
          "indexed": false,
          "internalType": "uint256[]",
          "name": "values",
          "type": "uint256[]"
        }
      ],
      "name": "TransferBatch",
      "type": "event"
    },
    {
      "anonymous": false,
      "inputs": [
        {
          "indexed": true,
          "internalType": "address",
          "name": "operator",
          "type": "address"
        },
        {
          "indexed": true,
          "internalType": "address",
          "name": "from",
          "type": "address"
        },
        {
          "indexed": true,
          "internalType": "address",
          "name": "to",
          "type": "address"
        },
        {
          "indexed": false,
          "internalType": "uint256",
          "name": "id",
          "type": "uint256"
        },
        {
          "indexed": false,
          "internalType": "uint256",
          "name": "value",
          "type": "uint256"
        }
      ],
      "name": "TransferSingle",
      "type": "event"
    },
    {
      "anonymous": false,
      "inputs": [
        {
          "indexed": false,
          "internalType": "string",
          "name": "value",
          "type": "string"
        },
        {
          "indexed": true,
          "internalType": "uint256",
          "name": "id",
          "type": "uint256"
        }
      ],
      "name": "URI",
      "type": "event"
    },
    {
      "inputs": [],
      "name": "USDCCost",
      "outputs": [
        {
          "internalType": "uint256",
          "name": "",
          "type": "uint256"
        }
      ],
      "stateMutability": "view",
      "type": "function"
    },
    {
      "inputs": [
        {
          "internalType": "address",
          "name": "account",
          "type": "address"
        },
        {
          "internalType": "uint256",
          "name": "id",
          "type": "uint256"
        }
      ],
      "name": "balanceOf",
      "outputs": [
        {
          "internalType": "uint256",
          "name": "",
          "type": "uint256"
        }
      ],
      "stateMutability": "view",
      "type": "function"
    },
    {
      "inputs": [
        {
          "internalType": "address[]",
          "name": "accounts",
          "type": "address[]"
        },
        {
          "internalType": "uint256[]",
          "name": "ids",
          "type": "uint256[]"
        }
      ],
      "name": "balanceOfBatch",
      "outputs": [
        {
          "internalType": "uint256[]",
          "name": "",
          "type": "uint256[]"
        }
      ],
      "stateMutability": "view",
      "type": "function"
    },
    {
      "inputs": [
        {
          "internalType": "uint256",
          "name": "_id",
          "type": "uint256"
        },
        {
          "internalType": "uint256",
          "name": "_amount",
          "type": "uint256"
        }
      ],
      "name": "burn",
      "outputs": [],
      "stateMutability": "nonpayable",
      "type": "function"
    },
    {
      "inputs": [
        {
          "internalType": "uint256[]",
          "name": "_ids",
          "type": "uint256[]"
        },
        {
          "internalType": "uint256[]",
          "name": "_amounts",
          "type": "uint256[]"
        }
      ],
      "name": "burnBatch",
      "outputs": [],
      "stateMutability": "nonpayable",
      "type": "function"
    },
    {
      "inputs": [
        {
          "internalType": "address",
          "name": "_from",
          "type": "address"
        },
        {
          "internalType": "uint256[]",
          "name": "_burnIds",
          "type": "uint256[]"
        },
        {
          "internalType": "uint256[]",
          "name": "_burnAmounts",
          "type": "uint256[]"
        },
        {
          "internalType": "uint256[]",
          "name": "_mintIds",
          "type": "uint256[]"
        },
        {
          "internalType": "uint256[]",
          "name": "_mintAmounts",
          "type": "uint256[]"
        }
      ],
      "name": "burnForMint",
      "outputs": [],
      "stateMutability": "nonpayable",
      "type": "function"
    },
    {
      "inputs": [],
      "name": "cost",
      "outputs": [
        {
          "internalType": "uint256",
          "name": "",
          "type": "uint256"
        }
      ],
      "stateMutability": "view",
      "type": "function"
    },
    {
      "inputs": [
        {
          "internalType": "address",
          "name": "account",
          "type": "address"
        },
        {
          "internalType": "address",
          "name": "operator",
          "type": "address"
        }
      ],
      "name": "isApprovedForAll",
      "outputs": [
        {
          "internalType": "bool",
          "name": "",
          "type": "bool"
        }
      ],
      "stateMutability": "view",
      "type": "function"
    },
    {
      "inputs": [
        {
          "internalType": "address",
          "name": "_to",
          "type": "address"
        },
        {
          "internalType": "uint256",
          "name": "_id",
          "type": "uint256"
        },
        {
          "internalType": "uint256",
          "name": "_amount",
          "type": "uint256"
        }
      ],
      "name": "mint",
      "outputs": [],
      "stateMutability": "payable",
      "type": "function"
    },
    {
      "inputs": [
        {
          "internalType": "address",
          "name": "_to",
          "type": "address"
        },
        {
          "internalType": "uint256[]",
          "name": "_ids",
          "type": "uint256[]"
        },
        {
          "internalType": "uint256[]",
          "name": "_amounts",
          "type": "uint256[]"
        }
      ],
      "name": "mintBatch",
      "outputs": [],
      "stateMutability": "nonpayable",
      "type": "function"
    },
    {
      "inputs": [
        {
          "internalType": "address",
          "name": "_to",
          "type": "address"
        },
        {
          "internalType": "uint256",
          "name": "_id",
          "type": "uint256"
        },
        {
          "internalType": "uint256",
          "name": "_amount",
          "type": "uint256"
        }
      ],
      "name": "mintByUSDC",
      "outputs": [],
      "stateMutability": "payable",
      "type": "function"
    },
    {
      "inputs": [],
      "name": "mysUSDToken",
      "outputs": [
        {
          "internalType": "contract MyUSDToken",
          "name": "",
          "type": "address"
        }
      ],
      "stateMutability": "view",
      "type": "function"
    },
    {
      "inputs": [],
      "name": "name",
      "outputs": [
        {
          "internalType": "string",
          "name": "",
          "type": "string"
        }
      ],
      "stateMutability": "view",
      "type": "function"
    },
    {
      "inputs": [],
      "name": "owner",
      "outputs": [
        {
          "internalType": "address",
          "name": "",
          "type": "address"
        }
      ],
      "stateMutability": "view",
      "type": "function"
    },
    {
      "inputs": [],
      "name": "rate",
      "outputs": [
        {
          "internalType": "uint256",
          "name": "",
          "type": "uint256"
        }
      ],
      "stateMutability": "view",
      "type": "function"
    },
    {
      "inputs": [],
      "name": "renounceOwnership",
      "outputs": [],
      "stateMutability": "nonpayable",
      "type": "function"
    },
    {
      "inputs": [
        {
          "internalType": "address",
          "name": "from",
          "type": "address"
        },
        {
          "internalType": "address",
          "name": "to",
          "type": "address"
        },
        {
          "internalType": "uint256[]",
          "name": "ids",
          "type": "uint256[]"
        },
        {
          "internalType": "uint256[]",
          "name": "amounts",
          "type": "uint256[]"
        },
        {
          "internalType": "bytes",
          "name": "data",
          "type": "bytes"
        }
      ],
      "name": "safeBatchTransferFrom",
      "outputs": [],
      "stateMutability": "nonpayable",
      "type": "function"
    },
    {
      "inputs": [
        {
          "internalType": "address",
          "name": "from",
          "type": "address"
        },
        {
          "internalType": "address",
          "name": "to",
          "type": "address"
        },
        {
          "internalType": "uint256",
          "name": "id",
          "type": "uint256"
        },
        {
          "internalType": "uint256",
          "name": "amount",
          "type": "uint256"
        },
        {
          "internalType": "bytes",
          "name": "data",
          "type": "bytes"
        }
      ],
      "name": "safeTransferFrom",
      "outputs": [],
      "stateMutability": "nonpayable",
      "type": "function"
    },
    {
      "inputs": [
        {
          "internalType": "address",
          "name": "operator",
          "type": "address"
        },
        {
          "internalType": "bool",
          "name": "approved",
          "type": "bool"
        }
      ],
      "name": "setApprovalForAll",
      "outputs": [],
      "stateMutability": "nonpayable",
      "type": "function"
    },
    {
      "inputs": [
        {
          "internalType": "uint256",
          "name": "_id",
          "type": "uint256"
        },
        {
          "internalType": "string",
          "name": "_uri",
          "type": "string"
        }
      ],
      "name": "setURI",
      "outputs": [],
      "stateMutability": "nonpayable",
      "type": "function"
    },
    {
      "inputs": [
        {
          "internalType": "bytes4",
          "name": "interfaceId",
          "type": "bytes4"
        }
      ],
      "name": "supportsInterface",
      "outputs": [
        {
          "internalType": "bool",
          "name": "",
          "type": "bool"
        }
      ],
      "stateMutability": "view",
      "type": "function"
    },
    {
      "inputs": [],
      "name": "symbol",
      "outputs": [
        {
          "internalType": "string",
          "name": "",
          "type": "string"
        }
      ],
      "stateMutability": "view",
      "type": "function"
    },
    {
      "inputs": [
        {
          "internalType": "uint256",
          "name": "",
          "type": "uint256"
        }
      ],
      "name": "tokenURI",
      "outputs": [
        {
          "internalType": "string",
          "name": "",
          "type": "string"
        }
      ],
      "stateMutability": "view",
      "type": "function"
    },
    {
      "inputs": [
        {
          "internalType": "address",
          "name": "newOwner",
          "type": "address"
        }
      ],
      "name": "transferOwnership",
      "outputs": [],
      "stateMutability": "nonpayable",
      "type": "function"
    },
    {
      "inputs": [
        {
          "internalType": "uint256",
          "name": "_id",
          "type": "uint256"
        }
      ],
      "name": "uri",
      "outputs": [
        {
          "internalType": "string",
          "name": "",
          "type": "string"
        }
      ],
      "stateMutability": "view",
      "type": "function"
    },
    {
      "inputs": [],
      "name": "withdraw",
      "outputs": [],
      "stateMutability": "nonpayable",
      "type": "function"
    }
  ],
  "bytecode": "0x6080604052662386f26fc100006006556601d8efef48800060075560646008553480156200002c57600080fd5b5060405162004c4438038062004c44833981810160405281019062000052919062000329565b6040518060200160405280600081525062000073816200017860201b60201c565b5062000094620000886200019460201b60201c565b6200019c60201b60201c565b6040518060400160405280601581526020017f41726d656e69616e5072656d6965724c6561677565000000000000000000000081525060049080519060200190620000e192919062000262565b506040518060400160405280601581526020017f41726d656e69616e5072656d6965724c65616775650000000000000000000000815250600590805190602001906200012f92919062000262565b5080600960006101000a81548173ffffffffffffffffffffffffffffffffffffffff021916908373ffffffffffffffffffffffffffffffffffffffff160217905550506200041c565b80600290805190602001906200019092919062000262565b5050565b600033905090565b6000600360009054906101000a900473ffffffffffffffffffffffffffffffffffffffff16905081600360006101000a81548173ffffffffffffffffffffffffffffffffffffffff021916908373ffffffffffffffffffffffffffffffffffffffff1602179055508173ffffffffffffffffffffffffffffffffffffffff168173ffffffffffffffffffffffffffffffffffffffff167f8be0079c531659141344cd1fd0a4f28419497f9722a3daafe3b4186f6b6457e060405160405180910390a35050565b82805462000270906200039d565b90600052602060002090601f016020900481019282620002945760008555620002e0565b82601f10620002af57805160ff1916838001178555620002e0565b82800160010185558215620002e0579182015b82811115620002df578251825591602001919060010190620002c2565b5b509050620002ef9190620002f3565b5090565b5b808211156200030e576000816000905550600101620002f4565b5090565b600081519050620003238162000402565b92915050565b6000602082840312156200033c57600080fd5b60006200034c8482850162000312565b91505092915050565b600062000362826200037d565b9050919050565b6000620003768262000355565b9050919050565b600073ffffffffffffffffffffffffffffffffffffffff82169050919050565b60006002820490506001821680620003b657607f821691505b60208210811415620003cd57620003cc620003d3565b5b50919050565b7f4e487b7100000000000000000000000000000000000000000000000000000000600052602260045260246000fd5b6200040d8162000369565b81146200041957600080fd5b50565b614818806200042c6000396000f3fe6080604052600436106101805760003560e01c806383ca4b6f116100d1578063b390c0ab1161008a578063e49e811e11610064578063e49e811e1461053d578063e985e9c514610568578063f242432a146105a5578063f2fde38b146105ce57610180565b8063b390c0ab146104ae578063c87b56dd146104d7578063d81d0a151461051457610180565b806383ca4b6f146103b257806384e515c1146103db578063862440e2146104065780638da5cb5b1461042f57806395d89b411461045a578063a22cb4651461048557610180565b80632c4e722e1161013e5780634e1273f4116101185780634e1273f414610319578063510f410414610356578063715018a61461037f57806383145fea1461039657610180565b80632c4e722e146102ae5780632eb2c2d6146102d95780633ccfd60b1461030257610180565b8062fdd58e1461018557806301ffc9a7146101c257806306fdde03146101ff5780630e89341c1461022a57806313faede614610267578063156e29f614610292575b600080fd5b34801561019157600080fd5b506101ac60048036038101906101a791906131f5565b6105f7565b6040516101b99190613cdd565b60405180910390f35b3480156101ce57600080fd5b506101e960048036038101906101e49190613358565b6106c0565b6040516101f69190613a05565b60405180910390f35b34801561020b57600080fd5b506102146107a2565b6040516102219190613a3b565b60405180910390f35b34801561023657600080fd5b50610251600480360381019061024c91906133aa565b610830565b60405161025e9190613a3b565b60405180910390f35b34801561027357600080fd5b5061027c6108d5565b6040516102899190613cdd565b60405180910390f35b6102ac60048036038101906102a79190613231565b6108db565b005b3480156102ba57600080fd5b506102c3610995565b6040516102d09190613cdd565b60405180910390f35b3480156102e557600080fd5b5061030060048036038101906102fb9190612f15565b61099b565b005b34801561030e57600080fd5b50610317610a3c565b005b34801561032557600080fd5b50610340600480360381019061033b9190613280565b610b35565b60405161034d91906139ac565b60405180910390f35b34801561036257600080fd5b5061037d600480360381019061037891906130e2565b610ce6565b005b34801561038b57600080fd5b50610394610d8f565b005b6103b060048036038101906103ab9190613231565b610e17565b005b3480156103be57600080fd5b506103d960048036038101906103d491906132ec565b610f45565b005b3480156103e757600080fd5b506103f0610f54565b6040516103fd9190613a20565b60405180910390f35b34801561041257600080fd5b5061042d600480360381019061042891906133d3565b610f7a565b005b34801561043b57600080fd5b5061044461105a565b604051610451919061388a565b60405180910390f35b34801561046657600080fd5b5061046f611084565b60405161047c9190613a3b565b60405180910390f35b34801561049157600080fd5b506104ac60048036038101906104a791906131b9565b611112565b005b3480156104ba57600080fd5b506104d560048036038101906104d09190613427565b611128565b005b3480156104e357600080fd5b506104fe60048036038101906104f991906133aa565b611137565b60405161050b9190613a3b565b60405180910390f35b34801561052057600080fd5b5061053b60048036038101906105369190613063565b6111d7565b005b34801561054957600080fd5b50610552611273565b60405161055f9190613cdd565b60405180910390f35b34801561057457600080fd5b5061058f600480360381019061058a9190612ed9565b611279565b60405161059c9190613a05565b60405180910390f35b3480156105b157600080fd5b506105cc60048036038101906105c79190612fd4565b61130d565b005b3480156105da57600080fd5b506105f560048036038101906105f09190612eb0565b6113ae565b005b60008073ffffffffffffffffffffffffffffffffffffffff168373ffffffffffffffffffffffffffffffffffffffff161415610668576040517f08c379a000000000000000000000000000000000000000000000000000000000815260040161065f90613a9d565b60405180910390fd5b60008083815260200190815260200160002060008473ffffffffffffffffffffffffffffffffffffffff1673ffffffffffffffffffffffffffffffffffffffff16815260200190815260200160002054905092915050565b60007fd9b67a26000000000000000000000000000000000000000000000000000000007bffffffffffffffffffffffffffffffffffffffffffffffffffffffff1916827bffffffffffffffffffffffffffffffffffffffffffffffffffffffff1916148061078b57507f0e89341c000000000000000000000000000000000000000000000000000000007bffffffffffffffffffffffffffffffffffffffffffffffffffffffff1916827bffffffffffffffffffffffffffffffffffffffffffffffffffffffff1916145b8061079b575061079a826114a6565b5b9050919050565b600480546107af90614006565b80601f01602080910402602001604051908101604052809291908181526020018280546107db90614006565b80156108285780601f106107fd57610100808354040283529160200191610828565b820191906000526020600020905b81548152906001019060200180831161080b57829003601f168201915b505050505081565b6060600a6000838152602001908152602001600020805461085090614006565b80601f016020809104026020016040519081016040528092919081815260200182805461087c90614006565b80156108c95780601f1061089e576101008083540402835291602001916108c9565b820191906000526020600020905b8154815290600101906020018083116108ac57829003601f168201915b50505050509050919050565b60065481565b600654341461091f576040517f08c379a000000000000000000000000000000000000000000000000000000000815260040161091690613b1d565b60405180910390fd5b600082108061092e5750600982115b15610975576000610974576040517f08c379a000000000000000000000000000000000000000000000000000000000815260040161096b90613bfd565b60405180910390fd5b5b61099083838360405180602001604052806000815250611510565b505050565b60085481565b6109a36116c1565b73ffffffffffffffffffffffffffffffffffffffff168573ffffffffffffffffffffffffffffffffffffffff1614806109e957506109e8856109e36116c1565b611279565b5b610a28576040517f08c379a0000000000000000000000000000000000000000000000000000000008152600401610a1f90613b9d565b60405180910390fd5b610a3585858585856116c9565b5050505050565b60004711610a7f576040517f08c379a0000000000000000000000000000000000000000000000000000000008152600401610a7690613c7d565b60405180910390fd5b6000610a8961105a565b73ffffffffffffffffffffffffffffffffffffffff1647604051610aac90613875565b60006040518083038185875af1925050503d8060008114610ae9576040519150601f19603f3d011682016040523d82523d6000602084013e610aee565b606091505b5050905080610b32576040517f08c379a0000000000000000000000000000000000000000000000000000000008152600401610b2990613add565b60405180910390fd5b50565b60608151835114610b7b576040517f08c379a0000000000000000000000000000000000000000000000000000000008152600401610b7290613c5d565b60405180910390fd5b6000835167ffffffffffffffff811115610bbe577f4e487b7100000000000000000000000000000000000000000000000000000000600052604160045260246000fd5b604051908082528060200260200182016040528015610bec5781602001602082028036833780820191505090505b50905060005b8451811015610cdb57610c85858281518110610c37577f4e487b7100000000000000000000000000000000000000000000000000000000600052603260045260246000fd5b6020026020010151858381518110610c78577f4e487b7100000000000000000000000000000000000000000000000000000000600052603260045260246000fd5b60200260200101516105f7565b828281518110610cbe577f4e487b7100000000000000000000000000000000000000000000000000000000600052603260045260246000fd5b60200260200101818152505080610cd490614069565b9050610bf2565b508091505092915050565b610cee6116c1565b73ffffffffffffffffffffffffffffffffffffffff16610d0c61105a565b73ffffffffffffffffffffffffffffffffffffffff1614610d62576040517f08c379a0000000000000000000000000000000000000000000000000000000008152600401610d5990613c1d565b60405180910390fd5b610d6d858585611a37565b610d8885838360405180602001604052806000815250611d52565b5050505050565b610d976116c1565b73ffffffffffffffffffffffffffffffffffffffff16610db561105a565b73ffffffffffffffffffffffffffffffffffffffff1614610e0b576040517f08c379a0000000000000000000000000000000000000000000000000000000008152600401610e0290613c1d565b60405180910390fd5b610e156000611fcb565b565b6007543414610e5b576040517f08c379a0000000000000000000000000000000000000000000000000000000008152600401610e5290613b5d565b60405180910390fd5b6000821080610e6a5750600982115b15610eb1576000610eb0576040517f08c379a0000000000000000000000000000000000000000000000000000000008152600401610ea790613bfd565b60405180910390fd5b5b600060085434610ec19190613ed2565b90507f8daf503382665d950e449b86172be5222275c90f4ddf69c29fdaa8237a562a6d33600960009054906101000a900473ffffffffffffffffffffffffffffffffffffffff1683600854604051610f1c949392919061390d565b60405180910390a1610f3f84848460405180602001604052806000815250611510565b50505050565b610f50338383611a37565b5050565b600960009054906101000a900473ffffffffffffffffffffffffffffffffffffffff1681565b610f826116c1565b73ffffffffffffffffffffffffffffffffffffffff16610fa061105a565b73ffffffffffffffffffffffffffffffffffffffff1614610ff6576040517f08c379a0000000000000000000000000000000000000000000000000000000008152600401610fed90613c1d565b60405180910390fd5b80600a6000848152602001908152602001600020908051906020019061101d929190612ba8565b50817f6bb7ff708619ba0610cba295a58592e0451dee2622938c8755667688daf3529b8260405161104e9190613a3b565b60405180910390a25050565b6000600360009054906101000a900473ffffffffffffffffffffffffffffffffffffffff16905090565b6005805461109190614006565b80601f01602080910402602001604051908101604052809291908181526020018280546110bd90614006565b801561110a5780601f106110df5761010080835404028352916020019161110a565b820191906000526020600020905b8154815290600101906020018083116110ed57829003601f168201915b505050505081565b61112461111d6116c1565b8383612091565b5050565b6111333383836121fe565b5050565b600a602052806000526040600020600091509050805461115690614006565b80601f016020809104026020016040519081016040528092919081815260200182805461118290614006565b80156111cf5780601f106111a4576101008083540402835291602001916111cf565b820191906000526020600020905b8154815290600101906020018083116111b257829003601f168201915b505050505081565b6111df6116c1565b73ffffffffffffffffffffffffffffffffffffffff166111fd61105a565b73ffffffffffffffffffffffffffffffffffffffff1614611253576040517f08c379a000000000000000000000000000000000000000000000000000000000815260040161124a90613c1d565b60405180910390fd5b61126e83838360405180602001604052806000815250611d52565b505050565b60075481565b6000600160008473ffffffffffffffffffffffffffffffffffffffff1673ffffffffffffffffffffffffffffffffffffffff16815260200190815260200160002060008373ffffffffffffffffffffffffffffffffffffffff1673ffffffffffffffffffffffffffffffffffffffff16815260200190815260200160002060009054906101000a900460ff16905092915050565b6113156116c1565b73ffffffffffffffffffffffffffffffffffffffff168573ffffffffffffffffffffffffffffffffffffffff16148061135b575061135a856113556116c1565b611279565b5b61139a576040517f08c379a000000000000000000000000000000000000000000000000000000000815260040161139190613b3d565b60405180910390fd5b6113a78585858585612445565b5050505050565b6113b66116c1565b73ffffffffffffffffffffffffffffffffffffffff166113d461105a565b73ffffffffffffffffffffffffffffffffffffffff161461142a576040517f08c379a000000000000000000000000000000000000000000000000000000000815260040161142190613c1d565b60405180910390fd5b600073ffffffffffffffffffffffffffffffffffffffff168173ffffffffffffffffffffffffffffffffffffffff16141561149a576040517f08c379a000000000000000000000000000000000000000000000000000000000815260040161149190613abd565b60405180910390fd5b6114a381611fcb565b50565b60007f01ffc9a7000000000000000000000000000000000000000000000000000000007bffffffffffffffffffffffffffffffffffffffffffffffffffffffff1916827bffffffffffffffffffffffffffffffffffffffffffffffffffffffff1916149050919050565b600073ffffffffffffffffffffffffffffffffffffffff168473ffffffffffffffffffffffffffffffffffffffff161415611580576040517f08c379a000000000000000000000000000000000000000000000000000000000815260040161157790613cbd565b60405180910390fd5b600061158a6116c1565b90506000611597856126e1565b905060006115a4856126e1565b90506115b5836000898585896127a7565b8460008088815260200190815260200160002060008973ffffffffffffffffffffffffffffffffffffffff1673ffffffffffffffffffffffffffffffffffffffff16815260200190815260200160002060008282546116149190613e7c565b925050819055508673ffffffffffffffffffffffffffffffffffffffff16600073ffffffffffffffffffffffffffffffffffffffff168473ffffffffffffffffffffffffffffffffffffffff167fc3d58168c5ae7397731d063d5bbf3d657854427343f4c083240f7aacaa2d0f628989604051611692929190613cf8565b60405180910390a46116a9836000898585896127af565b6116b8836000898989896127b7565b50505050505050565b600033905090565b815183511461170d576040517f08c379a000000000000000000000000000000000000000000000000000000000815260040161170490613c9d565b60405180910390fd5b600073ffffffffffffffffffffffffffffffffffffffff168473ffffffffffffffffffffffffffffffffffffffff16141561177d576040517f08c379a000000000000000000000000000000000000000000000000000000000815260040161177490613b7d565b60405180910390fd5b60006117876116c1565b90506117978187878787876127a7565b60005b84518110156119945760008582815181106117de577f4e487b7100000000000000000000000000000000000000000000000000000000600052603260045260246000fd5b602002602001015190506000858381518110611823577f4e487b7100000000000000000000000000000000000000000000000000000000600052603260045260246000fd5b60200260200101519050600080600084815260200190815260200160002060008b73ffffffffffffffffffffffffffffffffffffffff1673ffffffffffffffffffffffffffffffffffffffff168152602001908152602001600020549050818110156118c4576040517f08c379a00000000000000000000000000000000000000000000000000000000081526004016118bb90613bdd565b60405180910390fd5b81810360008085815260200190815260200160002060008c73ffffffffffffffffffffffffffffffffffffffff1673ffffffffffffffffffffffffffffffffffffffff168152602001908152602001600020819055508160008085815260200190815260200160002060008b73ffffffffffffffffffffffffffffffffffffffff1673ffffffffffffffffffffffffffffffffffffffff16815260200190815260200160002060008282546119799190613e7c565b925050819055505050508061198d90614069565b905061179a565b508473ffffffffffffffffffffffffffffffffffffffff168673ffffffffffffffffffffffffffffffffffffffff168273ffffffffffffffffffffffffffffffffffffffff167f4a39dc06d4c0dbc64b70af90fd698a233a518aa5d07e595d983b8c0526c8f7fb8787604051611a0b9291906139ce565b60405180910390a4611a218187878787876127af565b611a2f81878787878761299e565b505050505050565b600073ffffffffffffffffffffffffffffffffffffffff168373ffffffffffffffffffffffffffffffffffffffff161415611aa7576040517f08c379a0000000000000000000000000000000000000000000000000000000008152600401611a9e90613bbd565b60405180910390fd5b8051825114611aeb576040517f08c379a0000000000000000000000000000000000000000000000000000000008152600401611ae290613c9d565b60405180910390fd5b6000611af56116c1565b9050611b15818560008686604051806020016040528060008152506127a7565b60005b8351811015611cae576000848281518110611b5c577f4e487b7100000000000000000000000000000000000000000000000000000000600052603260045260246000fd5b602002602001015190506000848381518110611ba1577f4e487b7100000000000000000000000000000000000000000000000000000000600052603260045260246000fd5b60200260200101519050600080600084815260200190815260200160002060008973ffffffffffffffffffffffffffffffffffffffff1673ffffffffffffffffffffffffffffffffffffffff16815260200190815260200160002054905081811015611c42576040517f08c379a0000000000000000000000000000000000000000000000000000000008152600401611c3990613afd565b60405180910390fd5b81810360008085815260200190815260200160002060008a73ffffffffffffffffffffffffffffffffffffffff1673ffffffffffffffffffffffffffffffffffffffff168152602001908152602001600020819055505050508080611ca690614069565b915050611b18565b50600073ffffffffffffffffffffffffffffffffffffffff168473ffffffffffffffffffffffffffffffffffffffff168273ffffffffffffffffffffffffffffffffffffffff167f4a39dc06d4c0dbc64b70af90fd698a233a518aa5d07e595d983b8c0526c8f7fb8686604051611d269291906139ce565b60405180910390a4611d4c818560008686604051806020016040528060008152506127af565b50505050565b600073ffffffffffffffffffffffffffffffffffffffff168473ffffffffffffffffffffffffffffffffffffffff161415611dc2576040517f08c379a0000000000000000000000000000000000000000000000000000000008152600401611db990613cbd565b60405180910390fd5b8151835114611e06576040517f08c379a0000000000000000000000000000000000000000000000000000000008152600401611dfd90613c9d565b60405180910390fd5b6000611e106116c1565b9050611e21816000878787876127a7565b60005b8451811015611f2657838181518110611e66577f4e487b7100000000000000000000000000000000000000000000000000000000600052603260045260246000fd5b6020026020010151600080878481518110611eaa577f4e487b7100000000000000000000000000000000000000000000000000000000600052603260045260246000fd5b6020026020010151815260200190815260200160002060008873ffffffffffffffffffffffffffffffffffffffff1673ffffffffffffffffffffffffffffffffffffffff1681526020019081526020016000206000828254611f0c9190613e7c565b925050819055508080611f1e90614069565b915050611e24565b508473ffffffffffffffffffffffffffffffffffffffff16600073ffffffffffffffffffffffffffffffffffffffff168273ffffffffffffffffffffffffffffffffffffffff167f4a39dc06d4c0dbc64b70af90fd698a233a518aa5d07e595d983b8c0526c8f7fb8787604051611f9e9291906139ce565b60405180910390a4611fb5816000878787876127af565b611fc48160008787878761299e565b5050505050565b6000600360009054906101000a900473ffffffffffffffffffffffffffffffffffffffff16905081600360006101000a81548173ffffffffffffffffffffffffffffffffffffffff021916908373ffffffffffffffffffffffffffffffffffffffff1602179055508173ffffffffffffffffffffffffffffffffffffffff168173ffffffffffffffffffffffffffffffffffffffff167f8be0079c531659141344cd1fd0a4f28419497f9722a3daafe3b4186f6b6457e060405160405180910390a35050565b8173ffffffffffffffffffffffffffffffffffffffff168373ffffffffffffffffffffffffffffffffffffffff161415612100576040517f08c379a00000000000000000000000000000000000000000000000000000000081526004016120f790613c3d565b60405180910390fd5b80600160008573ffffffffffffffffffffffffffffffffffffffff1673ffffffffffffffffffffffffffffffffffffffff16815260200190815260200160002060008473ffffffffffffffffffffffffffffffffffffffff1673ffffffffffffffffffffffffffffffffffffffff16815260200190815260200160002060006101000a81548160ff0219169083151502179055508173ffffffffffffffffffffffffffffffffffffffff168373ffffffffffffffffffffffffffffffffffffffff167f17307eab39ab6107e8899845ad3d59bd9653f200f220920489ca2b5937696c31836040516121f19190613a05565b60405180910390a3505050565b600073ffffffffffffffffffffffffffffffffffffffff168373ffffffffffffffffffffffffffffffffffffffff16141561226e576040517f08c379a000000000000000000000000000000000000000000000000000000000815260040161226590613bbd565b60405180910390fd5b60006122786116c1565b90506000612285846126e1565b90506000612292846126e1565b90506122b2838760008585604051806020016040528060008152506127a7565b600080600087815260200190815260200160002060008873ffffffffffffffffffffffffffffffffffffffff1673ffffffffffffffffffffffffffffffffffffffff16815260200190815260200160002054905084811015612349576040517f08c379a000000000000000000000000000000000000000000000000000000000815260040161234090613afd565b60405180910390fd5b84810360008088815260200190815260200160002060008973ffffffffffffffffffffffffffffffffffffffff1673ffffffffffffffffffffffffffffffffffffffff16815260200190815260200160002081905550600073ffffffffffffffffffffffffffffffffffffffff168773ffffffffffffffffffffffffffffffffffffffff168573ffffffffffffffffffffffffffffffffffffffff167fc3d58168c5ae7397731d063d5bbf3d657854427343f4c083240f7aacaa2d0f628989604051612416929190613cf8565b60405180910390a461243c848860008686604051806020016040528060008152506127af565b50505050505050565b600073ffffffffffffffffffffffffffffffffffffffff168473ffffffffffffffffffffffffffffffffffffffff1614156124b5576040517f08c379a00000000000000000000000000000000000000000000000000000000081526004016124ac90613b7d565b60405180910390fd5b60006124bf6116c1565b905060006124cc856126e1565b905060006124d9856126e1565b90506124e98389898585896127a7565b600080600088815260200190815260200160002060008a73ffffffffffffffffffffffffffffffffffffffff1673ffffffffffffffffffffffffffffffffffffffff16815260200190815260200160002054905085811015612580576040517f08c379a000000000000000000000000000000000000000000000000000000000815260040161257790613bdd565b60405180910390fd5b85810360008089815260200190815260200160002060008b73ffffffffffffffffffffffffffffffffffffffff1673ffffffffffffffffffffffffffffffffffffffff168152602001908152602001600020819055508560008089815260200190815260200160002060008a73ffffffffffffffffffffffffffffffffffffffff1673ffffffffffffffffffffffffffffffffffffffff16815260200190815260200160002060008282546126359190613e7c565b925050819055508773ffffffffffffffffffffffffffffffffffffffff168973ffffffffffffffffffffffffffffffffffffffff168573ffffffffffffffffffffffffffffffffffffffff167fc3d58168c5ae7397731d063d5bbf3d657854427343f4c083240f7aacaa2d0f628a8a6040516126b2929190613cf8565b60405180910390a46126c8848a8a86868a6127af565b6126d6848a8a8a8a8a6127b7565b505050505050505050565b60606000600167ffffffffffffffff811115612726577f4e487b7100000000000000000000000000000000000000000000000000000000600052604160045260246000fd5b6040519080825280602002602001820160405280156127545781602001602082028036833780820191505090505b5090508281600081518110612792577f4e487b7100000000000000000000000000000000000000000000000000000000600052603260045260246000fd5b60200260200101818152505080915050919050565b505050505050565b505050505050565b6127d68473ffffffffffffffffffffffffffffffffffffffff16612b85565b15612996578373ffffffffffffffffffffffffffffffffffffffff1663f23a6e6187878686866040518663ffffffff1660e01b815260040161281c959493929190613952565b602060405180830381600087803b15801561283657600080fd5b505af192505050801561286757506040513d601f19601f820116820180604052508101906128649190613381565b60015b61290d5761287361413f565b806308c379a014156128d057506128886146f0565b8061289357506128d2565b806040517f08c379a00000000000000000000000000000000000000000000000000000000081526004016128c79190613a3b565b60405180910390fd5b505b6040517f08c379a000000000000000000000000000000000000000000000000000000000815260040161290490613a5d565b60405180910390fd5b63f23a6e6160e01b7bffffffffffffffffffffffffffffffffffffffffffffffffffffffff1916817bffffffffffffffffffffffffffffffffffffffffffffffffffffffff191614612994576040517f08c379a000000000000000000000000000000000000000000000000000000000815260040161298b90613a7d565b60405180910390fd5b505b505050505050565b6129bd8473ffffffffffffffffffffffffffffffffffffffff16612b85565b15612b7d578373ffffffffffffffffffffffffffffffffffffffff1663bc197c8187878686866040518663ffffffff1660e01b8152600401612a039594939291906138a5565b602060405180830381600087803b158015612a1d57600080fd5b505af1925050508015612a4e57506040513d601f19601f82011682018060405250810190612a4b9190613381565b60015b612af457612a5a61413f565b806308c379a01415612ab75750612a6f6146f0565b80612a7a5750612ab9565b806040517f08c379a0000000000000000000000000000000000000000000000000000000008152600401612aae9190613a3b565b60405180910390fd5b505b6040517f08c379a0000000000000000000000000000000000000000000000000000000008152600401612aeb90613a5d565b60405180910390fd5b63bc197c8160e01b7bffffffffffffffffffffffffffffffffffffffffffffffffffffffff1916817bffffffffffffffffffffffffffffffffffffffffffffffffffffffff191614612b7b576040517f08c379a0000000000000000000000000000000000000000000000000000000008152600401612b7290613a7d565b60405180910390fd5b505b505050505050565b6000808273ffffffffffffffffffffffffffffffffffffffff163b119050919050565b828054612bb490614006565b90600052602060002090601f016020900481019282612bd65760008555612c1d565b82601f10612bef57805160ff1916838001178555612c1d565b82800160010185558215612c1d579182015b82811115612c1c578251825591602001919060010190612c01565b5b509050612c2a9190612c2e565b5090565b5b80821115612c47576000816000905550600101612c2f565b5090565b6000612c5e612c5984613d46565b613d21565b90508083825260208201905082856020860282011115612c7d57600080fd5b60005b85811015612cad5781612c938882612d9f565b845260208401935060208301925050600181019050612c80565b5050509392505050565b6000612cca612cc584613d72565b613d21565b90508083825260208201905082856020860282011115612ce957600080fd5b60005b85811015612d195781612cff8882612e9b565b845260208401935060208301925050600181019050612cec565b5050509392505050565b6000612d36612d3184613d9e565b613d21565b905082815260208101848484011115612d4e57600080fd5b612d59848285613fc4565b509392505050565b6000612d74612d6f84613dcf565b613d21565b905082815260208101848484011115612d8c57600080fd5b612d97848285613fc4565b509392505050565b600081359050612dae81614786565b92915050565b600082601f830112612dc557600080fd5b8135612dd5848260208601612c4b565b91505092915050565b600082601f830112612def57600080fd5b8135612dff848260208601612cb7565b91505092915050565b600081359050612e178161479d565b92915050565b600081359050612e2c816147b4565b92915050565b600081519050612e41816147b4565b92915050565b600082601f830112612e5857600080fd5b8135612e68848260208601612d23565b91505092915050565b600082601f830112612e8257600080fd5b8135612e92848260208601612d61565b91505092915050565b600081359050612eaa816147cb565b92915050565b600060208284031215612ec257600080fd5b6000612ed084828501612d9f565b91505092915050565b60008060408385031215612eec57600080fd5b6000612efa85828601612d9f565b9250506020612f0b85828601612d9f565b9150509250929050565b600080600080600060a08688031215612f2d57600080fd5b6000612f3b88828901612d9f565b9550506020612f4c88828901612d9f565b945050604086013567ffffffffffffffff811115612f6957600080fd5b612f7588828901612dde565b935050606086013567ffffffffffffffff811115612f9257600080fd5b612f9e88828901612dde565b925050608086013567ffffffffffffffff811115612fbb57600080fd5b612fc788828901612e47565b9150509295509295909350565b600080600080600060a08688031215612fec57600080fd5b6000612ffa88828901612d9f565b955050602061300b88828901612d9f565b945050604061301c88828901612e9b565b935050606061302d88828901612e9b565b925050608086013567ffffffffffffffff81111561304a57600080fd5b61305688828901612e47565b9150509295509295909350565b60008060006060848603121561307857600080fd5b600061308686828701612d9f565b935050602084013567ffffffffffffffff8111156130a357600080fd5b6130af86828701612dde565b925050604084013567ffffffffffffffff8111156130cc57600080fd5b6130d886828701612dde565b9150509250925092565b600080600080600060a086880312156130fa57600080fd5b600061310888828901612d9f565b955050602086013567ffffffffffffffff81111561312557600080fd5b61313188828901612dde565b945050604086013567ffffffffffffffff81111561314e57600080fd5b61315a88828901612dde565b935050606086013567ffffffffffffffff81111561317757600080fd5b61318388828901612dde565b925050608086013567ffffffffffffffff8111156131a057600080fd5b6131ac88828901612dde565b9150509295509295909350565b600080604083850312156131cc57600080fd5b60006131da85828601612d9f565b92505060206131eb85828601612e08565b9150509250929050565b6000806040838503121561320857600080fd5b600061321685828601612d9f565b925050602061322785828601612e9b565b9150509250929050565b60008060006060848603121561324657600080fd5b600061325486828701612d9f565b935050602061326586828701612e9b565b925050604061327686828701612e9b565b9150509250925092565b6000806040838503121561329357600080fd5b600083013567ffffffffffffffff8111156132ad57600080fd5b6132b985828601612db4565b925050602083013567ffffffffffffffff8111156132d657600080fd5b6132e285828601612dde565b9150509250929050565b600080604083850312156132ff57600080fd5b600083013567ffffffffffffffff81111561331957600080fd5b61332585828601612dde565b925050602083013567ffffffffffffffff81111561334257600080fd5b61334e85828601612dde565b9150509250929050565b60006020828403121561336a57600080fd5b600061337884828501612e1d565b91505092915050565b60006020828403121561339357600080fd5b60006133a184828501612e32565b91505092915050565b6000602082840312156133bc57600080fd5b60006133ca84828501612e9b565b91505092915050565b600080604083850312156133e657600080fd5b60006133f485828601612e9b565b925050602083013567ffffffffffffffff81111561341157600080fd5b61341d85828601612e71565b9150509250929050565b6000806040838503121561343a57600080fd5b600061344885828601612e9b565b925050602061345985828601612e9b565b9150509250929050565b600061346f8383613857565b60208301905092915050565b61348481613f2c565b82525050565b600061349582613e10565b61349f8185613e3e565b93506134aa83613e00565b8060005b838110156134db5781516134c28882613463565b97506134cd83613e31565b9250506001810190506134ae565b5085935050505092915050565b6134f181613f3e565b82525050565b600061350282613e1b565b61350c8185613e4f565b935061351c818560208601613fd3565b61352581614161565b840191505092915050565b61353981613fa0565b82525050565b600061354a82613e26565b6135548185613e6b565b9350613564818560208601613fd3565b61356d81614161565b840191505092915050565b6000613585603483613e6b565b91506135908261417f565b604082019050919050565b60006135a8602883613e6b565b91506135b3826141ce565b604082019050919050565b60006135cb602b83613e6b565b91506135d68261421d565b604082019050919050565b60006135ee602683613e6b565b91506135f98261426c565b604082019050919050565b6000613611601583613e6b565b915061361c826142bb565b602082019050919050565b6000613634602483613e6b565b915061363f826142e4565b604082019050919050565b6000613657601b83613e6b565b915061366282614333565b602082019050919050565b600061367a602983613e6b565b91506136858261435c565b604082019050919050565b600061369d601f83613e6b565b91506136a8826143ab565b602082019050919050565b60006136c0602583613e6b565b91506136cb826143d4565b604082019050919050565b60006136e3603283613e6b565b91506136ee82614423565b604082019050919050565b6000613706602383613e6b565b915061371182614472565b604082019050919050565b6000613729602a83613e6b565b9150613734826144c1565b604082019050919050565b600061374c601483613e6b565b915061375782614510565b602082019050919050565b600061376f602083613e6b565b915061377a82614539565b602082019050919050565b6000613792600083613e60565b915061379d82614562565b600082019050919050565b60006137b5602983613e6b565b91506137c082614565565b604082019050919050565b60006137d8602983613e6b565b91506137e3826145b4565b604082019050919050565b60006137fb602383613e6b565b915061380682614603565b604082019050919050565b600061381e602883613e6b565b915061382982614652565b604082019050919050565b6000613841602183613e6b565b915061384c826146a1565b604082019050919050565b61386081613f96565b82525050565b61386f81613f96565b82525050565b600061388082613785565b9150819050919050565b600060208201905061389f600083018461347b565b92915050565b600060a0820190506138ba600083018861347b565b6138c7602083018761347b565b81810360408301526138d9818661348a565b905081810360608301526138ed818561348a565b9050818103608083015261390181846134f7565b90509695505050505050565b6000608082019050613922600083018761347b565b61392f602083018661347b565b61393c6040830185613866565b6139496060830184613866565b95945050505050565b600060a082019050613967600083018861347b565b613974602083018761347b565b6139816040830186613866565b61398e6060830185613866565b81810360808301526139a081846134f7565b90509695505050505050565b600060208201905081810360008301526139c6818461348a565b905092915050565b600060408201905081810360008301526139e8818561348a565b905081810360208301526139fc818461348a565b90509392505050565b6000602082019050613a1a60008301846134e8565b92915050565b6000602082019050613a356000830184613530565b92915050565b60006020820190508181036000830152613a55818461353f565b905092915050565b60006020820190508181036000830152613a7681613578565b9050919050565b60006020820190508181036000830152613a968161359b565b9050919050565b60006020820190508181036000830152613ab6816135be565b9050919050565b60006020820190508181036000830152613ad6816135e1565b9050919050565b60006020820190508181036000830152613af681613604565b9050919050565b60006020820190508181036000830152613b1681613627565b9050919050565b60006020820190508181036000830152613b368161364a565b9050919050565b60006020820190508181036000830152613b568161366d565b9050919050565b60006020820190508181036000830152613b7681613690565b9050919050565b60006020820190508181036000830152613b96816136b3565b9050919050565b60006020820190508181036000830152613bb6816136d6565b9050919050565b60006020820190508181036000830152613bd6816136f9565b9050919050565b60006020820190508181036000830152613bf68161371c565b9050919050565b60006020820190508181036000830152613c168161373f565b9050919050565b60006020820190508181036000830152613c3681613762565b9050919050565b60006020820190508181036000830152613c56816137a8565b9050919050565b60006020820190508181036000830152613c76816137cb565b9050919050565b60006020820190508181036000830152613c96816137ee565b9050919050565b60006020820190508181036000830152613cb681613811565b9050919050565b60006020820190508181036000830152613cd681613834565b9050919050565b6000602082019050613cf26000830184613866565b92915050565b6000604082019050613d0d6000830185613866565b613d1a6020830184613866565b9392505050565b6000613d2b613d3c565b9050613d378282614038565b919050565b6000604051905090565b600067ffffffffffffffff821115613d6157613d60614110565b5b602082029050602081019050919050565b600067ffffffffffffffff821115613d8d57613d8c614110565b5b602082029050602081019050919050565b600067ffffffffffffffff821115613db957613db8614110565b5b613dc282614161565b9050602081019050919050565b600067ffffffffffffffff821115613dea57613de9614110565b5b613df382614161565b9050602081019050919050565b6000819050602082019050919050565b600081519050919050565b600081519050919050565b600081519050919050565b6000602082019050919050565b600082825260208201905092915050565b600082825260208201905092915050565b600081905092915050565b600082825260208201905092915050565b6000613e8782613f96565b9150613e9283613f96565b9250827fffffffffffffffffffffffffffffffffffffffffffffffffffffffffffffffff03821115613ec757613ec66140b2565b5b828201905092915050565b6000613edd82613f96565b9150613ee883613f96565b9250817fffffffffffffffffffffffffffffffffffffffffffffffffffffffffffffffff0483118215151615613f2157613f206140b2565b5b828202905092915050565b6000613f3782613f76565b9050919050565b60008115159050919050565b60007fffffffff0000000000000000000000000000000000000000000000000000000082169050919050565b600073ffffffffffffffffffffffffffffffffffffffff82169050919050565b6000819050919050565b6000613fab82613fb2565b9050919050565b6000613fbd82613f76565b9050919050565b82818337600083830152505050565b60005b83811015613ff1578082015181840152602081019050613fd6565b83811115614000576000848401525b50505050565b6000600282049050600182168061401e57607f821691505b60208210811415614032576140316140e1565b5b50919050565b61404182614161565b810181811067ffffffffffffffff821117156140605761405f614110565b5b80604052505050565b600061407482613f96565b91507fffffffffffffffffffffffffffffffffffffffffffffffffffffffffffffffff8214156140a7576140a66140b2565b5b600182019050919050565b7f4e487b7100000000000000000000000000000000000000000000000000000000600052601160045260246000fd5b7f4e487b7100000000000000000000000000000000000000000000000000000000600052602260045260246000fd5b7f4e487b7100000000000000000000000000000000000000000000000000000000600052604160045260246000fd5b600060033d111561415e5760046000803e61415b600051614172565b90505b90565b6000601f19601f8301169050919050565b60008160e01c9050919050565b7f455243313135353a207472616e7366657220746f206e6f6e204552433131353560008201527f526563656976657220696d706c656d656e746572000000000000000000000000602082015250565b7f455243313135353a204552433131353552656365697665722072656a6563746560008201527f6420746f6b656e73000000000000000000000000000000000000000000000000602082015250565b7f455243313135353a2062616c616e636520717565727920666f7220746865207a60008201527f65726f2061646472657373000000000000000000000000000000000000000000602082015250565b7f4f776e61626c653a206e6577206f776e657220697320746865207a65726f206160008201527f6464726573730000000000000000000000000000000000000000000000000000602082015250565b7f4661696c6564207769746864726177206d6f6e65790000000000000000000000600082015250565b7f455243313135353a206275726e20616d6f756e7420657863656564732062616c60008201527f616e636500000000000000000000000000000000000000000000000000000000602082015250565b7f616d6f756e742073686f756c6420626520657175616c20636f73740000000000600082015250565b7f455243313135353a2063616c6c6572206973206e6f74206f776e6572206e6f7260008201527f20617070726f7665640000000000000000000000000000000000000000000000602082015250565b7f616d6f756e742073686f756c6420626520657175616c2074686520636f737400600082015250565b7f455243313135353a207472616e7366657220746f20746865207a65726f20616460008201527f6472657373000000000000000000000000000000000000000000000000000000602082015250565b7f455243313135353a207472616e736665722063616c6c6572206973206e6f742060008201527f6f776e6572206e6f7220617070726f7665640000000000000000000000000000602082015250565b7f455243313135353a206275726e2066726f6d20746865207a65726f206164647260008201527f6573730000000000000000000000000000000000000000000000000000000000602082015250565b7f455243313135353a20696e73756666696369656e742062616c616e636520666f60008201527f72207472616e7366657200000000000000000000000000000000000000000000602082015250565b7f57726f6e67207465616d20706172616d65746572000000000000000000000000600082015250565b7f4f776e61626c653a2063616c6c6572206973206e6f7420746865206f776e6572600082015250565b50565b7f455243313135353a2073657474696e6720617070726f76616c2073746174757360008201527f20666f722073656c660000000000000000000000000000000000000000000000602082015250565b7f455243313135353a206163636f756e747320616e6420696473206c656e67746860008201527f206d69736d617463680000000000000000000000000000000000000000000000602082015250565b7f616464726573732062616c616e63652073686f756c642062652067726561746560008201527f7220300000000000000000000000000000000000000000000000000000000000602082015250565b7f455243313135353a2069647320616e6420616d6f756e7473206c656e6774682060008201527f6d69736d61746368000000000000000000000000000000000000000000000000602082015250565b7f455243313135353a206d696e7420746f20746865207a65726f2061646472657360008201527f7300000000000000000000000000000000000000000000000000000000000000602082015250565b600060443d101561470057614783565b614708613d3c565b60043d036004823e80513d602482011167ffffffffffffffff82111715614730575050614783565b808201805167ffffffffffffffff81111561474e5750505050614783565b80602083010160043d03850181111561476b575050505050614783565b61477a82602001850186614038565b82955050505050505b90565b61478f81613f2c565b811461479a57600080fd5b50565b6147a681613f3e565b81146147b157600080fd5b50565b6147bd81613f4a565b81146147c857600080fd5b50565b6147d481613f96565b81146147df57600080fd5b5056fea2646970667358221220a0ec76aac421118fca0737cc032e41724d30d8a9dd597754318408eef7a3dc6f64736f6c63430008040033",
  "linkReferences": {},
  "deployedLinkReferences": {}
}