{
  "_format": "hh-sol-artifact-1",
  "contractName": "ArmenianLeagueTickets",
  "sourceName": "contracts/ArmenianLeagueTickets.sol",
  "abi": [
    {
      "inputs": [
        {
          "internalType": "contract MyUSDToken",
          "name": "_mysUSDToken",
          "type": "address"
        }
      ],
      "stateMutability": "nonpayable",
      "type": "constructor"
    },
    {
      "anonymous": false,
      "inputs": [
        {
          "indexed": true,
          "internalType": "address",
          "name": "account",
          "type": "address"
        },
        {
          "indexed": true,
          "internalType": "address",
          "name": "operator",
          "type": "address"
        },
        {
          "indexed": false,
          "internalType": "bool",
          "name": "approved",
          "type": "bool"
        }
      ],
      "name": "ApprovalForAll",
      "type": "event"
    },
    {
      "anonymous": false,
      "inputs": [
        {
          "indexed": true,
          "internalType": "address",
          "name": "previousOwner",
          "type": "address"
        },
        {
          "indexed": true,
          "internalType": "address",
          "name": "newOwner",
          "type": "address"
        }
      ],
      "name": "OwnershipTransferred",
      "type": "event"
    },
    {
      "anonymous": false,
      "inputs": [
        {
          "indexed": false,
          "internalType": "address",
          "name": "account",
          "type": "address"
        },
        {
          "indexed": false,
          "internalType": "address",
          "name": "token",
          "type": "address"
        },
        {
          "indexed": false,
          "internalType": "uint256",
          "name": "amount",
          "type": "uint256"
        },
        {
          "indexed": false,
          "internalType": "uint256",
          "name": "rate",
          "type": "uint256"
        }
      ],
      "name": "TokenPurchased",
      "type": "event"
    },
    {
      "anonymous": false,
      "inputs": [
        {
          "indexed": true,
          "internalType": "address",
          "name": "operator",
          "type": "address"
        },
        {
          "indexed": true,
          "internalType": "address",
          "name": "from",
          "type": "address"
        },
        {
          "indexed": true,
          "internalType": "address",
          "name": "to",
          "type": "address"
        },
        {
          "indexed": false,
          "internalType": "uint256[]",
          "name": "ids",
          "type": "uint256[]"
        },
        {
          "indexed": false,
          "internalType": "uint256[]",
          "name": "values",
          "type": "uint256[]"
        }
      ],
      "name": "TransferBatch",
      "type": "event"
    },
    {
      "anonymous": false,
      "inputs": [
        {
          "indexed": true,
          "internalType": "address",
          "name": "operator",
          "type": "address"
        },
        {
          "indexed": true,
          "internalType": "address",
          "name": "from",
          "type": "address"
        },
        {
          "indexed": true,
          "internalType": "address",
          "name": "to",
          "type": "address"
        },
        {
          "indexed": false,
          "internalType": "uint256",
          "name": "id",
          "type": "uint256"
        },
        {
          "indexed": false,
          "internalType": "uint256",
          "name": "value",
          "type": "uint256"
        }
      ],
      "name": "TransferSingle",
      "type": "event"
    },
    {
      "anonymous": false,
      "inputs": [
        {
          "indexed": false,
          "internalType": "string",
          "name": "value",
          "type": "string"
        },
        {
          "indexed": true,
          "internalType": "uint256",
          "name": "id",
          "type": "uint256"
        }
      ],
      "name": "URI",
      "type": "event"
    },
    {
      "inputs": [],
      "name": "MAX_TICKET_NUMBER",
      "outputs": [
        {
          "internalType": "uint256",
          "name": "",
          "type": "uint256"
        }
      ],
      "stateMutability": "view",
      "type": "function"
    },
    {
      "inputs": [],
      "name": "USDCCost",
      "outputs": [
        {
          "internalType": "uint256",
          "name": "",
          "type": "uint256"
        }
      ],
      "stateMutability": "view",
      "type": "function"
    },
    {
      "inputs": [
        {
          "internalType": "address",
          "name": "account",
          "type": "address"
        },
        {
          "internalType": "uint256",
          "name": "id",
          "type": "uint256"
        }
      ],
      "name": "balanceOf",
      "outputs": [
        {
          "internalType": "uint256",
          "name": "",
          "type": "uint256"
        }
      ],
      "stateMutability": "view",
      "type": "function"
    },
    {
      "inputs": [
        {
          "internalType": "address[]",
          "name": "accounts",
          "type": "address[]"
        },
        {
          "internalType": "uint256[]",
          "name": "ids",
          "type": "uint256[]"
        }
      ],
      "name": "balanceOfBatch",
      "outputs": [
        {
          "internalType": "uint256[]",
          "name": "",
          "type": "uint256[]"
        }
      ],
      "stateMutability": "view",
      "type": "function"
    },
    {
      "inputs": [],
      "name": "balanceOfTickets",
      "outputs": [
        {
          "internalType": "uint256[]",
          "name": "",
          "type": "uint256[]"
        }
      ],
      "stateMutability": "view",
      "type": "function"
    },
    {
      "inputs": [
        {
          "internalType": "uint64",
          "name": "_id",
          "type": "uint64"
        }
      ],
      "name": "balanceTickets",
      "outputs": [
        {
          "internalType": "uint256",
          "name": "",
          "type": "uint256"
        }
      ],
      "stateMutability": "view",
      "type": "function"
    },
    {
      "inputs": [
        {
          "internalType": "uint256",
          "name": "_id",
          "type": "uint256"
        },
        {
          "internalType": "uint256",
          "name": "_amount",
          "type": "uint256"
        }
      ],
      "name": "burn",
      "outputs": [],
      "stateMutability": "nonpayable",
      "type": "function"
    },
    {
      "inputs": [
        {
          "internalType": "uint256[]",
          "name": "_ids",
          "type": "uint256[]"
        },
        {
          "internalType": "uint256[]",
          "name": "_amounts",
          "type": "uint256[]"
        }
      ],
      "name": "burnBatch",
      "outputs": [],
      "stateMutability": "nonpayable",
      "type": "function"
    },
    {
      "inputs": [
        {
          "internalType": "address",
          "name": "_from",
          "type": "address"
        },
        {
          "internalType": "uint256[]",
          "name": "_burnIds",
          "type": "uint256[]"
        },
        {
          "internalType": "uint256[]",
          "name": "_burnAmounts",
          "type": "uint256[]"
        },
        {
          "internalType": "uint256[]",
          "name": "_mintIds",
          "type": "uint256[]"
        },
        {
          "internalType": "uint256[]",
          "name": "_mintAmounts",
          "type": "uint256[]"
        }
      ],
      "name": "burnForMint",
      "outputs": [],
      "stateMutability": "nonpayable",
      "type": "function"
    },
    {
      "inputs": [],
      "name": "cost",
      "outputs": [
        {
          "internalType": "uint256",
          "name": "",
          "type": "uint256"
        }
      ],
      "stateMutability": "view",
      "type": "function"
    },
    {
      "inputs": [
        {
          "internalType": "address",
          "name": "account",
          "type": "address"
        },
        {
          "internalType": "address",
          "name": "operator",
          "type": "address"
        }
      ],
      "name": "isApprovedForAll",
      "outputs": [
        {
          "internalType": "bool",
          "name": "",
          "type": "bool"
        }
      ],
      "stateMutability": "view",
      "type": "function"
    },
    {
      "inputs": [
        {
          "internalType": "address",
          "name": "_to",
          "type": "address"
        },
        {
          "internalType": "uint64",
          "name": "_id",
          "type": "uint64"
        },
        {
          "internalType": "uint256",
          "name": "_amount",
          "type": "uint256"
        }
      ],
      "name": "mint",
      "outputs": [],
      "stateMutability": "payable",
      "type": "function"
    },
    {
      "inputs": [
        {
          "internalType": "address",
          "name": "_to",
          "type": "address"
        },
        {
          "internalType": "uint256[]",
          "name": "_ids",
          "type": "uint256[]"
        },
        {
          "internalType": "uint256[]",
          "name": "_amounts",
          "type": "uint256[]"
        }
      ],
      "name": "mintBatch",
      "outputs": [],
      "stateMutability": "nonpayable",
      "type": "function"
    },
    {
      "inputs": [
        {
          "internalType": "address",
          "name": "_to",
          "type": "address"
        },
        {
          "internalType": "uint64",
          "name": "_id",
          "type": "uint64"
        },
        {
          "internalType": "uint256",
          "name": "_amount",
          "type": "uint256"
        }
      ],
      "name": "mintByUSDC",
      "outputs": [],
      "stateMutability": "payable",
      "type": "function"
    },
    {
      "inputs": [],
      "name": "mysUSDToken",
      "outputs": [
        {
          "internalType": "contract MyUSDToken",
          "name": "",
          "type": "address"
        }
      ],
      "stateMutability": "view",
      "type": "function"
    },
    {
      "inputs": [],
      "name": "name",
      "outputs": [
        {
          "internalType": "string",
          "name": "",
          "type": "string"
        }
      ],
      "stateMutability": "view",
      "type": "function"
    },
    {
      "inputs": [],
      "name": "owner",
      "outputs": [
        {
          "internalType": "address",
          "name": "",
          "type": "address"
        }
      ],
      "stateMutability": "view",
      "type": "function"
    },
    {
      "inputs": [],
      "name": "rate",
      "outputs": [
        {
          "internalType": "uint256",
          "name": "",
          "type": "uint256"
        }
      ],
      "stateMutability": "view",
      "type": "function"
    },
    {
      "inputs": [],
      "name": "renounceOwnership",
      "outputs": [],
      "stateMutability": "nonpayable",
      "type": "function"
    },
    {
      "inputs": [
        {
          "internalType": "address",
          "name": "from",
          "type": "address"
        },
        {
          "internalType": "address",
          "name": "to",
          "type": "address"
        },
        {
          "internalType": "uint256[]",
          "name": "ids",
          "type": "uint256[]"
        },
        {
          "internalType": "uint256[]",
          "name": "amounts",
          "type": "uint256[]"
        },
        {
          "internalType": "bytes",
          "name": "data",
          "type": "bytes"
        }
      ],
      "name": "safeBatchTransferFrom",
      "outputs": [],
      "stateMutability": "nonpayable",
      "type": "function"
    },
    {
      "inputs": [
        {
          "internalType": "address",
          "name": "from",
          "type": "address"
        },
        {
          "internalType": "address",
          "name": "to",
          "type": "address"
        },
        {
          "internalType": "uint256",
          "name": "id",
          "type": "uint256"
        },
        {
          "internalType": "uint256",
          "name": "amount",
          "type": "uint256"
        },
        {
          "internalType": "bytes",
          "name": "data",
          "type": "bytes"
        }
      ],
      "name": "safeTransferFrom",
      "outputs": [],
      "stateMutability": "nonpayable",
      "type": "function"
    },
    {
      "inputs": [
        {
          "internalType": "address",
          "name": "operator",
          "type": "address"
        },
        {
          "internalType": "bool",
          "name": "approved",
          "type": "bool"
        }
      ],
      "name": "setApprovalForAll",
      "outputs": [],
      "stateMutability": "nonpayable",
      "type": "function"
    },
    {
      "inputs": [
        {
          "internalType": "uint256",
          "name": "_id",
          "type": "uint256"
        },
        {
          "internalType": "string",
          "name": "_uri",
          "type": "string"
        }
      ],
      "name": "setURI",
      "outputs": [],
      "stateMutability": "nonpayable",
      "type": "function"
    },
    {
      "inputs": [
        {
          "internalType": "bytes4",
          "name": "interfaceId",
          "type": "bytes4"
        }
      ],
      "name": "supportsInterface",
      "outputs": [
        {
          "internalType": "bool",
          "name": "",
          "type": "bool"
        }
      ],
      "stateMutability": "view",
      "type": "function"
    },
    {
      "inputs": [],
      "name": "symbol",
      "outputs": [
        {
          "internalType": "string",
          "name": "",
          "type": "string"
        }
      ],
      "stateMutability": "view",
      "type": "function"
    },
    {
      "inputs": [
        {
          "internalType": "uint256",
          "name": "",
          "type": "uint256"
        }
      ],
      "name": "tokenURI",
      "outputs": [
        {
          "internalType": "string",
          "name": "",
          "type": "string"
        }
      ],
      "stateMutability": "view",
      "type": "function"
    },
    {
      "inputs": [
        {
          "internalType": "address",
          "name": "newOwner",
          "type": "address"
        }
      ],
      "name": "transferOwnership",
      "outputs": [],
      "stateMutability": "nonpayable",
      "type": "function"
    },
    {
      "inputs": [
        {
          "internalType": "uint256",
          "name": "_id",
          "type": "uint256"
        }
      ],
      "name": "uri",
      "outputs": [
        {
          "internalType": "string",
          "name": "",
          "type": "string"
        }
      ],
      "stateMutability": "view",
      "type": "function"
    },
    {
      "inputs": [],
      "name": "withdraw",
      "outputs": [],
      "stateMutability": "nonpayable",
      "type": "function"
    }
  ],
  "bytecode": "0x6080604052662386f26fc10000600655601e6007556103e860085560646009553480156200002c57600080fd5b50604051620050e3380380620050e3833981810160405281019062000052919062000390565b6040518060200160405280600081525062000073816200017860201b60201c565b5062000094620000886200019460201b60201c565b6200019c60201b60201c565b6040518060400160405280601581526020017f41726d656e69616e5072656d6965724c6561677565000000000000000000000081525060049080519060200190620000e192919062000262565b506040518060400160405280601581526020017f41726d656e69616e5072656d6965724c65616775650000000000000000000000815250600590805190602001906200012f92919062000262565b5080600a60006101000a81548173ffffffffffffffffffffffffffffffffffffffff021916908373ffffffffffffffffffffffffffffffffffffffff1602179055505062000426565b80600290805190602001906200019092919062000262565b5050565b600033905090565b6000600360009054906101000a900473ffffffffffffffffffffffffffffffffffffffff16905081600360006101000a81548173ffffffffffffffffffffffffffffffffffffffff021916908373ffffffffffffffffffffffffffffffffffffffff1602179055508173ffffffffffffffffffffffffffffffffffffffff168173ffffffffffffffffffffffffffffffffffffffff167f8be0079c531659141344cd1fd0a4f28419497f9722a3daafe3b4186f6b6457e060405160405180910390a35050565b8280546200027090620003f1565b90600052602060002090601f016020900481019282620002945760008555620002e0565b82601f10620002af57805160ff1916838001178555620002e0565b82800160010185558215620002e0579182015b82811115620002df578251825591602001919060010190620002c2565b5b509050620002ef9190620002f3565b5090565b5b808211156200030e576000816000905550600101620002f4565b5090565b600080fd5b600073ffffffffffffffffffffffffffffffffffffffff82169050919050565b6000620003448262000317565b9050919050565b6000620003588262000337565b9050919050565b6200036a816200034b565b81146200037657600080fd5b50565b6000815190506200038a816200035f565b92915050565b600060208284031215620003a957620003a862000312565b5b6000620003b98482850162000379565b91505092915050565b7f4e487b7100000000000000000000000000000000000000000000000000000000600052602260045260246000fd5b600060028204905060018216806200040a57607f821691505b60208210810362000420576200041f620003c2565b5b50919050565b614cad80620004366000396000f3fe6080604052600436106101c15760003560e01c806383ca4b6f116100f7578063b390c0ab11610095578063e985e9c511610064578063e985e9c514610620578063eeafa0d41461065d578063f242432a14610679578063f2fde38b146106a2576101c1565b8063b390c0ab14610566578063c87b56dd1461058f578063d81d0a15146105cc578063e49e811e146105f5576101c1565b80638da5cb5b116100d15780638da5cb5b146104aa57806395d89b41146104d5578063a22cb46514610500578063a621a6c814610529576101c1565b806383ca4b6f1461042d57806384e515c114610456578063862440e214610481576101c1565b80632eb2c2d611610164578063510f41041161013e578063510f4104146103a6578063715018a6146103cf5780637250e45d146103e65780637fe7adfc14610411576101c1565b80632eb2c2d6146103295780633ccfd60b146103525780634e1273f414610369576101c1565b80630e89341c116101a05780630e89341c1461026b57806313faede6146102a8578063259933e0146102d35780632c4e722e146102fe576101c1565b8062fdd58e146101c657806301ffc9a71461020357806306fdde0314610240575b600080fd5b3480156101d257600080fd5b506101ed60048036038101906101e89190612f07565b6106cb565b6040516101fa9190612f56565b60405180910390f35b34801561020f57600080fd5b5061022a60048036038101906102259190612fc9565b610793565b6040516102379190613011565b60405180910390f35b34801561024c57600080fd5b50610255610875565b60405161026291906130c5565b60405180910390f35b34801561027757600080fd5b50610292600480360381019061028d91906130e7565b610903565b60405161029f91906130c5565b60405180910390f35b3480156102b457600080fd5b506102bd6109a8565b6040516102ca9190612f56565b60405180910390f35b3480156102df57600080fd5b506102e86109ae565b6040516102f591906131d2565b60405180910390f35b34801561030a57600080fd5b50610313610a5f565b6040516103209190612f56565b60405180910390f35b34801561033557600080fd5b50610350600480360381019061034b91906133f1565b610a65565b005b34801561035e57600080fd5b50610367610b06565b005b34801561037557600080fd5b50610390600480360381019061038b9190613583565b610bff565b60405161039d91906131d2565b60405180910390f35b3480156103b257600080fd5b506103cd60048036038101906103c891906135fb565b610d18565b005b3480156103db57600080fd5b506103e4610dc1565b005b3480156103f257600080fd5b506103fb610e49565b6040516104089190612f56565b60405180910390f35b61042b60048036038101906104269190613726565b610e4f565b005b34801561043957600080fd5b50610454600480360381019061044f9190613779565b610ff4565b005b34801561046257600080fd5b5061046b611003565b6040516104789190613850565b60405180910390f35b34801561048d57600080fd5b506104a860048036038101906104a3919061390c565b611029565b005b3480156104b657600080fd5b506104bf61108d565b6040516104cc9190613977565b60405180910390f35b3480156104e157600080fd5b506104ea6110b7565b6040516104f791906130c5565b60405180910390f35b34801561050c57600080fd5b50610527600480360381019061052291906139be565b611145565b005b34801561053557600080fd5b50610550600480360381019061054b91906139fe565b61115b565b60405161055d9190612f56565b60405180910390f35b34801561057257600080fd5b5061058d60048036038101906105889190613a2b565b61118c565b005b34801561059b57600080fd5b506105b660048036038101906105b191906130e7565b61119b565b6040516105c391906130c5565b60405180910390f35b3480156105d857600080fd5b506105f360048036038101906105ee9190613a6b565b61123b565b005b34801561060157600080fd5b5061060a6112d7565b6040516106179190612f56565b60405180910390f35b34801561062c57600080fd5b5061064760048036038101906106429190613af6565b6112dd565b6040516106549190613011565b60405180910390f35b61067760048036038101906106729190613726565b611371565b005b34801561068557600080fd5b506106a0600480360381019061069b9190613b36565b6115b4565b005b3480156106ae57600080fd5b506106c960048036038101906106c49190613bcd565b611655565b005b60008073ffffffffffffffffffffffffffffffffffffffff168373ffffffffffffffffffffffffffffffffffffffff160361073b576040517f08c379a000000000000000000000000000000000000000000000000000000000815260040161073290613c6c565b60405180910390fd5b60008083815260200190815260200160002060008473ffffffffffffffffffffffffffffffffffffffff1673ffffffffffffffffffffffffffffffffffffffff16815260200190815260200160002054905092915050565b60007fd9b67a26000000000000000000000000000000000000000000000000000000007bffffffffffffffffffffffffffffffffffffffffffffffffffffffff1916827bffffffffffffffffffffffffffffffffffffffffffffffffffffffff1916148061085e57507f0e89341c000000000000000000000000000000000000000000000000000000007bffffffffffffffffffffffffffffffffffffffffffffffffffffffff1916827bffffffffffffffffffffffffffffffffffffffffffffffffffffffff1916145b8061086e575061086d8261174c565b5b9050919050565b6004805461088290613cbb565b80601f01602080910402602001604051908101604052809291908181526020018280546108ae90613cbb565b80156108fb5780601f106108d0576101008083540402835291602001916108fb565b820191906000526020600020905b8154815290600101906020018083116108de57829003601f168201915b505050505081565b6060600c6000838152602001908152602001600020805461092390613cbb565b80601f016020809104026020016040519081016040528092919081815260200182805461094f90613cbb565b801561099c5780601f106109715761010080835404028352916020019161099c565b820191906000526020600020905b81548152906001019060200180831161097f57829003601f168201915b50505050509050919050565b60065481565b60606000600a67ffffffffffffffff8111156109cd576109cc6131f9565b5b6040519080825280602002602001820160405280156109fb5781602001602082028036833780820191505090505b50905060005b60098167ffffffffffffffff161015610a5757610a1d8161115b565b828267ffffffffffffffff1681518110610a3a57610a39613cec565b5b60200260200101818152505080610a5090613d4a565b9050610a01565b508091505090565b60095481565b610a6d6117b6565b73ffffffffffffffffffffffffffffffffffffffff168573ffffffffffffffffffffffffffffffffffffffff161480610ab35750610ab285610aad6117b6565b6112dd565b5b610af2576040517f08c379a0000000000000000000000000000000000000000000000000000000008152600401610ae990613dec565b60405180910390fd5b610aff85858585856117be565b5050505050565b60004711610b49576040517f08c379a0000000000000000000000000000000000000000000000000000000008152600401610b4090613e7e565b60405180910390fd5b6000610b5361108d565b73ffffffffffffffffffffffffffffffffffffffff1647604051610b7690613ecf565b60006040518083038185875af1925050503d8060008114610bb3576040519150601f19603f3d011682016040523d82523d6000602084013e610bb8565b606091505b5050905080610bfc576040517f08c379a0000000000000000000000000000000000000000000000000000000008152600401610bf390613f30565b60405180910390fd5b50565b60608151835114610c45576040517f08c379a0000000000000000000000000000000000000000000000000000000008152600401610c3c90613fc2565b60405180910390fd5b6000835167ffffffffffffffff811115610c6257610c616131f9565b5b604051908082528060200260200182016040528015610c905781602001602082028036833780820191505090505b50905060005b8451811015610d0d57610cdd858281518110610cb557610cb4613cec565b5b6020026020010151858381518110610cd057610ccf613cec565b5b60200260200101516106cb565b828281518110610cf057610cef613cec565b5b60200260200101818152505080610d0690613fe2565b9050610c96565b508091505092915050565b610d206117b6565b73ffffffffffffffffffffffffffffffffffffffff16610d3e61108d565b73ffffffffffffffffffffffffffffffffffffffff1614610d94576040517f08c379a0000000000000000000000000000000000000000000000000000000008152600401610d8b90614076565b60405180910390fd5b610d9f858585611adf565b610dba85838360405180602001604052806000815250611dad565b5050505050565b610dc96117b6565b73ffffffffffffffffffffffffffffffffffffffff16610de761108d565b73ffffffffffffffffffffffffffffffffffffffff1614610e3d576040517f08c379a0000000000000000000000000000000000000000000000000000000008152600401610e3490614076565b60405180910390fd5b610e476000611fd9565b565b60085481565b808060065434610e5f91906140c5565b14610e9f576040517f08c379a0000000000000000000000000000000000000000000000000000000008152600401610e9690614142565b60405180910390fd5b828260008267ffffffffffffffff161080610ec4575060098267ffffffffffffffff16115b15610f0b576000610f0a576040517f08c379a0000000000000000000000000000000000000000000000000000000008152600401610f01906141ae565b60405180910390fd5b5b60085481600b60008567ffffffffffffffff1667ffffffffffffffff16815260200190815260200160002054610f4191906141ce565b1115610f89576000610f88576040517f08c379a0000000000000000000000000000000000000000000000000000000008152600401610f7f90614296565b60405180910390fd5b5b610fae868667ffffffffffffffff16866040518060200160405280600081525061209f565b83600b60008767ffffffffffffffff1667ffffffffffffffff1681526020019081526020016000206000828254610fe591906141ce565b92505081905550505050505050565b610fff338383611adf565b5050565b600a60009054906101000a900473ffffffffffffffffffffffffffffffffffffffff1681565b80600c60008481526020019081526020016000209080519060200190611050929190612dbc565b50817f6bb7ff708619ba0610cba295a58592e0451dee2622938c8755667688daf3529b8260405161108191906130c5565b60405180910390a25050565b6000600360009054906101000a900473ffffffffffffffffffffffffffffffffffffffff16905090565b600580546110c490613cbb565b80601f01602080910402602001604051908101604052809291908181526020018280546110f090613cbb565b801561113d5780601f106111125761010080835404028352916020019161113d565b820191906000526020600020905b81548152906001019060200180831161112057829003601f168201915b505050505081565b6111576111506117b6565b838361224f565b5050565b6000600b60008367ffffffffffffffff1667ffffffffffffffff168152602001908152602001600020549050919050565b6111973383836123bb565b5050565b600c60205280600052604060002060009150905080546111ba90613cbb565b80601f01602080910402602001604051908101604052809291908181526020018280546111e690613cbb565b80156112335780601f1061120857610100808354040283529160200191611233565b820191906000526020600020905b81548152906001019060200180831161121657829003601f168201915b505050505081565b6112436117b6565b73ffffffffffffffffffffffffffffffffffffffff1661126161108d565b73ffffffffffffffffffffffffffffffffffffffff16146112b7576040517f08c379a00000000000000000000000000000000000000000000000000000000081526004016112ae90614076565b60405180910390fd5b6112d283838360405180602001604052806000815250611dad565b505050565b60075481565b6000600160008473ffffffffffffffffffffffffffffffffffffffff1673ffffffffffffffffffffffffffffffffffffffff16815260200190815260200160002060008373ffffffffffffffffffffffffffffffffffffffff1673ffffffffffffffffffffffffffffffffffffffff16815260200190815260200160002060009054906101000a900460ff16905092915050565b818160008267ffffffffffffffff161080611396575060098267ffffffffffffffff16115b156113dd5760006113dc576040517f08c379a00000000000000000000000000000000000000000000000000000000081526004016113d3906141ae565b60405180910390fd5b5b60085481600b60008567ffffffffffffffff1667ffffffffffffffff1681526020019081526020016000205461141391906141ce565b111561145b57600061145a576040517f08c379a000000000000000000000000000000000000000000000000000000000815260040161145190614296565b60405180910390fd5b5b61149a6040518060400160405280601b81526020017f53656e646572206164647265737320697320257320746f6b656e73000000000081525030612601565b600a60009054906101000a900473ffffffffffffffffffffffffffffffffffffffff1673ffffffffffffffffffffffffffffffffffffffff166323b872dd3330600754876114e891906142b6565b6040518463ffffffff1660e01b815260040161150693929190614310565b6020604051808303816000875af1158015611525573d6000803e3d6000fd5b505050506040513d601f19601f82011682018060405250810190611549919061435c565b5061156f858567ffffffffffffffff16856040518060200160405280600081525061209f565b82600b60008667ffffffffffffffff1667ffffffffffffffff16815260200190815260200160002060008282546115a691906141ce565b925050819055505050505050565b6115bc6117b6565b73ffffffffffffffffffffffffffffffffffffffff168573ffffffffffffffffffffffffffffffffffffffff1614806116025750611601856115fc6117b6565b6112dd565b5b611641576040517f08c379a0000000000000000000000000000000000000000000000000000000008152600401611638906143fb565b60405180910390fd5b61164e858585858561269d565b5050505050565b61165d6117b6565b73ffffffffffffffffffffffffffffffffffffffff1661167b61108d565b73ffffffffffffffffffffffffffffffffffffffff16146116d1576040517f08c379a00000000000000000000000000000000000000000000000000000000081526004016116c890614076565b60405180910390fd5b600073ffffffffffffffffffffffffffffffffffffffff168173ffffffffffffffffffffffffffffffffffffffff1603611740576040517f08c379a00000000000000000000000000000000000000000000000000000000081526004016117379061448d565b60405180910390fd5b61174981611fd9565b50565b60007f01ffc9a7000000000000000000000000000000000000000000000000000000007bffffffffffffffffffffffffffffffffffffffffffffffffffffffff1916827bffffffffffffffffffffffffffffffffffffffffffffffffffffffff1916149050919050565b600033905090565b8151835114611802576040517f08c379a00000000000000000000000000000000000000000000000000000000081526004016117f99061451f565b60405180910390fd5b600073ffffffffffffffffffffffffffffffffffffffff168473ffffffffffffffffffffffffffffffffffffffff1603611871576040517f08c379a0000000000000000000000000000000000000000000000000000000008152600401611868906145b1565b60405180910390fd5b600061187b6117b6565b905061188b818787878787612938565b60005b8451811015611a3c5760008582815181106118ac576118ab613cec565b5b6020026020010151905060008583815181106118cb576118ca613cec565b5b60200260200101519050600080600084815260200190815260200160002060008b73ffffffffffffffffffffffffffffffffffffffff1673ffffffffffffffffffffffffffffffffffffffff1681526020019081526020016000205490508181101561196c576040517f08c379a000000000000000000000000000000000000000000000000000000000815260040161196390614643565b60405180910390fd5b81810360008085815260200190815260200160002060008c73ffffffffffffffffffffffffffffffffffffffff1673ffffffffffffffffffffffffffffffffffffffff168152602001908152602001600020819055508160008085815260200190815260200160002060008b73ffffffffffffffffffffffffffffffffffffffff1673ffffffffffffffffffffffffffffffffffffffff1681526020019081526020016000206000828254611a2191906141ce565b9250508190555050505080611a3590613fe2565b905061188e565b508473ffffffffffffffffffffffffffffffffffffffff168673ffffffffffffffffffffffffffffffffffffffff168273ffffffffffffffffffffffffffffffffffffffff167f4a39dc06d4c0dbc64b70af90fd698a233a518aa5d07e595d983b8c0526c8f7fb8787604051611ab3929190614663565b60405180910390a4611ac9818787878787612940565b611ad7818787878787612948565b505050505050565b600073ffffffffffffffffffffffffffffffffffffffff168373ffffffffffffffffffffffffffffffffffffffff1603611b4e576040517f08c379a0000000000000000000000000000000000000000000000000000000008152600401611b459061470c565b60405180910390fd5b8051825114611b92576040517f08c379a0000000000000000000000000000000000000000000000000000000008152600401611b899061451f565b60405180910390fd5b6000611b9c6117b6565b9050611bbc81856000868660405180602001604052806000815250612938565b60005b8351811015611d09576000848281518110611bdd57611bdc613cec565b5b602002602001015190506000848381518110611bfc57611bfb613cec565b5b60200260200101519050600080600084815260200190815260200160002060008973ffffffffffffffffffffffffffffffffffffffff1673ffffffffffffffffffffffffffffffffffffffff16815260200190815260200160002054905081811015611c9d576040517f08c379a0000000000000000000000000000000000000000000000000000000008152600401611c949061479e565b60405180910390fd5b81810360008085815260200190815260200160002060008a73ffffffffffffffffffffffffffffffffffffffff1673ffffffffffffffffffffffffffffffffffffffff168152602001908152602001600020819055505050508080611d0190613fe2565b915050611bbf565b50600073ffffffffffffffffffffffffffffffffffffffff168473ffffffffffffffffffffffffffffffffffffffff168273ffffffffffffffffffffffffffffffffffffffff167f4a39dc06d4c0dbc64b70af90fd698a233a518aa5d07e595d983b8c0526c8f7fb8686604051611d81929190614663565b60405180910390a4611da781856000868660405180602001604052806000815250612940565b50505050565b600073ffffffffffffffffffffffffffffffffffffffff168473ffffffffffffffffffffffffffffffffffffffff1603611e1c576040517f08c379a0000000000000000000000000000000000000000000000000000000008152600401611e1390614830565b60405180910390fd5b8151835114611e60576040517f08c379a0000000000000000000000000000000000000000000000000000000008152600401611e579061451f565b60405180910390fd5b6000611e6a6117b6565b9050611e7b81600087878787612938565b60005b8451811015611f3457838181518110611e9a57611e99613cec565b5b6020026020010151600080878481518110611eb857611eb7613cec565b5b6020026020010151815260200190815260200160002060008873ffffffffffffffffffffffffffffffffffffffff1673ffffffffffffffffffffffffffffffffffffffff1681526020019081526020016000206000828254611f1a91906141ce565b925050819055508080611f2c90613fe2565b915050611e7e565b508473ffffffffffffffffffffffffffffffffffffffff16600073ffffffffffffffffffffffffffffffffffffffff168273ffffffffffffffffffffffffffffffffffffffff167f4a39dc06d4c0dbc64b70af90fd698a233a518aa5d07e595d983b8c0526c8f7fb8787604051611fac929190614663565b60405180910390a4611fc381600087878787612940565b611fd281600087878787612948565b5050505050565b6000600360009054906101000a900473ffffffffffffffffffffffffffffffffffffffff16905081600360006101000a81548173ffffffffffffffffffffffffffffffffffffffff021916908373ffffffffffffffffffffffffffffffffffffffff1602179055508173ffffffffffffffffffffffffffffffffffffffff168173ffffffffffffffffffffffffffffffffffffffff167f8be0079c531659141344cd1fd0a4f28419497f9722a3daafe3b4186f6b6457e060405160405180910390a35050565b600073ffffffffffffffffffffffffffffffffffffffff168473ffffffffffffffffffffffffffffffffffffffff160361210e576040517f08c379a000000000000000000000000000000000000000000000000000000000815260040161210590614830565b60405180910390fd5b60006121186117b6565b9050600061212585612b1f565b9050600061213285612b1f565b905061214383600089858589612938565b8460008088815260200190815260200160002060008973ffffffffffffffffffffffffffffffffffffffff1673ffffffffffffffffffffffffffffffffffffffff16815260200190815260200160002060008282546121a291906141ce565b925050819055508673ffffffffffffffffffffffffffffffffffffffff16600073ffffffffffffffffffffffffffffffffffffffff168473ffffffffffffffffffffffffffffffffffffffff167fc3d58168c5ae7397731d063d5bbf3d657854427343f4c083240f7aacaa2d0f628989604051612220929190614850565b60405180910390a461223783600089858589612940565b61224683600089898989612b99565b50505050505050565b8173ffffffffffffffffffffffffffffffffffffffff168373ffffffffffffffffffffffffffffffffffffffff16036122bd576040517f08c379a00000000000000000000000000000000000000000000000000000000081526004016122b4906148eb565b60405180910390fd5b80600160008573ffffffffffffffffffffffffffffffffffffffff1673ffffffffffffffffffffffffffffffffffffffff16815260200190815260200160002060008473ffffffffffffffffffffffffffffffffffffffff1673ffffffffffffffffffffffffffffffffffffffff16815260200190815260200160002060006101000a81548160ff0219169083151502179055508173ffffffffffffffffffffffffffffffffffffffff168373ffffffffffffffffffffffffffffffffffffffff167f17307eab39ab6107e8899845ad3d59bd9653f200f220920489ca2b5937696c31836040516123ae9190613011565b60405180910390a3505050565b600073ffffffffffffffffffffffffffffffffffffffff168373ffffffffffffffffffffffffffffffffffffffff160361242a576040517f08c379a00000000000000000000000000000000000000000000000000000000081526004016124219061470c565b60405180910390fd5b60006124346117b6565b9050600061244184612b1f565b9050600061244e84612b1f565b905061246e83876000858560405180602001604052806000815250612938565b600080600087815260200190815260200160002060008873ffffffffffffffffffffffffffffffffffffffff1673ffffffffffffffffffffffffffffffffffffffff16815260200190815260200160002054905084811015612505576040517f08c379a00000000000000000000000000000000000000000000000000000000081526004016124fc9061479e565b60405180910390fd5b84810360008088815260200190815260200160002060008973ffffffffffffffffffffffffffffffffffffffff1673ffffffffffffffffffffffffffffffffffffffff16815260200190815260200160002081905550600073ffffffffffffffffffffffffffffffffffffffff168773ffffffffffffffffffffffffffffffffffffffff168573ffffffffffffffffffffffffffffffffffffffff167fc3d58168c5ae7397731d063d5bbf3d657854427343f4c083240f7aacaa2d0f6289896040516125d2929190614850565b60405180910390a46125f884886000868660405180602001604052806000815250612940565b50505050505050565b612699828260405160240161261792919061490b565b6040516020818303038152906040527f319af333000000000000000000000000000000000000000000000000000000007bffffffffffffffffffffffffffffffffffffffffffffffffffffffff19166020820180517bffffffffffffffffffffffffffffffffffffffffffffffffffffffff8381831617835250505050612d70565b5050565b600073ffffffffffffffffffffffffffffffffffffffff168473ffffffffffffffffffffffffffffffffffffffff160361270c576040517f08c379a0000000000000000000000000000000000000000000000000000000008152600401612703906145b1565b60405180910390fd5b60006127166117b6565b9050600061272385612b1f565b9050600061273085612b1f565b9050612740838989858589612938565b600080600088815260200190815260200160002060008a73ffffffffffffffffffffffffffffffffffffffff1673ffffffffffffffffffffffffffffffffffffffff168152602001908152602001600020549050858110156127d7576040517f08c379a00000000000000000000000000000000000000000000000000000000081526004016127ce90614643565b60405180910390fd5b85810360008089815260200190815260200160002060008b73ffffffffffffffffffffffffffffffffffffffff1673ffffffffffffffffffffffffffffffffffffffff168152602001908152602001600020819055508560008089815260200190815260200160002060008a73ffffffffffffffffffffffffffffffffffffffff1673ffffffffffffffffffffffffffffffffffffffff168152602001908152602001600020600082825461288c91906141ce565b925050819055508773ffffffffffffffffffffffffffffffffffffffff168973ffffffffffffffffffffffffffffffffffffffff168573ffffffffffffffffffffffffffffffffffffffff167fc3d58168c5ae7397731d063d5bbf3d657854427343f4c083240f7aacaa2d0f628a8a604051612909929190614850565b60405180910390a461291f848a8a86868a612940565b61292d848a8a8a8a8a612b99565b505050505050505050565b505050505050565b505050505050565b6129678473ffffffffffffffffffffffffffffffffffffffff16612d99565b15612b17578373ffffffffffffffffffffffffffffffffffffffff1663bc197c8187878686866040518663ffffffff1660e01b81526004016129ad959493929190614990565b6020604051808303816000875af19250505080156129e957506040513d601f19601f820116820180604052508101906129e69190614a0d565b60015b612a8e576129f5614a47565b806308c379a003612a515750612a09614a69565b80612a145750612a53565b806040517f08c379a0000000000000000000000000000000000000000000000000000000008152600401612a4891906130c5565b60405180910390fd5b505b6040517f08c379a0000000000000000000000000000000000000000000000000000000008152600401612a8590614b6b565b60405180910390fd5b63bc197c8160e01b7bffffffffffffffffffffffffffffffffffffffffffffffffffffffff1916817bffffffffffffffffffffffffffffffffffffffffffffffffffffffff191614612b15576040517f08c379a0000000000000000000000000000000000000000000000000000000008152600401612b0c90614bfd565b60405180910390fd5b505b505050505050565b60606000600167ffffffffffffffff811115612b3e57612b3d6131f9565b5b604051908082528060200260200182016040528015612b6c5781602001602082028036833780820191505090505b5090508281600081518110612b8457612b83613cec565b5b60200260200101818152505080915050919050565b612bb88473ffffffffffffffffffffffffffffffffffffffff16612d99565b15612d68578373ffffffffffffffffffffffffffffffffffffffff1663f23a6e6187878686866040518663ffffffff1660e01b8152600401612bfe959493929190614c1d565b6020604051808303816000875af1925050508015612c3a57506040513d601f19601f82011682018060405250810190612c379190614a0d565b60015b612cdf57612c46614a47565b806308c379a003612ca25750612c5a614a69565b80612c655750612ca4565b806040517f08c379a0000000000000000000000000000000000000000000000000000000008152600401612c9991906130c5565b60405180910390fd5b505b6040517f08c379a0000000000000000000000000000000000000000000000000000000008152600401612cd690614b6b565b60405180910390fd5b63f23a6e6160e01b7bffffffffffffffffffffffffffffffffffffffffffffffffffffffff1916817bffffffffffffffffffffffffffffffffffffffffffffffffffffffff191614612d66576040517f08c379a0000000000000000000000000000000000000000000000000000000008152600401612d5d90614bfd565b60405180910390fd5b505b505050505050565b60008151905060006a636f6e736f6c652e6c6f679050602083016000808483855afa5050505050565b6000808273ffffffffffffffffffffffffffffffffffffffff163b119050919050565b828054612dc890613cbb565b90600052602060002090601f016020900481019282612dea5760008555612e31565b82601f10612e0357805160ff1916838001178555612e31565b82800160010185558215612e31579182015b82811115612e30578251825591602001919060010190612e15565b5b509050612e3e9190612e42565b5090565b5b80821115612e5b576000816000905550600101612e43565b5090565b6000604051905090565b600080fd5b600080fd5b600073ffffffffffffffffffffffffffffffffffffffff82169050919050565b6000612e9e82612e73565b9050919050565b612eae81612e93565b8114612eb957600080fd5b50565b600081359050612ecb81612ea5565b92915050565b6000819050919050565b612ee481612ed1565b8114612eef57600080fd5b50565b600081359050612f0181612edb565b92915050565b60008060408385031215612f1e57612f1d612e69565b5b6000612f2c85828601612ebc565b9250506020612f3d85828601612ef2565b9150509250929050565b612f5081612ed1565b82525050565b6000602082019050612f6b6000830184612f47565b92915050565b60007fffffffff0000000000000000000000000000000000000000000000000000000082169050919050565b612fa681612f71565b8114612fb157600080fd5b50565b600081359050612fc381612f9d565b92915050565b600060208284031215612fdf57612fde612e69565b5b6000612fed84828501612fb4565b91505092915050565b60008115159050919050565b61300b81612ff6565b82525050565b60006020820190506130266000830184613002565b92915050565b600081519050919050565b600082825260208201905092915050565b60005b8381101561306657808201518184015260208101905061304b565b83811115613075576000848401525b50505050565b6000601f19601f8301169050919050565b60006130978261302c565b6130a18185613037565b93506130b1818560208601613048565b6130ba8161307b565b840191505092915050565b600060208201905081810360008301526130df818461308c565b905092915050565b6000602082840312156130fd576130fc612e69565b5b600061310b84828501612ef2565b91505092915050565b600081519050919050565b600082825260208201905092915050565b6000819050602082019050919050565b61314981612ed1565b82525050565b600061315b8383613140565b60208301905092915050565b6000602082019050919050565b600061317f82613114565b613189818561311f565b935061319483613130565b8060005b838110156131c55781516131ac888261314f565b97506131b783613167565b925050600181019050613198565b5085935050505092915050565b600060208201905081810360008301526131ec8184613174565b905092915050565b600080fd5b7f4e487b7100000000000000000000000000000000000000000000000000000000600052604160045260246000fd5b6132318261307b565b810181811067ffffffffffffffff821117156132505761324f6131f9565b5b80604052505050565b6000613263612e5f565b905061326f8282613228565b919050565b600067ffffffffffffffff82111561328f5761328e6131f9565b5b602082029050602081019050919050565b600080fd5b60006132b86132b384613274565b613259565b905080838252602082019050602084028301858111156132db576132da6132a0565b5b835b8181101561330457806132f08882612ef2565b8452602084019350506020810190506132dd565b5050509392505050565b600082601f830112613323576133226131f4565b5b81356133338482602086016132a5565b91505092915050565b600080fd5b600067ffffffffffffffff82111561335c5761335b6131f9565b5b6133658261307b565b9050602081019050919050565b82818337600083830152505050565b600061339461338f84613341565b613259565b9050828152602081018484840111156133b0576133af61333c565b5b6133bb848285613372565b509392505050565b600082601f8301126133d8576133d76131f4565b5b81356133e8848260208601613381565b91505092915050565b600080600080600060a0868803121561340d5761340c612e69565b5b600061341b88828901612ebc565b955050602061342c88828901612ebc565b945050604086013567ffffffffffffffff81111561344d5761344c612e6e565b5b6134598882890161330e565b935050606086013567ffffffffffffffff81111561347a57613479612e6e565b5b6134868882890161330e565b925050608086013567ffffffffffffffff8111156134a7576134a6612e6e565b5b6134b3888289016133c3565b9150509295509295909350565b600067ffffffffffffffff8211156134db576134da6131f9565b5b602082029050602081019050919050565b60006134ff6134fa846134c0565b613259565b90508083825260208201905060208402830185811115613522576135216132a0565b5b835b8181101561354b57806135378882612ebc565b845260208401935050602081019050613524565b5050509392505050565b600082601f83011261356a576135696131f4565b5b813561357a8482602086016134ec565b91505092915050565b6000806040838503121561359a57613599612e69565b5b600083013567ffffffffffffffff8111156135b8576135b7612e6e565b5b6135c485828601613555565b925050602083013567ffffffffffffffff8111156135e5576135e4612e6e565b5b6135f18582860161330e565b9150509250929050565b600080600080600060a0868803121561361757613616612e69565b5b600061362588828901612ebc565b955050602086013567ffffffffffffffff81111561364657613645612e6e565b5b6136528882890161330e565b945050604086013567ffffffffffffffff81111561367357613672612e6e565b5b61367f8882890161330e565b935050606086013567ffffffffffffffff8111156136a05761369f612e6e565b5b6136ac8882890161330e565b925050608086013567ffffffffffffffff8111156136cd576136cc612e6e565b5b6136d98882890161330e565b9150509295509295909350565b600067ffffffffffffffff82169050919050565b613703816136e6565b811461370e57600080fd5b50565b600081359050613720816136fa565b92915050565b60008060006060848603121561373f5761373e612e69565b5b600061374d86828701612ebc565b935050602061375e86828701613711565b925050604061376f86828701612ef2565b9150509250925092565b600080604083850312156137905761378f612e69565b5b600083013567ffffffffffffffff8111156137ae576137ad612e6e565b5b6137ba8582860161330e565b925050602083013567ffffffffffffffff8111156137db576137da612e6e565b5b6137e78582860161330e565b9150509250929050565b6000819050919050565b600061381661381161380c84612e73565b6137f1565b612e73565b9050919050565b6000613828826137fb565b9050919050565b600061383a8261381d565b9050919050565b61384a8161382f565b82525050565b60006020820190506138656000830184613841565b92915050565b600067ffffffffffffffff821115613886576138856131f9565b5b61388f8261307b565b9050602081019050919050565b60006138af6138aa8461386b565b613259565b9050828152602081018484840111156138cb576138ca61333c565b5b6138d6848285613372565b509392505050565b600082601f8301126138f3576138f26131f4565b5b813561390384826020860161389c565b91505092915050565b6000806040838503121561392357613922612e69565b5b600061393185828601612ef2565b925050602083013567ffffffffffffffff81111561395257613951612e6e565b5b61395e858286016138de565b9150509250929050565b61397181612e93565b82525050565b600060208201905061398c6000830184613968565b92915050565b61399b81612ff6565b81146139a657600080fd5b50565b6000813590506139b881613992565b92915050565b600080604083850312156139d5576139d4612e69565b5b60006139e385828601612ebc565b92505060206139f4858286016139a9565b9150509250929050565b600060208284031215613a1457613a13612e69565b5b6000613a2284828501613711565b91505092915050565b60008060408385031215613a4257613a41612e69565b5b6000613a5085828601612ef2565b9250506020613a6185828601612ef2565b9150509250929050565b600080600060608486031215613a8457613a83612e69565b5b6000613a9286828701612ebc565b935050602084013567ffffffffffffffff811115613ab357613ab2612e6e565b5b613abf8682870161330e565b925050604084013567ffffffffffffffff811115613ae057613adf612e6e565b5b613aec8682870161330e565b9150509250925092565b60008060408385031215613b0d57613b0c612e69565b5b6000613b1b85828601612ebc565b9250506020613b2c85828601612ebc565b9150509250929050565b600080600080600060a08688031215613b5257613b51612e69565b5b6000613b6088828901612ebc565b9550506020613b7188828901612ebc565b9450506040613b8288828901612ef2565b9350506060613b9388828901612ef2565b925050608086013567ffffffffffffffff811115613bb457613bb3612e6e565b5b613bc0888289016133c3565b9150509295509295909350565b600060208284031215613be357613be2612e69565b5b6000613bf184828501612ebc565b91505092915050565b7f455243313135353a2062616c616e636520717565727920666f7220746865207a60008201527f65726f2061646472657373000000000000000000000000000000000000000000602082015250565b6000613c56602b83613037565b9150613c6182613bfa565b604082019050919050565b60006020820190508181036000830152613c8581613c49565b9050919050565b7f4e487b7100000000000000000000000000000000000000000000000000000000600052602260045260246000fd5b60006002820490506001821680613cd357607f821691505b602082108103613ce657613ce5613c8c565b5b50919050565b7f4e487b7100000000000000000000000000000000000000000000000000000000600052603260045260246000fd5b7f4e487b7100000000000000000000000000000000000000000000000000000000600052601160045260246000fd5b6000613d55826136e6565b915067ffffffffffffffff8203613d6f57613d6e613d1b565b5b600182019050919050565b7f455243313135353a207472616e736665722063616c6c6572206973206e6f742060008201527f6f776e6572206e6f7220617070726f7665640000000000000000000000000000602082015250565b6000613dd6603283613037565b9150613de182613d7a565b604082019050919050565b60006020820190508181036000830152613e0581613dc9565b9050919050565b7f616464726573732062616c616e63652073686f756c642062652067726561746560008201527f7220300000000000000000000000000000000000000000000000000000000000602082015250565b6000613e68602383613037565b9150613e7382613e0c565b604082019050919050565b60006020820190508181036000830152613e9781613e5b565b9050919050565b600081905092915050565b50565b6000613eb9600083613e9e565b9150613ec482613ea9565b600082019050919050565b6000613eda82613eac565b9150819050919050565b7f4661696c6564207769746864726177206d6f6e65790000000000000000000000600082015250565b6000613f1a601583613037565b9150613f2582613ee4565b602082019050919050565b60006020820190508181036000830152613f4981613f0d565b9050919050565b7f455243313135353a206163636f756e747320616e6420696473206c656e67746860008201527f206d69736d617463680000000000000000000000000000000000000000000000602082015250565b6000613fac602983613037565b9150613fb782613f50565b604082019050919050565b60006020820190508181036000830152613fdb81613f9f565b9050919050565b6000613fed82612ed1565b91507fffffffffffffffffffffffffffffffffffffffffffffffffffffffffffffffff820361401f5761401e613d1b565b5b600182019050919050565b7f4f776e61626c653a2063616c6c6572206973206e6f7420746865206f776e6572600082015250565b6000614060602083613037565b915061406b8261402a565b602082019050919050565b6000602082019050818103600083015261408f81614053565b9050919050565b7f4e487b7100000000000000000000000000000000000000000000000000000000600052601260045260246000fd5b60006140d082612ed1565b91506140db83612ed1565b9250826140eb576140ea614096565b5b828204905092915050565b7f616d6f756e742073686f756c6420626520657175616c20636f73740000000000600082015250565b600061412c601b83613037565b9150614137826140f6565b602082019050919050565b6000602082019050818103600083015261415b8161411f565b9050919050565b7f57726f6e67207465616d20706172616d65746572000000000000000000000000600082015250565b6000614198601483613037565b91506141a382614162565b602082019050919050565b600060208201905081810360008301526141c78161418b565b9050919050565b60006141d982612ed1565b91506141e483612ed1565b9250827fffffffffffffffffffffffffffffffffffffffffffffffffffffffffffffffff0382111561421957614218613d1b565b5b828201905092915050565b7f54686520616d6f756e74206f66207469636b657473206973206e6f742061766160008201527f696c61626c650000000000000000000000000000000000000000000000000000602082015250565b6000614280602683613037565b915061428b82614224565b604082019050919050565b600060208201905081810360008301526142af81614273565b9050919050565b60006142c182612ed1565b91506142cc83612ed1565b9250817fffffffffffffffffffffffffffffffffffffffffffffffffffffffffffffffff048311821515161561430557614304613d1b565b5b828202905092915050565b60006060820190506143256000830186613968565b6143326020830185613968565b61433f6040830184612f47565b949350505050565b60008151905061435681613992565b92915050565b60006020828403121561437257614371612e69565b5b600061438084828501614347565b91505092915050565b7f455243313135353a2063616c6c6572206973206e6f74206f776e6572206e6f7260008201527f20617070726f7665640000000000000000000000000000000000000000000000602082015250565b60006143e5602983613037565b91506143f082614389565b604082019050919050565b60006020820190508181036000830152614414816143d8565b9050919050565b7f4f776e61626c653a206e6577206f776e657220697320746865207a65726f206160008201527f6464726573730000000000000000000000000000000000000000000000000000602082015250565b6000614477602683613037565b91506144828261441b565b604082019050919050565b600060208201905081810360008301526144a68161446a565b9050919050565b7f455243313135353a2069647320616e6420616d6f756e7473206c656e6774682060008201527f6d69736d61746368000000000000000000000000000000000000000000000000602082015250565b6000614509602883613037565b9150614514826144ad565b604082019050919050565b60006020820190508181036000830152614538816144fc565b9050919050565b7f455243313135353a207472616e7366657220746f20746865207a65726f20616460008201527f6472657373000000000000000000000000000000000000000000000000000000602082015250565b600061459b602583613037565b91506145a68261453f565b604082019050919050565b600060208201905081810360008301526145ca8161458e565b9050919050565b7f455243313135353a20696e73756666696369656e742062616c616e636520666f60008201527f72207472616e7366657200000000000000000000000000000000000000000000602082015250565b600061462d602a83613037565b9150614638826145d1565b604082019050919050565b6000602082019050818103600083015261465c81614620565b9050919050565b6000604082019050818103600083015261467d8185613174565b905081810360208301526146918184613174565b90509392505050565b7f455243313135353a206275726e2066726f6d20746865207a65726f206164647260008201527f6573730000000000000000000000000000000000000000000000000000000000602082015250565b60006146f6602383613037565b91506147018261469a565b604082019050919050565b60006020820190508181036000830152614725816146e9565b9050919050565b7f455243313135353a206275726e20616d6f756e7420657863656564732062616c60008201527f616e636500000000000000000000000000000000000000000000000000000000602082015250565b6000614788602483613037565b91506147938261472c565b604082019050919050565b600060208201905081810360008301526147b78161477b565b9050919050565b7f455243313135353a206d696e7420746f20746865207a65726f2061646472657360008201527f7300000000000000000000000000000000000000000000000000000000000000602082015250565b600061481a602183613037565b9150614825826147be565b604082019050919050565b600060208201905081810360008301526148498161480d565b9050919050565b60006040820190506148656000830185612f47565b6148726020830184612f47565b9392505050565b7f455243313135353a2073657474696e6720617070726f76616c2073746174757360008201527f20666f722073656c660000000000000000000000000000000000000000000000602082015250565b60006148d5602983613037565b91506148e082614879565b604082019050919050565b60006020820190508181036000830152614904816148c8565b9050919050565b60006040820190508181036000830152614925818561308c565b90506149346020830184613968565b9392505050565b600081519050919050565b600082825260208201905092915050565b60006149628261493b565b61496c8185614946565b935061497c818560208601613048565b6149858161307b565b840191505092915050565b600060a0820190506149a56000830188613968565b6149b26020830187613968565b81810360408301526149c48186613174565b905081810360608301526149d88185613174565b905081810360808301526149ec8184614957565b90509695505050505050565b600081519050614a0781612f9d565b92915050565b600060208284031215614a2357614a22612e69565b5b6000614a31848285016149f8565b91505092915050565b60008160e01c9050919050565b600060033d1115614a665760046000803e614a63600051614a3a565b90505b90565b600060443d10614af657614a7b612e5f565b60043d036004823e80513d602482011167ffffffffffffffff82111715614aa3575050614af6565b808201805167ffffffffffffffff811115614ac15750505050614af6565b80602083010160043d038501811115614ade575050505050614af6565b614aed82602001850186613228565b82955050505050505b90565b7f455243313135353a207472616e7366657220746f206e6f6e204552433131353560008201527f526563656976657220696d706c656d656e746572000000000000000000000000602082015250565b6000614b55603483613037565b9150614b6082614af9565b604082019050919050565b60006020820190508181036000830152614b8481614b48565b9050919050565b7f455243313135353a204552433131353552656365697665722072656a6563746560008201527f6420746f6b656e73000000000000000000000000000000000000000000000000602082015250565b6000614be7602883613037565b9150614bf282614b8b565b604082019050919050565b60006020820190508181036000830152614c1681614bda565b9050919050565b600060a082019050614c326000830188613968565b614c3f6020830187613968565b614c4c6040830186612f47565b614c596060830185612f47565b8181036080830152614c6b8184614957565b9050969550505050505056fea2646970667358221220517bc8fbcbbf859df3f4098eda0310c54368f18e93cf8ae2c0dbfec0364c431b64736f6c634300080e0033",
  "linkReferences": {},
  "deployedLinkReferences": {}
}