{
  "_format": "hh-sol-artifact-1",
  "contractName": "ArmenianLeagueTickets",
  "sourceName": "contracts/ArmenianLeagueTickets.sol",
  "abi": [
    {
      "inputs": [
        {
          "internalType": "contract MyUSDToken",
          "name": "_mysUSDToken",
          "type": "address"
        }
      ],
      "stateMutability": "nonpayable",
      "type": "constructor"
    },
    {
      "anonymous": false,
      "inputs": [
        {
          "indexed": true,
          "internalType": "address",
          "name": "account",
          "type": "address"
        },
        {
          "indexed": true,
          "internalType": "address",
          "name": "operator",
          "type": "address"
        },
        {
          "indexed": false,
          "internalType": "bool",
          "name": "approved",
          "type": "bool"
        }
      ],
      "name": "ApprovalForAll",
      "type": "event"
    },
    {
      "anonymous": false,
      "inputs": [
        {
          "indexed": true,
          "internalType": "address",
          "name": "previousOwner",
          "type": "address"
        },
        {
          "indexed": true,
          "internalType": "address",
          "name": "newOwner",
          "type": "address"
        }
      ],
      "name": "OwnershipTransferred",
      "type": "event"
    },
    {
      "anonymous": false,
      "inputs": [
        {
          "indexed": false,
          "internalType": "address",
          "name": "account",
          "type": "address"
        },
        {
          "indexed": false,
          "internalType": "address",
          "name": "token",
          "type": "address"
        },
        {
          "indexed": false,
          "internalType": "uint256",
          "name": "amount",
          "type": "uint256"
        },
        {
          "indexed": false,
          "internalType": "uint256",
          "name": "rate",
          "type": "uint256"
        }
      ],
      "name": "TokenPurchased",
      "type": "event"
    },
    {
      "anonymous": false,
      "inputs": [
        {
          "indexed": true,
          "internalType": "address",
          "name": "operator",
          "type": "address"
        },
        {
          "indexed": true,
          "internalType": "address",
          "name": "from",
          "type": "address"
        },
        {
          "indexed": true,
          "internalType": "address",
          "name": "to",
          "type": "address"
        },
        {
          "indexed": false,
          "internalType": "uint256[]",
          "name": "ids",
          "type": "uint256[]"
        },
        {
          "indexed": false,
          "internalType": "uint256[]",
          "name": "values",
          "type": "uint256[]"
        }
      ],
      "name": "TransferBatch",
      "type": "event"
    },
    {
      "anonymous": false,
      "inputs": [
        {
          "indexed": true,
          "internalType": "address",
          "name": "operator",
          "type": "address"
        },
        {
          "indexed": true,
          "internalType": "address",
          "name": "from",
          "type": "address"
        },
        {
          "indexed": true,
          "internalType": "address",
          "name": "to",
          "type": "address"
        },
        {
          "indexed": false,
          "internalType": "uint256",
          "name": "id",
          "type": "uint256"
        },
        {
          "indexed": false,
          "internalType": "uint256",
          "name": "value",
          "type": "uint256"
        }
      ],
      "name": "TransferSingle",
      "type": "event"
    },
    {
      "anonymous": false,
      "inputs": [
        {
          "indexed": false,
          "internalType": "string",
          "name": "value",
          "type": "string"
        },
        {
          "indexed": true,
          "internalType": "uint256",
          "name": "id",
          "type": "uint256"
        }
      ],
      "name": "URI",
      "type": "event"
    },
    {
      "inputs": [],
      "name": "USDCCost",
      "outputs": [
        {
          "internalType": "uint256",
          "name": "",
          "type": "uint256"
        }
      ],
      "stateMutability": "view",
      "type": "function"
    },
    {
      "inputs": [
        {
          "internalType": "address",
          "name": "account",
          "type": "address"
        },
        {
          "internalType": "uint256",
          "name": "id",
          "type": "uint256"
        }
      ],
      "name": "balanceOf",
      "outputs": [
        {
          "internalType": "uint256",
          "name": "",
          "type": "uint256"
        }
      ],
      "stateMutability": "view",
      "type": "function"
    },
    {
      "inputs": [
        {
          "internalType": "address[]",
          "name": "accounts",
          "type": "address[]"
        },
        {
          "internalType": "uint256[]",
          "name": "ids",
          "type": "uint256[]"
        }
      ],
      "name": "balanceOfBatch",
      "outputs": [
        {
          "internalType": "uint256[]",
          "name": "",
          "type": "uint256[]"
        }
      ],
      "stateMutability": "view",
      "type": "function"
    },
    {
      "inputs": [],
      "name": "balanceOfTickets",
      "outputs": [
        {
          "internalType": "uint256[]",
          "name": "",
          "type": "uint256[]"
        }
      ],
      "stateMutability": "view",
      "type": "function"
    },
    {
      "inputs": [
        {
          "internalType": "uint64",
          "name": "_id",
          "type": "uint64"
        }
      ],
      "name": "balanceTickets",
      "outputs": [
        {
          "internalType": "uint256",
          "name": "",
          "type": "uint256"
        }
      ],
      "stateMutability": "view",
      "type": "function"
    },
    {
      "inputs": [
        {
          "internalType": "uint256",
          "name": "_id",
          "type": "uint256"
        },
        {
          "internalType": "uint256",
          "name": "_amount",
          "type": "uint256"
        }
      ],
      "name": "burn",
      "outputs": [],
      "stateMutability": "nonpayable",
      "type": "function"
    },
    {
      "inputs": [
        {
          "internalType": "uint256[]",
          "name": "_ids",
          "type": "uint256[]"
        },
        {
          "internalType": "uint256[]",
          "name": "_amounts",
          "type": "uint256[]"
        }
      ],
      "name": "burnBatch",
      "outputs": [],
      "stateMutability": "nonpayable",
      "type": "function"
    },
    {
      "inputs": [
        {
          "internalType": "address",
          "name": "_from",
          "type": "address"
        },
        {
          "internalType": "uint256[]",
          "name": "_burnIds",
          "type": "uint256[]"
        },
        {
          "internalType": "uint256[]",
          "name": "_burnAmounts",
          "type": "uint256[]"
        },
        {
          "internalType": "uint256[]",
          "name": "_mintIds",
          "type": "uint256[]"
        },
        {
          "internalType": "uint256[]",
          "name": "_mintAmounts",
          "type": "uint256[]"
        }
      ],
      "name": "burnForMint",
      "outputs": [],
      "stateMutability": "nonpayable",
      "type": "function"
    },
    {
      "inputs": [],
      "name": "cost",
      "outputs": [
        {
          "internalType": "uint256",
          "name": "",
          "type": "uint256"
        }
      ],
      "stateMutability": "view",
      "type": "function"
    },
    {
      "inputs": [
        {
          "internalType": "address",
          "name": "account",
          "type": "address"
        },
        {
          "internalType": "address",
          "name": "operator",
          "type": "address"
        }
      ],
      "name": "isApprovedForAll",
      "outputs": [
        {
          "internalType": "bool",
          "name": "",
          "type": "bool"
        }
      ],
      "stateMutability": "view",
      "type": "function"
    },
    {
      "inputs": [
        {
          "internalType": "address",
          "name": "_to",
          "type": "address"
        },
        {
          "internalType": "uint64",
          "name": "_id",
          "type": "uint64"
        },
        {
          "internalType": "uint256",
          "name": "_amount",
          "type": "uint256"
        }
      ],
      "name": "mint",
      "outputs": [],
      "stateMutability": "payable",
      "type": "function"
    },
    {
      "inputs": [
        {
          "internalType": "address",
          "name": "_to",
          "type": "address"
        },
        {
          "internalType": "uint256[]",
          "name": "_ids",
          "type": "uint256[]"
        },
        {
          "internalType": "uint256[]",
          "name": "_amounts",
          "type": "uint256[]"
        }
      ],
      "name": "mintBatch",
      "outputs": [],
      "stateMutability": "nonpayable",
      "type": "function"
    },
    {
      "inputs": [
        {
          "internalType": "address",
          "name": "_to",
          "type": "address"
        },
        {
          "internalType": "uint64",
          "name": "_id",
          "type": "uint64"
        },
        {
          "internalType": "uint256",
          "name": "_amount",
          "type": "uint256"
        }
      ],
      "name": "mintByUSDC",
      "outputs": [],
      "stateMutability": "payable",
      "type": "function"
    },
    {
      "inputs": [],
      "name": "mysUSDToken",
      "outputs": [
        {
          "internalType": "contract MyUSDToken",
          "name": "",
          "type": "address"
        }
      ],
      "stateMutability": "view",
      "type": "function"
    },
    {
      "inputs": [],
      "name": "name",
      "outputs": [
        {
          "internalType": "string",
          "name": "",
          "type": "string"
        }
      ],
      "stateMutability": "view",
      "type": "function"
    },
    {
      "inputs": [],
      "name": "owner",
      "outputs": [
        {
          "internalType": "address",
          "name": "",
          "type": "address"
        }
      ],
      "stateMutability": "view",
      "type": "function"
    },
    {
      "inputs": [],
      "name": "rate",
      "outputs": [
        {
          "internalType": "uint256",
          "name": "",
          "type": "uint256"
        }
      ],
      "stateMutability": "view",
      "type": "function"
    },
    {
      "inputs": [],
      "name": "renounceOwnership",
      "outputs": [],
      "stateMutability": "nonpayable",
      "type": "function"
    },
    {
      "inputs": [
        {
          "internalType": "address",
          "name": "from",
          "type": "address"
        },
        {
          "internalType": "address",
          "name": "to",
          "type": "address"
        },
        {
          "internalType": "uint256[]",
          "name": "ids",
          "type": "uint256[]"
        },
        {
          "internalType": "uint256[]",
          "name": "amounts",
          "type": "uint256[]"
        },
        {
          "internalType": "bytes",
          "name": "data",
          "type": "bytes"
        }
      ],
      "name": "safeBatchTransferFrom",
      "outputs": [],
      "stateMutability": "nonpayable",
      "type": "function"
    },
    {
      "inputs": [
        {
          "internalType": "address",
          "name": "from",
          "type": "address"
        },
        {
          "internalType": "address",
          "name": "to",
          "type": "address"
        },
        {
          "internalType": "uint256",
          "name": "id",
          "type": "uint256"
        },
        {
          "internalType": "uint256",
          "name": "amount",
          "type": "uint256"
        },
        {
          "internalType": "bytes",
          "name": "data",
          "type": "bytes"
        }
      ],
      "name": "safeTransferFrom",
      "outputs": [],
      "stateMutability": "nonpayable",
      "type": "function"
    },
    {
      "inputs": [
        {
          "internalType": "address",
          "name": "operator",
          "type": "address"
        },
        {
          "internalType": "bool",
          "name": "approved",
          "type": "bool"
        }
      ],
      "name": "setApprovalForAll",
      "outputs": [],
      "stateMutability": "nonpayable",
      "type": "function"
    },
    {
      "inputs": [
        {
          "internalType": "uint256",
          "name": "_id",
          "type": "uint256"
        },
        {
          "internalType": "string",
          "name": "_uri",
          "type": "string"
        }
      ],
      "name": "setURI",
      "outputs": [],
      "stateMutability": "nonpayable",
      "type": "function"
    },
    {
      "inputs": [
        {
          "internalType": "bytes4",
          "name": "interfaceId",
          "type": "bytes4"
        }
      ],
      "name": "supportsInterface",
      "outputs": [
        {
          "internalType": "bool",
          "name": "",
          "type": "bool"
        }
      ],
      "stateMutability": "view",
      "type": "function"
    },
    {
      "inputs": [],
      "name": "symbol",
      "outputs": [
        {
          "internalType": "string",
          "name": "",
          "type": "string"
        }
      ],
      "stateMutability": "view",
      "type": "function"
    },
    {
      "inputs": [
        {
          "internalType": "uint256",
          "name": "",
          "type": "uint256"
        }
      ],
      "name": "tokenURI",
      "outputs": [
        {
          "internalType": "string",
          "name": "",
          "type": "string"
        }
      ],
      "stateMutability": "view",
      "type": "function"
    },
    {
      "inputs": [
        {
          "internalType": "address",
          "name": "newOwner",
          "type": "address"
        }
      ],
      "name": "transferOwnership",
      "outputs": [],
      "stateMutability": "nonpayable",
      "type": "function"
    },
    {
      "inputs": [
        {
          "internalType": "uint256",
          "name": "_id",
          "type": "uint256"
        }
      ],
      "name": "uri",
      "outputs": [
        {
          "internalType": "string",
          "name": "",
          "type": "string"
        }
      ],
      "stateMutability": "view",
      "type": "function"
    },
    {
      "inputs": [],
      "name": "withdraw",
      "outputs": [],
      "stateMutability": "nonpayable",
      "type": "function"
    }
  ],
  "bytecode": "0x6080604052662386f26fc10000600655601e60075560646008553480156200002657600080fd5b506040516200511b3803806200511b83398181016040528101906200004c91906200038a565b604051806020016040528060008152506200006d816200017260201b60201c565b506200008e620000826200018e60201b60201c565b6200019660201b60201c565b6040518060400160405280601581526020017f41726d656e69616e5072656d6965724c6561677565000000000000000000000081525060049080519060200190620000db9291906200025c565b506040518060400160405280601581526020017f41726d656e69616e5072656d6965724c6561677565000000000000000000000081525060059080519060200190620001299291906200025c565b5080600960006101000a81548173ffffffffffffffffffffffffffffffffffffffff021916908373ffffffffffffffffffffffffffffffffffffffff1602179055505062000420565b80600290805190602001906200018a9291906200025c565b5050565b600033905090565b6000600360009054906101000a900473ffffffffffffffffffffffffffffffffffffffff16905081600360006101000a81548173ffffffffffffffffffffffffffffffffffffffff021916908373ffffffffffffffffffffffffffffffffffffffff1602179055508173ffffffffffffffffffffffffffffffffffffffff168173ffffffffffffffffffffffffffffffffffffffff167f8be0079c531659141344cd1fd0a4f28419497f9722a3daafe3b4186f6b6457e060405160405180910390a35050565b8280546200026a90620003eb565b90600052602060002090601f0160209004810192826200028e5760008555620002da565b82601f10620002a957805160ff1916838001178555620002da565b82800160010185558215620002da579182015b82811115620002d9578251825591602001919060010190620002bc565b5b509050620002e99190620002ed565b5090565b5b8082111562000308576000816000905550600101620002ee565b5090565b600080fd5b600073ffffffffffffffffffffffffffffffffffffffff82169050919050565b60006200033e8262000311565b9050919050565b6000620003528262000331565b9050919050565b620003648162000345565b81146200037057600080fd5b50565b600081519050620003848162000359565b92915050565b600060208284031215620003a357620003a26200030c565b5b6000620003b38482850162000373565b91505092915050565b7f4e487b7100000000000000000000000000000000000000000000000000000000600052602260045260246000fd5b600060028204905060018216806200040457607f821691505b6020821081036200041a5762000419620003bc565b5b50919050565b614ceb80620004306000396000f3fe6080604052600436106101b65760003560e01c806384e515c1116100ec578063c87b56dd1161008a578063e985e9c511610064578063e985e9c5146105ea578063eeafa0d414610627578063f242432a14610643578063f2fde38b1461066c576101b6565b8063c87b56dd14610559578063d81d0a1514610596578063e49e811e146105bf576101b6565b806395d89b41116100c657806395d89b411461049f578063a22cb465146104ca578063a621a6c8146104f3578063b390c0ab14610530576101b6565b806384e515c114610420578063862440e21461044b5780638da5cb5b14610474576101b6565b80632eb2c2d611610159578063510f410411610133578063510f41041461039b578063715018a6146103c45780637fe7adfc146103db57806383ca4b6f146103f7576101b6565b80632eb2c2d61461031e5780633ccfd60b146103475780634e1273f41461035e576101b6565b80630e89341c116101955780630e89341c1461026057806313faede61461029d578063259933e0146102c85780632c4e722e146102f3576101b6565b8062fdd58e146101bb57806301ffc9a7146101f857806306fdde0314610235575b600080fd5b3480156101c757600080fd5b506101e260048036038101906101dd9190612f45565b610695565b6040516101ef9190612f94565b60405180910390f35b34801561020457600080fd5b5061021f600480360381019061021a9190613007565b61075d565b60405161022c919061304f565b60405180910390f35b34801561024157600080fd5b5061024a61083f565b6040516102579190613103565b60405180910390f35b34801561026c57600080fd5b5061028760048036038101906102829190613125565b6108cd565b6040516102949190613103565b60405180910390f35b3480156102a957600080fd5b506102b2610972565b6040516102bf9190612f94565b60405180910390f35b3480156102d457600080fd5b506102dd610978565b6040516102ea9190613210565b60405180910390f35b3480156102ff57600080fd5b50610308610a29565b6040516103159190612f94565b60405180910390f35b34801561032a57600080fd5b506103456004803603810190610340919061342f565b610a2f565b005b34801561035357600080fd5b5061035c610ad0565b005b34801561036a57600080fd5b50610385600480360381019061038091906135c1565b610bc9565b6040516103929190613210565b60405180910390f35b3480156103a757600080fd5b506103c260048036038101906103bd9190613639565b610ce2565b005b3480156103d057600080fd5b506103d9610d8b565b005b6103f560048036038101906103f09190613764565b610e13565b005b34801561040357600080fd5b5061041e600480360381019061041991906137b7565b610fb7565b005b34801561042c57600080fd5b50610435610fc6565b604051610442919061388e565b60405180910390f35b34801561045757600080fd5b50610472600480360381019061046d919061394a565b610fec565b005b34801561048057600080fd5b506104896110cc565b60405161049691906139b5565b60405180910390f35b3480156104ab57600080fd5b506104b46110f6565b6040516104c19190613103565b60405180910390f35b3480156104d657600080fd5b506104f160048036038101906104ec91906139fc565b611184565b005b3480156104ff57600080fd5b5061051a60048036038101906105159190613a3c565b61119a565b6040516105279190612f94565b60405180910390f35b34801561053c57600080fd5b5061055760048036038101906105529190613a69565b6111cb565b005b34801561056557600080fd5b50610580600480360381019061057b9190613125565b6111da565b60405161058d9190613103565b60405180910390f35b3480156105a257600080fd5b506105bd60048036038101906105b89190613aa9565b61127a565b005b3480156105cb57600080fd5b506105d4611316565b6040516105e19190612f94565b60405180910390f35b3480156105f657600080fd5b50610611600480360381019061060c9190613b34565b61131c565b60405161061e919061304f565b60405180910390f35b610641600480360381019061063c9190613764565b6113b0565b005b34801561064f57600080fd5b5061066a60048036038101906106659190613b74565b6115f2565b005b34801561067857600080fd5b50610693600480360381019061068e9190613c0b565b611693565b005b60008073ffffffffffffffffffffffffffffffffffffffff168373ffffffffffffffffffffffffffffffffffffffff1603610705576040517f08c379a00000000000000000000000000000000000000000000000000000000081526004016106fc90613caa565b60405180910390fd5b60008083815260200190815260200160002060008473ffffffffffffffffffffffffffffffffffffffff1673ffffffffffffffffffffffffffffffffffffffff16815260200190815260200160002054905092915050565b60007fd9b67a26000000000000000000000000000000000000000000000000000000007bffffffffffffffffffffffffffffffffffffffffffffffffffffffff1916827bffffffffffffffffffffffffffffffffffffffffffffffffffffffff1916148061082857507f0e89341c000000000000000000000000000000000000000000000000000000007bffffffffffffffffffffffffffffffffffffffffffffffffffffffff1916827bffffffffffffffffffffffffffffffffffffffffffffffffffffffff1916145b8061083857506108378261178a565b5b9050919050565b6004805461084c90613cf9565b80601f016020809104026020016040519081016040528092919081815260200182805461087890613cf9565b80156108c55780601f1061089a576101008083540402835291602001916108c5565b820191906000526020600020905b8154815290600101906020018083116108a857829003601f168201915b505050505081565b6060600b600083815260200190815260200160002080546108ed90613cf9565b80601f016020809104026020016040519081016040528092919081815260200182805461091990613cf9565b80156109665780601f1061093b57610100808354040283529160200191610966565b820191906000526020600020905b81548152906001019060200180831161094957829003601f168201915b50505050509050919050565b60065481565b60606000600a67ffffffffffffffff81111561099757610996613237565b5b6040519080825280602002602001820160405280156109c55781602001602082028036833780820191505090505b50905060005b60098167ffffffffffffffff161015610a21576109e78161119a565b828267ffffffffffffffff1681518110610a0457610a03613d2a565b5b60200260200101818152505080610a1a90613d88565b90506109cb565b508091505090565b60085481565b610a376117f4565b73ffffffffffffffffffffffffffffffffffffffff168573ffffffffffffffffffffffffffffffffffffffff161480610a7d5750610a7c85610a776117f4565b61131c565b5b610abc576040517f08c379a0000000000000000000000000000000000000000000000000000000008152600401610ab390613e2a565b60405180910390fd5b610ac985858585856117fc565b5050505050565b60004711610b13576040517f08c379a0000000000000000000000000000000000000000000000000000000008152600401610b0a90613ebc565b60405180910390fd5b6000610b1d6110cc565b73ffffffffffffffffffffffffffffffffffffffff1647604051610b4090613f0d565b60006040518083038185875af1925050503d8060008114610b7d576040519150601f19603f3d011682016040523d82523d6000602084013e610b82565b606091505b5050905080610bc6576040517f08c379a0000000000000000000000000000000000000000000000000000000008152600401610bbd90613f6e565b60405180910390fd5b50565b60608151835114610c0f576040517f08c379a0000000000000000000000000000000000000000000000000000000008152600401610c0690614000565b60405180910390fd5b6000835167ffffffffffffffff811115610c2c57610c2b613237565b5b604051908082528060200260200182016040528015610c5a5781602001602082028036833780820191505090505b50905060005b8451811015610cd757610ca7858281518110610c7f57610c7e613d2a565b5b6020026020010151858381518110610c9a57610c99613d2a565b5b6020026020010151610695565b828281518110610cba57610cb9613d2a565b5b60200260200101818152505080610cd090614020565b9050610c60565b508091505092915050565b610cea6117f4565b73ffffffffffffffffffffffffffffffffffffffff16610d086110cc565b73ffffffffffffffffffffffffffffffffffffffff1614610d5e576040517f08c379a0000000000000000000000000000000000000000000000000000000008152600401610d55906140b4565b60405180910390fd5b610d69858585611b1d565b610d8485838360405180602001604052806000815250611deb565b5050505050565b610d936117f4565b73ffffffffffffffffffffffffffffffffffffffff16610db16110cc565b73ffffffffffffffffffffffffffffffffffffffff1614610e07576040517f08c379a0000000000000000000000000000000000000000000000000000000008152600401610dfe906140b4565b60405180910390fd5b610e116000612017565b565b808060065434610e239190614103565b14610e63576040517f08c379a0000000000000000000000000000000000000000000000000000000008152600401610e5a90614180565b60405180910390fd5b828260008267ffffffffffffffff161080610e88575060098267ffffffffffffffff16115b15610ecf576000610ece576040517f08c379a0000000000000000000000000000000000000000000000000000000008152600401610ec5906141ec565b60405180910390fd5b5b600a81600a60008567ffffffffffffffff1667ffffffffffffffff16815260200190815260200160002054610f04919061420c565b1115610f4c576000610f4b576040517f08c379a0000000000000000000000000000000000000000000000000000000008152600401610f42906142d4565b60405180910390fd5b5b610f71868667ffffffffffffffff1686604051806020016040528060008152506120dd565b83600a60008767ffffffffffffffff1667ffffffffffffffff1681526020019081526020016000206000828254610fa8919061420c565b92505081905550505050505050565b610fc2338383611b1d565b5050565b600960009054906101000a900473ffffffffffffffffffffffffffffffffffffffff1681565b610ff46117f4565b73ffffffffffffffffffffffffffffffffffffffff166110126110cc565b73ffffffffffffffffffffffffffffffffffffffff1614611068576040517f08c379a000000000000000000000000000000000000000000000000000000000815260040161105f906140b4565b60405180910390fd5b80600b6000848152602001908152602001600020908051906020019061108f929190612dfa565b50817f6bb7ff708619ba0610cba295a58592e0451dee2622938c8755667688daf3529b826040516110c09190613103565b60405180910390a25050565b6000600360009054906101000a900473ffffffffffffffffffffffffffffffffffffffff16905090565b6005805461110390613cf9565b80601f016020809104026020016040519081016040528092919081815260200182805461112f90613cf9565b801561117c5780601f106111515761010080835404028352916020019161117c565b820191906000526020600020905b81548152906001019060200180831161115f57829003601f168201915b505050505081565b61119661118f6117f4565b838361228d565b5050565b6000600a60008367ffffffffffffffff1667ffffffffffffffff168152602001908152602001600020549050919050565b6111d63383836123f9565b5050565b600b60205280600052604060002060009150905080546111f990613cf9565b80601f016020809104026020016040519081016040528092919081815260200182805461122590613cf9565b80156112725780601f1061124757610100808354040283529160200191611272565b820191906000526020600020905b81548152906001019060200180831161125557829003601f168201915b505050505081565b6112826117f4565b73ffffffffffffffffffffffffffffffffffffffff166112a06110cc565b73ffffffffffffffffffffffffffffffffffffffff16146112f6576040517f08c379a00000000000000000000000000000000000000000000000000000000081526004016112ed906140b4565b60405180910390fd5b61131183838360405180602001604052806000815250611deb565b505050565b60075481565b6000600160008473ffffffffffffffffffffffffffffffffffffffff1673ffffffffffffffffffffffffffffffffffffffff16815260200190815260200160002060008373ffffffffffffffffffffffffffffffffffffffff1673ffffffffffffffffffffffffffffffffffffffff16815260200190815260200160002060009054906101000a900460ff16905092915050565b818160008267ffffffffffffffff1610806113d5575060098267ffffffffffffffff16115b1561141c57600061141b576040517f08c379a0000000000000000000000000000000000000000000000000000000008152600401611412906141ec565b60405180910390fd5b5b600a81600a60008567ffffffffffffffff1667ffffffffffffffff16815260200190815260200160002054611451919061420c565b1115611499576000611498576040517f08c379a000000000000000000000000000000000000000000000000000000000815260040161148f906142d4565b60405180910390fd5b5b6114d86040518060400160405280601b81526020017f53656e646572206164647265737320697320257320746f6b656e7300000000008152503061263f565b600960009054906101000a900473ffffffffffffffffffffffffffffffffffffffff1673ffffffffffffffffffffffffffffffffffffffff166323b872dd33306007548761152691906142f4565b6040518463ffffffff1660e01b81526004016115449392919061434e565b6020604051808303816000875af1158015611563573d6000803e3d6000fd5b505050506040513d601f19601f82011682018060405250810190611587919061439a565b506115ad858567ffffffffffffffff1685604051806020016040528060008152506120dd565b82600a60008667ffffffffffffffff1667ffffffffffffffff16815260200190815260200160002060008282546115e4919061420c565b925050819055505050505050565b6115fa6117f4565b73ffffffffffffffffffffffffffffffffffffffff168573ffffffffffffffffffffffffffffffffffffffff161480611640575061163f8561163a6117f4565b61131c565b5b61167f576040517f08c379a000000000000000000000000000000000000000000000000000000000815260040161167690614439565b60405180910390fd5b61168c85858585856126db565b5050505050565b61169b6117f4565b73ffffffffffffffffffffffffffffffffffffffff166116b96110cc565b73ffffffffffffffffffffffffffffffffffffffff161461170f576040517f08c379a0000000000000000000000000000000000000000000000000000000008152600401611706906140b4565b60405180910390fd5b600073ffffffffffffffffffffffffffffffffffffffff168173ffffffffffffffffffffffffffffffffffffffff160361177e576040517f08c379a0000000000000000000000000000000000000000000000000000000008152600401611775906144cb565b60405180910390fd5b61178781612017565b50565b60007f01ffc9a7000000000000000000000000000000000000000000000000000000007bffffffffffffffffffffffffffffffffffffffffffffffffffffffff1916827bffffffffffffffffffffffffffffffffffffffffffffffffffffffff1916149050919050565b600033905090565b8151835114611840576040517f08c379a00000000000000000000000000000000000000000000000000000000081526004016118379061455d565b60405180910390fd5b600073ffffffffffffffffffffffffffffffffffffffff168473ffffffffffffffffffffffffffffffffffffffff16036118af576040517f08c379a00000000000000000000000000000000000000000000000000000000081526004016118a6906145ef565b60405180910390fd5b60006118b96117f4565b90506118c9818787878787612976565b60005b8451811015611a7a5760008582815181106118ea576118e9613d2a565b5b60200260200101519050600085838151811061190957611908613d2a565b5b60200260200101519050600080600084815260200190815260200160002060008b73ffffffffffffffffffffffffffffffffffffffff1673ffffffffffffffffffffffffffffffffffffffff168152602001908152602001600020549050818110156119aa576040517f08c379a00000000000000000000000000000000000000000000000000000000081526004016119a190614681565b60405180910390fd5b81810360008085815260200190815260200160002060008c73ffffffffffffffffffffffffffffffffffffffff1673ffffffffffffffffffffffffffffffffffffffff168152602001908152602001600020819055508160008085815260200190815260200160002060008b73ffffffffffffffffffffffffffffffffffffffff1673ffffffffffffffffffffffffffffffffffffffff1681526020019081526020016000206000828254611a5f919061420c565b9250508190555050505080611a7390614020565b90506118cc565b508473ffffffffffffffffffffffffffffffffffffffff168673ffffffffffffffffffffffffffffffffffffffff168273ffffffffffffffffffffffffffffffffffffffff167f4a39dc06d4c0dbc64b70af90fd698a233a518aa5d07e595d983b8c0526c8f7fb8787604051611af19291906146a1565b60405180910390a4611b0781878787878761297e565b611b15818787878787612986565b505050505050565b600073ffffffffffffffffffffffffffffffffffffffff168373ffffffffffffffffffffffffffffffffffffffff1603611b8c576040517f08c379a0000000000000000000000000000000000000000000000000000000008152600401611b839061474a565b60405180910390fd5b8051825114611bd0576040517f08c379a0000000000000000000000000000000000000000000000000000000008152600401611bc79061455d565b60405180910390fd5b6000611bda6117f4565b9050611bfa81856000868660405180602001604052806000815250612976565b60005b8351811015611d47576000848281518110611c1b57611c1a613d2a565b5b602002602001015190506000848381518110611c3a57611c39613d2a565b5b60200260200101519050600080600084815260200190815260200160002060008973ffffffffffffffffffffffffffffffffffffffff1673ffffffffffffffffffffffffffffffffffffffff16815260200190815260200160002054905081811015611cdb576040517f08c379a0000000000000000000000000000000000000000000000000000000008152600401611cd2906147dc565b60405180910390fd5b81810360008085815260200190815260200160002060008a73ffffffffffffffffffffffffffffffffffffffff1673ffffffffffffffffffffffffffffffffffffffff168152602001908152602001600020819055505050508080611d3f90614020565b915050611bfd565b50600073ffffffffffffffffffffffffffffffffffffffff168473ffffffffffffffffffffffffffffffffffffffff168273ffffffffffffffffffffffffffffffffffffffff167f4a39dc06d4c0dbc64b70af90fd698a233a518aa5d07e595d983b8c0526c8f7fb8686604051611dbf9291906146a1565b60405180910390a4611de58185600086866040518060200160405280600081525061297e565b50505050565b600073ffffffffffffffffffffffffffffffffffffffff168473ffffffffffffffffffffffffffffffffffffffff1603611e5a576040517f08c379a0000000000000000000000000000000000000000000000000000000008152600401611e519061486e565b60405180910390fd5b8151835114611e9e576040517f08c379a0000000000000000000000000000000000000000000000000000000008152600401611e959061455d565b60405180910390fd5b6000611ea86117f4565b9050611eb981600087878787612976565b60005b8451811015611f7257838181518110611ed857611ed7613d2a565b5b6020026020010151600080878481518110611ef657611ef5613d2a565b5b6020026020010151815260200190815260200160002060008873ffffffffffffffffffffffffffffffffffffffff1673ffffffffffffffffffffffffffffffffffffffff1681526020019081526020016000206000828254611f58919061420c565b925050819055508080611f6a90614020565b915050611ebc565b508473ffffffffffffffffffffffffffffffffffffffff16600073ffffffffffffffffffffffffffffffffffffffff168273ffffffffffffffffffffffffffffffffffffffff167f4a39dc06d4c0dbc64b70af90fd698a233a518aa5d07e595d983b8c0526c8f7fb8787604051611fea9291906146a1565b60405180910390a46120018160008787878761297e565b61201081600087878787612986565b5050505050565b6000600360009054906101000a900473ffffffffffffffffffffffffffffffffffffffff16905081600360006101000a81548173ffffffffffffffffffffffffffffffffffffffff021916908373ffffffffffffffffffffffffffffffffffffffff1602179055508173ffffffffffffffffffffffffffffffffffffffff168173ffffffffffffffffffffffffffffffffffffffff167f8be0079c531659141344cd1fd0a4f28419497f9722a3daafe3b4186f6b6457e060405160405180910390a35050565b600073ffffffffffffffffffffffffffffffffffffffff168473ffffffffffffffffffffffffffffffffffffffff160361214c576040517f08c379a00000000000000000000000000000000000000000000000000000000081526004016121439061486e565b60405180910390fd5b60006121566117f4565b9050600061216385612b5d565b9050600061217085612b5d565b905061218183600089858589612976565b8460008088815260200190815260200160002060008973ffffffffffffffffffffffffffffffffffffffff1673ffffffffffffffffffffffffffffffffffffffff16815260200190815260200160002060008282546121e0919061420c565b925050819055508673ffffffffffffffffffffffffffffffffffffffff16600073ffffffffffffffffffffffffffffffffffffffff168473ffffffffffffffffffffffffffffffffffffffff167fc3d58168c5ae7397731d063d5bbf3d657854427343f4c083240f7aacaa2d0f62898960405161225e92919061488e565b60405180910390a46122758360008985858961297e565b61228483600089898989612bd7565b50505050505050565b8173ffffffffffffffffffffffffffffffffffffffff168373ffffffffffffffffffffffffffffffffffffffff16036122fb576040517f08c379a00000000000000000000000000000000000000000000000000000000081526004016122f290614929565b60405180910390fd5b80600160008573ffffffffffffffffffffffffffffffffffffffff1673ffffffffffffffffffffffffffffffffffffffff16815260200190815260200160002060008473ffffffffffffffffffffffffffffffffffffffff1673ffffffffffffffffffffffffffffffffffffffff16815260200190815260200160002060006101000a81548160ff0219169083151502179055508173ffffffffffffffffffffffffffffffffffffffff168373ffffffffffffffffffffffffffffffffffffffff167f17307eab39ab6107e8899845ad3d59bd9653f200f220920489ca2b5937696c31836040516123ec919061304f565b60405180910390a3505050565b600073ffffffffffffffffffffffffffffffffffffffff168373ffffffffffffffffffffffffffffffffffffffff1603612468576040517f08c379a000000000000000000000000000000000000000000000000000000000815260040161245f9061474a565b60405180910390fd5b60006124726117f4565b9050600061247f84612b5d565b9050600061248c84612b5d565b90506124ac83876000858560405180602001604052806000815250612976565b600080600087815260200190815260200160002060008873ffffffffffffffffffffffffffffffffffffffff1673ffffffffffffffffffffffffffffffffffffffff16815260200190815260200160002054905084811015612543576040517f08c379a000000000000000000000000000000000000000000000000000000000815260040161253a906147dc565b60405180910390fd5b84810360008088815260200190815260200160002060008973ffffffffffffffffffffffffffffffffffffffff1673ffffffffffffffffffffffffffffffffffffffff16815260200190815260200160002081905550600073ffffffffffffffffffffffffffffffffffffffff168773ffffffffffffffffffffffffffffffffffffffff168573ffffffffffffffffffffffffffffffffffffffff167fc3d58168c5ae7397731d063d5bbf3d657854427343f4c083240f7aacaa2d0f62898960405161261092919061488e565b60405180910390a46126368488600086866040518060200160405280600081525061297e565b50505050505050565b6126d78282604051602401612655929190614949565b6040516020818303038152906040527f319af333000000000000000000000000000000000000000000000000000000007bffffffffffffffffffffffffffffffffffffffffffffffffffffffff19166020820180517bffffffffffffffffffffffffffffffffffffffffffffffffffffffff8381831617835250505050612dae565b5050565b600073ffffffffffffffffffffffffffffffffffffffff168473ffffffffffffffffffffffffffffffffffffffff160361274a576040517f08c379a0000000000000000000000000000000000000000000000000000000008152600401612741906145ef565b60405180910390fd5b60006127546117f4565b9050600061276185612b5d565b9050600061276e85612b5d565b905061277e838989858589612976565b600080600088815260200190815260200160002060008a73ffffffffffffffffffffffffffffffffffffffff1673ffffffffffffffffffffffffffffffffffffffff16815260200190815260200160002054905085811015612815576040517f08c379a000000000000000000000000000000000000000000000000000000000815260040161280c90614681565b60405180910390fd5b85810360008089815260200190815260200160002060008b73ffffffffffffffffffffffffffffffffffffffff1673ffffffffffffffffffffffffffffffffffffffff168152602001908152602001600020819055508560008089815260200190815260200160002060008a73ffffffffffffffffffffffffffffffffffffffff1673ffffffffffffffffffffffffffffffffffffffff16815260200190815260200160002060008282546128ca919061420c565b925050819055508773ffffffffffffffffffffffffffffffffffffffff168973ffffffffffffffffffffffffffffffffffffffff168573ffffffffffffffffffffffffffffffffffffffff167fc3d58168c5ae7397731d063d5bbf3d657854427343f4c083240f7aacaa2d0f628a8a60405161294792919061488e565b60405180910390a461295d848a8a86868a61297e565b61296b848a8a8a8a8a612bd7565b505050505050505050565b505050505050565b505050505050565b6129a58473ffffffffffffffffffffffffffffffffffffffff16612dd7565b15612b55578373ffffffffffffffffffffffffffffffffffffffff1663bc197c8187878686866040518663ffffffff1660e01b81526004016129eb9594939291906149ce565b6020604051808303816000875af1925050508015612a2757506040513d601f19601f82011682018060405250810190612a249190614a4b565b60015b612acc57612a33614a85565b806308c379a003612a8f5750612a47614aa7565b80612a525750612a91565b806040517f08c379a0000000000000000000000000000000000000000000000000000000008152600401612a869190613103565b60405180910390fd5b505b6040517f08c379a0000000000000000000000000000000000000000000000000000000008152600401612ac390614ba9565b60405180910390fd5b63bc197c8160e01b7bffffffffffffffffffffffffffffffffffffffffffffffffffffffff1916817bffffffffffffffffffffffffffffffffffffffffffffffffffffffff191614612b53576040517f08c379a0000000000000000000000000000000000000000000000000000000008152600401612b4a90614c3b565b60405180910390fd5b505b505050505050565b60606000600167ffffffffffffffff811115612b7c57612b7b613237565b5b604051908082528060200260200182016040528015612baa5781602001602082028036833780820191505090505b5090508281600081518110612bc257612bc1613d2a565b5b60200260200101818152505080915050919050565b612bf68473ffffffffffffffffffffffffffffffffffffffff16612dd7565b15612da6578373ffffffffffffffffffffffffffffffffffffffff1663f23a6e6187878686866040518663ffffffff1660e01b8152600401612c3c959493929190614c5b565b6020604051808303816000875af1925050508015612c7857506040513d601f19601f82011682018060405250810190612c759190614a4b565b60015b612d1d57612c84614a85565b806308c379a003612ce05750612c98614aa7565b80612ca35750612ce2565b806040517f08c379a0000000000000000000000000000000000000000000000000000000008152600401612cd79190613103565b60405180910390fd5b505b6040517f08c379a0000000000000000000000000000000000000000000000000000000008152600401612d1490614ba9565b60405180910390fd5b63f23a6e6160e01b7bffffffffffffffffffffffffffffffffffffffffffffffffffffffff1916817bffffffffffffffffffffffffffffffffffffffffffffffffffffffff191614612da4576040517f08c379a0000000000000000000000000000000000000000000000000000000008152600401612d9b90614c3b565b60405180910390fd5b505b505050505050565b60008151905060006a636f6e736f6c652e6c6f679050602083016000808483855afa5050505050565b6000808273ffffffffffffffffffffffffffffffffffffffff163b119050919050565b828054612e0690613cf9565b90600052602060002090601f016020900481019282612e285760008555612e6f565b82601f10612e4157805160ff1916838001178555612e6f565b82800160010185558215612e6f579182015b82811115612e6e578251825591602001919060010190612e53565b5b509050612e7c9190612e80565b5090565b5b80821115612e99576000816000905550600101612e81565b5090565b6000604051905090565b600080fd5b600080fd5b600073ffffffffffffffffffffffffffffffffffffffff82169050919050565b6000612edc82612eb1565b9050919050565b612eec81612ed1565b8114612ef757600080fd5b50565b600081359050612f0981612ee3565b92915050565b6000819050919050565b612f2281612f0f565b8114612f2d57600080fd5b50565b600081359050612f3f81612f19565b92915050565b60008060408385031215612f5c57612f5b612ea7565b5b6000612f6a85828601612efa565b9250506020612f7b85828601612f30565b9150509250929050565b612f8e81612f0f565b82525050565b6000602082019050612fa96000830184612f85565b92915050565b60007fffffffff0000000000000000000000000000000000000000000000000000000082169050919050565b612fe481612faf565b8114612fef57600080fd5b50565b60008135905061300181612fdb565b92915050565b60006020828403121561301d5761301c612ea7565b5b600061302b84828501612ff2565b91505092915050565b60008115159050919050565b61304981613034565b82525050565b60006020820190506130646000830184613040565b92915050565b600081519050919050565b600082825260208201905092915050565b60005b838110156130a4578082015181840152602081019050613089565b838111156130b3576000848401525b50505050565b6000601f19601f8301169050919050565b60006130d58261306a565b6130df8185613075565b93506130ef818560208601613086565b6130f8816130b9565b840191505092915050565b6000602082019050818103600083015261311d81846130ca565b905092915050565b60006020828403121561313b5761313a612ea7565b5b600061314984828501612f30565b91505092915050565b600081519050919050565b600082825260208201905092915050565b6000819050602082019050919050565b61318781612f0f565b82525050565b6000613199838361317e565b60208301905092915050565b6000602082019050919050565b60006131bd82613152565b6131c7818561315d565b93506131d28361316e565b8060005b838110156132035781516131ea888261318d565b97506131f5836131a5565b9250506001810190506131d6565b5085935050505092915050565b6000602082019050818103600083015261322a81846131b2565b905092915050565b600080fd5b7f4e487b7100000000000000000000000000000000000000000000000000000000600052604160045260246000fd5b61326f826130b9565b810181811067ffffffffffffffff8211171561328e5761328d613237565b5b80604052505050565b60006132a1612e9d565b90506132ad8282613266565b919050565b600067ffffffffffffffff8211156132cd576132cc613237565b5b602082029050602081019050919050565b600080fd5b60006132f66132f1846132b2565b613297565b90508083825260208201905060208402830185811115613319576133186132de565b5b835b81811015613342578061332e8882612f30565b84526020840193505060208101905061331b565b5050509392505050565b600082601f83011261336157613360613232565b5b81356133718482602086016132e3565b91505092915050565b600080fd5b600067ffffffffffffffff82111561339a57613399613237565b5b6133a3826130b9565b9050602081019050919050565b82818337600083830152505050565b60006133d26133cd8461337f565b613297565b9050828152602081018484840111156133ee576133ed61337a565b5b6133f98482856133b0565b509392505050565b600082601f83011261341657613415613232565b5b81356134268482602086016133bf565b91505092915050565b600080600080600060a0868803121561344b5761344a612ea7565b5b600061345988828901612efa565b955050602061346a88828901612efa565b945050604086013567ffffffffffffffff81111561348b5761348a612eac565b5b6134978882890161334c565b935050606086013567ffffffffffffffff8111156134b8576134b7612eac565b5b6134c48882890161334c565b925050608086013567ffffffffffffffff8111156134e5576134e4612eac565b5b6134f188828901613401565b9150509295509295909350565b600067ffffffffffffffff82111561351957613518613237565b5b602082029050602081019050919050565b600061353d613538846134fe565b613297565b905080838252602082019050602084028301858111156135605761355f6132de565b5b835b8181101561358957806135758882612efa565b845260208401935050602081019050613562565b5050509392505050565b600082601f8301126135a8576135a7613232565b5b81356135b884826020860161352a565b91505092915050565b600080604083850312156135d8576135d7612ea7565b5b600083013567ffffffffffffffff8111156135f6576135f5612eac565b5b61360285828601613593565b925050602083013567ffffffffffffffff81111561362357613622612eac565b5b61362f8582860161334c565b9150509250929050565b600080600080600060a0868803121561365557613654612ea7565b5b600061366388828901612efa565b955050602086013567ffffffffffffffff81111561368457613683612eac565b5b6136908882890161334c565b945050604086013567ffffffffffffffff8111156136b1576136b0612eac565b5b6136bd8882890161334c565b935050606086013567ffffffffffffffff8111156136de576136dd612eac565b5b6136ea8882890161334c565b925050608086013567ffffffffffffffff81111561370b5761370a612eac565b5b6137178882890161334c565b9150509295509295909350565b600067ffffffffffffffff82169050919050565b61374181613724565b811461374c57600080fd5b50565b60008135905061375e81613738565b92915050565b60008060006060848603121561377d5761377c612ea7565b5b600061378b86828701612efa565b935050602061379c8682870161374f565b92505060406137ad86828701612f30565b9150509250925092565b600080604083850312156137ce576137cd612ea7565b5b600083013567ffffffffffffffff8111156137ec576137eb612eac565b5b6137f88582860161334c565b925050602083013567ffffffffffffffff81111561381957613818612eac565b5b6138258582860161334c565b9150509250929050565b6000819050919050565b600061385461384f61384a84612eb1565b61382f565b612eb1565b9050919050565b600061386682613839565b9050919050565b60006138788261385b565b9050919050565b6138888161386d565b82525050565b60006020820190506138a3600083018461387f565b92915050565b600067ffffffffffffffff8211156138c4576138c3613237565b5b6138cd826130b9565b9050602081019050919050565b60006138ed6138e8846138a9565b613297565b9050828152602081018484840111156139095761390861337a565b5b6139148482856133b0565b509392505050565b600082601f83011261393157613930613232565b5b81356139418482602086016138da565b91505092915050565b6000806040838503121561396157613960612ea7565b5b600061396f85828601612f30565b925050602083013567ffffffffffffffff8111156139905761398f612eac565b5b61399c8582860161391c565b9150509250929050565b6139af81612ed1565b82525050565b60006020820190506139ca60008301846139a6565b92915050565b6139d981613034565b81146139e457600080fd5b50565b6000813590506139f6816139d0565b92915050565b60008060408385031215613a1357613a12612ea7565b5b6000613a2185828601612efa565b9250506020613a32858286016139e7565b9150509250929050565b600060208284031215613a5257613a51612ea7565b5b6000613a608482850161374f565b91505092915050565b60008060408385031215613a8057613a7f612ea7565b5b6000613a8e85828601612f30565b9250506020613a9f85828601612f30565b9150509250929050565b600080600060608486031215613ac257613ac1612ea7565b5b6000613ad086828701612efa565b935050602084013567ffffffffffffffff811115613af157613af0612eac565b5b613afd8682870161334c565b925050604084013567ffffffffffffffff811115613b1e57613b1d612eac565b5b613b2a8682870161334c565b9150509250925092565b60008060408385031215613b4b57613b4a612ea7565b5b6000613b5985828601612efa565b9250506020613b6a85828601612efa565b9150509250929050565b600080600080600060a08688031215613b9057613b8f612ea7565b5b6000613b9e88828901612efa565b9550506020613baf88828901612efa565b9450506040613bc088828901612f30565b9350506060613bd188828901612f30565b925050608086013567ffffffffffffffff811115613bf257613bf1612eac565b5b613bfe88828901613401565b9150509295509295909350565b600060208284031215613c2157613c20612ea7565b5b6000613c2f84828501612efa565b91505092915050565b7f455243313135353a2062616c616e636520717565727920666f7220746865207a60008201527f65726f2061646472657373000000000000000000000000000000000000000000602082015250565b6000613c94602b83613075565b9150613c9f82613c38565b604082019050919050565b60006020820190508181036000830152613cc381613c87565b9050919050565b7f4e487b7100000000000000000000000000000000000000000000000000000000600052602260045260246000fd5b60006002820490506001821680613d1157607f821691505b602082108103613d2457613d23613cca565b5b50919050565b7f4e487b7100000000000000000000000000000000000000000000000000000000600052603260045260246000fd5b7f4e487b7100000000000000000000000000000000000000000000000000000000600052601160045260246000fd5b6000613d9382613724565b915067ffffffffffffffff8203613dad57613dac613d59565b5b600182019050919050565b7f455243313135353a207472616e736665722063616c6c6572206973206e6f742060008201527f6f776e6572206e6f7220617070726f7665640000000000000000000000000000602082015250565b6000613e14603283613075565b9150613e1f82613db8565b604082019050919050565b60006020820190508181036000830152613e4381613e07565b9050919050565b7f616464726573732062616c616e63652073686f756c642062652067726561746560008201527f7220300000000000000000000000000000000000000000000000000000000000602082015250565b6000613ea6602383613075565b9150613eb182613e4a565b604082019050919050565b60006020820190508181036000830152613ed581613e99565b9050919050565b600081905092915050565b50565b6000613ef7600083613edc565b9150613f0282613ee7565b600082019050919050565b6000613f1882613eea565b9150819050919050565b7f4661696c6564207769746864726177206d6f6e65790000000000000000000000600082015250565b6000613f58601583613075565b9150613f6382613f22565b602082019050919050565b60006020820190508181036000830152613f8781613f4b565b9050919050565b7f455243313135353a206163636f756e747320616e6420696473206c656e67746860008201527f206d69736d617463680000000000000000000000000000000000000000000000602082015250565b6000613fea602983613075565b9150613ff582613f8e565b604082019050919050565b6000602082019050818103600083015261401981613fdd565b9050919050565b600061402b82612f0f565b91507fffffffffffffffffffffffffffffffffffffffffffffffffffffffffffffffff820361405d5761405c613d59565b5b600182019050919050565b7f4f776e61626c653a2063616c6c6572206973206e6f7420746865206f776e6572600082015250565b600061409e602083613075565b91506140a982614068565b602082019050919050565b600060208201905081810360008301526140cd81614091565b9050919050565b7f4e487b7100000000000000000000000000000000000000000000000000000000600052601260045260246000fd5b600061410e82612f0f565b915061411983612f0f565b925082614129576141286140d4565b5b828204905092915050565b7f616d6f756e742073686f756c6420626520657175616c20636f73740000000000600082015250565b600061416a601b83613075565b915061417582614134565b602082019050919050565b600060208201905081810360008301526141998161415d565b9050919050565b7f57726f6e67207465616d20706172616d65746572000000000000000000000000600082015250565b60006141d6601483613075565b91506141e1826141a0565b602082019050919050565b60006020820190508181036000830152614205816141c9565b9050919050565b600061421782612f0f565b915061422283612f0f565b9250827fffffffffffffffffffffffffffffffffffffffffffffffffffffffffffffffff0382111561425757614256613d59565b5b828201905092915050565b7f54686520616d6f756e74206f66207469636b657473206973206e6f742061766160008201527f696c61626c650000000000000000000000000000000000000000000000000000602082015250565b60006142be602683613075565b91506142c982614262565b604082019050919050565b600060208201905081810360008301526142ed816142b1565b9050919050565b60006142ff82612f0f565b915061430a83612f0f565b9250817fffffffffffffffffffffffffffffffffffffffffffffffffffffffffffffffff048311821515161561434357614342613d59565b5b828202905092915050565b600060608201905061436360008301866139a6565b61437060208301856139a6565b61437d6040830184612f85565b949350505050565b600081519050614394816139d0565b92915050565b6000602082840312156143b0576143af612ea7565b5b60006143be84828501614385565b91505092915050565b7f455243313135353a2063616c6c6572206973206e6f74206f776e6572206e6f7260008201527f20617070726f7665640000000000000000000000000000000000000000000000602082015250565b6000614423602983613075565b915061442e826143c7565b604082019050919050565b6000602082019050818103600083015261445281614416565b9050919050565b7f4f776e61626c653a206e6577206f776e657220697320746865207a65726f206160008201527f6464726573730000000000000000000000000000000000000000000000000000602082015250565b60006144b5602683613075565b91506144c082614459565b604082019050919050565b600060208201905081810360008301526144e4816144a8565b9050919050565b7f455243313135353a2069647320616e6420616d6f756e7473206c656e6774682060008201527f6d69736d61746368000000000000000000000000000000000000000000000000602082015250565b6000614547602883613075565b9150614552826144eb565b604082019050919050565b600060208201905081810360008301526145768161453a565b9050919050565b7f455243313135353a207472616e7366657220746f20746865207a65726f20616460008201527f6472657373000000000000000000000000000000000000000000000000000000602082015250565b60006145d9602583613075565b91506145e48261457d565b604082019050919050565b60006020820190508181036000830152614608816145cc565b9050919050565b7f455243313135353a20696e73756666696369656e742062616c616e636520666f60008201527f72207472616e7366657200000000000000000000000000000000000000000000602082015250565b600061466b602a83613075565b91506146768261460f565b604082019050919050565b6000602082019050818103600083015261469a8161465e565b9050919050565b600060408201905081810360008301526146bb81856131b2565b905081810360208301526146cf81846131b2565b90509392505050565b7f455243313135353a206275726e2066726f6d20746865207a65726f206164647260008201527f6573730000000000000000000000000000000000000000000000000000000000602082015250565b6000614734602383613075565b915061473f826146d8565b604082019050919050565b6000602082019050818103600083015261476381614727565b9050919050565b7f455243313135353a206275726e20616d6f756e7420657863656564732062616c60008201527f616e636500000000000000000000000000000000000000000000000000000000602082015250565b60006147c6602483613075565b91506147d18261476a565b604082019050919050565b600060208201905081810360008301526147f5816147b9565b9050919050565b7f455243313135353a206d696e7420746f20746865207a65726f2061646472657360008201527f7300000000000000000000000000000000000000000000000000000000000000602082015250565b6000614858602183613075565b9150614863826147fc565b604082019050919050565b600060208201905081810360008301526148878161484b565b9050919050565b60006040820190506148a36000830185612f85565b6148b06020830184612f85565b9392505050565b7f455243313135353a2073657474696e6720617070726f76616c2073746174757360008201527f20666f722073656c660000000000000000000000000000000000000000000000602082015250565b6000614913602983613075565b915061491e826148b7565b604082019050919050565b6000602082019050818103600083015261494281614906565b9050919050565b6000604082019050818103600083015261496381856130ca565b905061497260208301846139a6565b9392505050565b600081519050919050565b600082825260208201905092915050565b60006149a082614979565b6149aa8185614984565b93506149ba818560208601613086565b6149c3816130b9565b840191505092915050565b600060a0820190506149e360008301886139a6565b6149f060208301876139a6565b8181036040830152614a0281866131b2565b90508181036060830152614a1681856131b2565b90508181036080830152614a2a8184614995565b90509695505050505050565b600081519050614a4581612fdb565b92915050565b600060208284031215614a6157614a60612ea7565b5b6000614a6f84828501614a36565b91505092915050565b60008160e01c9050919050565b600060033d1115614aa45760046000803e614aa1600051614a78565b90505b90565b600060443d10614b3457614ab9612e9d565b60043d036004823e80513d602482011167ffffffffffffffff82111715614ae1575050614b34565b808201805167ffffffffffffffff811115614aff5750505050614b34565b80602083010160043d038501811115614b1c575050505050614b34565b614b2b82602001850186613266565b82955050505050505b90565b7f455243313135353a207472616e7366657220746f206e6f6e204552433131353560008201527f526563656976657220696d706c656d656e746572000000000000000000000000602082015250565b6000614b93603483613075565b9150614b9e82614b37565b604082019050919050565b60006020820190508181036000830152614bc281614b86565b9050919050565b7f455243313135353a204552433131353552656365697665722072656a6563746560008201527f6420746f6b656e73000000000000000000000000000000000000000000000000602082015250565b6000614c25602883613075565b9150614c3082614bc9565b604082019050919050565b60006020820190508181036000830152614c5481614c18565b9050919050565b600060a082019050614c7060008301886139a6565b614c7d60208301876139a6565b614c8a6040830186612f85565b614c976060830185612f85565b8181036080830152614ca98184614995565b9050969550505050505056fea26469706673582212202f4ac82b41a61b0edf3b5a7b53b7894286396f21897df95fd1939a32c9ef350a64736f6c634300080e0033",
  "linkReferences": {},
  "deployedLinkReferences": {}
}